
GPIO_3.elf:     file format elf32-littlearm

Sections:
Idx Name          Size      VMA       LMA       File off  Algn
  0 .isr_vector   00000188  08000000  08000000  00010000  2**0
                  CONTENTS, ALLOC, LOAD, READONLY, DATA
  1 .text         000017c8  08000188  08000188  00010188  2**2
                  CONTENTS, ALLOC, LOAD, READONLY, CODE
  2 .rodata       00000010  08001950  08001950  00011950  2**2
                  CONTENTS, ALLOC, LOAD, READONLY, DATA
  3 .ARM.extab    00000000  08001960  08001960  00020010  2**0
                  CONTENTS
  4 .ARM          00000008  08001960  08001960  00011960  2**2
                  CONTENTS, ALLOC, LOAD, READONLY, DATA
  5 .preinit_array 00000000  08001968  08001968  00020010  2**0
                  CONTENTS, ALLOC, LOAD, DATA
  6 .init_array   00000004  08001968  08001968  00011968  2**2
                  CONTENTS, ALLOC, LOAD, DATA
  7 .fini_array   00000004  0800196c  0800196c  0001196c  2**2
                  CONTENTS, ALLOC, LOAD, DATA
  8 .data         00000010  20000000  08001970  00020000  2**2
                  CONTENTS, ALLOC, LOAD, DATA
  9 .ccmram       00000000  10000000  10000000  00020010  2**0
                  CONTENTS
 10 .bss          00000024  20000010  20000010  00020010  2**2
                  ALLOC
 11 ._user_heap_stack 00000604  20000034  20000034  00020010  2**0
                  ALLOC
 12 .ARM.attributes 00000030  00000000  00000000  00020010  2**0
                  CONTENTS, READONLY
 13 .debug_info   00003bb5  00000000  00000000  00020040  2**0
                  CONTENTS, READONLY, DEBUGGING, OCTETS
 14 .debug_abbrev 00000e6d  00000000  00000000  00023bf5  2**0
                  CONTENTS, READONLY, DEBUGGING, OCTETS
 15 .debug_aranges 00000400  00000000  00000000  00024a68  2**3
                  CONTENTS, READONLY, DEBUGGING, OCTETS
 16 .debug_ranges 00000378  00000000  00000000  00024e68  2**3
                  CONTENTS, READONLY, DEBUGGING, OCTETS
 17 .debug_macro  0001ed65  00000000  00000000  000251e0  2**0
                  CONTENTS, READONLY, DEBUGGING, OCTETS
 18 .debug_line   000049e6  00000000  00000000  00043f45  2**0
                  CONTENTS, READONLY, DEBUGGING, OCTETS
 19 .debug_str    000bbdf3  00000000  00000000  0004892b  2**0
                  CONTENTS, READONLY, DEBUGGING, OCTETS
 20 .comment      00000050  00000000  00000000  0010471e  2**0
                  CONTENTS, READONLY
 21 .debug_frame  00000e58  00000000  00000000  00104770  2**2
                  CONTENTS, READONLY, DEBUGGING, OCTETS

Disassembly of section .text:

08000188 <__do_global_dtors_aux>:
 8000188:	b510      	push	{r4, lr}
 800018a:	4c05      	ldr	r4, [pc, #20]	; (80001a0 <__do_global_dtors_aux+0x18>)
 800018c:	7823      	ldrb	r3, [r4, #0]
 800018e:	b933      	cbnz	r3, 800019e <__do_global_dtors_aux+0x16>
 8000190:	4b04      	ldr	r3, [pc, #16]	; (80001a4 <__do_global_dtors_aux+0x1c>)
 8000192:	b113      	cbz	r3, 800019a <__do_global_dtors_aux+0x12>
 8000194:	4804      	ldr	r0, [pc, #16]	; (80001a8 <__do_global_dtors_aux+0x20>)
 8000196:	f3af 8000 	nop.w
 800019a:	2301      	movs	r3, #1
 800019c:	7023      	strb	r3, [r4, #0]
 800019e:	bd10      	pop	{r4, pc}
 80001a0:	20000010 	.word	0x20000010
 80001a4:	00000000 	.word	0x00000000
 80001a8:	08001938 	.word	0x08001938

080001ac <frame_dummy>:
 80001ac:	b508      	push	{r3, lr}
 80001ae:	4b03      	ldr	r3, [pc, #12]	; (80001bc <frame_dummy+0x10>)
 80001b0:	b11b      	cbz	r3, 80001ba <frame_dummy+0xe>
 80001b2:	4903      	ldr	r1, [pc, #12]	; (80001c0 <frame_dummy+0x14>)
 80001b4:	4803      	ldr	r0, [pc, #12]	; (80001c4 <frame_dummy+0x18>)
 80001b6:	f3af 8000 	nop.w
 80001ba:	bd08      	pop	{r3, pc}
 80001bc:	00000000 	.word	0x00000000
 80001c0:	20000014 	.word	0x20000014
 80001c4:	08001938 	.word	0x08001938

080001c8 <__aeabi_uldivmod>:
 80001c8:	b953      	cbnz	r3, 80001e0 <__aeabi_uldivmod+0x18>
 80001ca:	b94a      	cbnz	r2, 80001e0 <__aeabi_uldivmod+0x18>
 80001cc:	2900      	cmp	r1, #0
 80001ce:	bf08      	it	eq
 80001d0:	2800      	cmpeq	r0, #0
 80001d2:	bf1c      	itt	ne
 80001d4:	f04f 31ff 	movne.w	r1, #4294967295
 80001d8:	f04f 30ff 	movne.w	r0, #4294967295
 80001dc:	f000 b974 	b.w	80004c8 <__aeabi_idiv0>
 80001e0:	f1ad 0c08 	sub.w	ip, sp, #8
 80001e4:	e96d ce04 	strd	ip, lr, [sp, #-16]!
 80001e8:	f000 f806 	bl	80001f8 <__udivmoddi4>
 80001ec:	f8dd e004 	ldr.w	lr, [sp, #4]
 80001f0:	e9dd 2302 	ldrd	r2, r3, [sp, #8]
 80001f4:	b004      	add	sp, #16
 80001f6:	4770      	bx	lr

080001f8 <__udivmoddi4>:
 80001f8:	e92d 47f0 	stmdb	sp!, {r4, r5, r6, r7, r8, r9, sl, lr}
 80001fc:	9d08      	ldr	r5, [sp, #32]
 80001fe:	4604      	mov	r4, r0
 8000200:	468e      	mov	lr, r1
 8000202:	2b00      	cmp	r3, #0
 8000204:	d14d      	bne.n	80002a2 <__udivmoddi4+0xaa>
 8000206:	428a      	cmp	r2, r1
 8000208:	4694      	mov	ip, r2
 800020a:	d969      	bls.n	80002e0 <__udivmoddi4+0xe8>
 800020c:	fab2 f282 	clz	r2, r2
 8000210:	b152      	cbz	r2, 8000228 <__udivmoddi4+0x30>
 8000212:	fa01 f302 	lsl.w	r3, r1, r2
 8000216:	f1c2 0120 	rsb	r1, r2, #32
 800021a:	fa20 f101 	lsr.w	r1, r0, r1
 800021e:	fa0c fc02 	lsl.w	ip, ip, r2
 8000222:	ea41 0e03 	orr.w	lr, r1, r3
 8000226:	4094      	lsls	r4, r2
 8000228:	ea4f 481c 	mov.w	r8, ip, lsr #16
 800022c:	0c21      	lsrs	r1, r4, #16
 800022e:	fbbe f6f8 	udiv	r6, lr, r8
 8000232:	fa1f f78c 	uxth.w	r7, ip
 8000236:	fb08 e316 	mls	r3, r8, r6, lr
 800023a:	ea41 4303 	orr.w	r3, r1, r3, lsl #16
 800023e:	fb06 f107 	mul.w	r1, r6, r7
 8000242:	4299      	cmp	r1, r3
 8000244:	d90a      	bls.n	800025c <__udivmoddi4+0x64>
 8000246:	eb1c 0303 	adds.w	r3, ip, r3
 800024a:	f106 30ff 	add.w	r0, r6, #4294967295
 800024e:	f080 811f 	bcs.w	8000490 <__udivmoddi4+0x298>
 8000252:	4299      	cmp	r1, r3
 8000254:	f240 811c 	bls.w	8000490 <__udivmoddi4+0x298>
 8000258:	3e02      	subs	r6, #2
 800025a:	4463      	add	r3, ip
 800025c:	1a5b      	subs	r3, r3, r1
 800025e:	b2a4      	uxth	r4, r4
 8000260:	fbb3 f0f8 	udiv	r0, r3, r8
 8000264:	fb08 3310 	mls	r3, r8, r0, r3
 8000268:	ea44 4403 	orr.w	r4, r4, r3, lsl #16
 800026c:	fb00 f707 	mul.w	r7, r0, r7
 8000270:	42a7      	cmp	r7, r4
 8000272:	d90a      	bls.n	800028a <__udivmoddi4+0x92>
 8000274:	eb1c 0404 	adds.w	r4, ip, r4
 8000278:	f100 33ff 	add.w	r3, r0, #4294967295
 800027c:	f080 810a 	bcs.w	8000494 <__udivmoddi4+0x29c>
 8000280:	42a7      	cmp	r7, r4
 8000282:	f240 8107 	bls.w	8000494 <__udivmoddi4+0x29c>
 8000286:	4464      	add	r4, ip
 8000288:	3802      	subs	r0, #2
 800028a:	ea40 4006 	orr.w	r0, r0, r6, lsl #16
 800028e:	1be4      	subs	r4, r4, r7
 8000290:	2600      	movs	r6, #0
 8000292:	b11d      	cbz	r5, 800029c <__udivmoddi4+0xa4>
 8000294:	40d4      	lsrs	r4, r2
 8000296:	2300      	movs	r3, #0
 8000298:	e9c5 4300 	strd	r4, r3, [r5]
 800029c:	4631      	mov	r1, r6
 800029e:	e8bd 87f0 	ldmia.w	sp!, {r4, r5, r6, r7, r8, r9, sl, pc}
 80002a2:	428b      	cmp	r3, r1
 80002a4:	d909      	bls.n	80002ba <__udivmoddi4+0xc2>
 80002a6:	2d00      	cmp	r5, #0
 80002a8:	f000 80ef 	beq.w	800048a <__udivmoddi4+0x292>
 80002ac:	2600      	movs	r6, #0
 80002ae:	e9c5 0100 	strd	r0, r1, [r5]
 80002b2:	4630      	mov	r0, r6
 80002b4:	4631      	mov	r1, r6
 80002b6:	e8bd 87f0 	ldmia.w	sp!, {r4, r5, r6, r7, r8, r9, sl, pc}
 80002ba:	fab3 f683 	clz	r6, r3
 80002be:	2e00      	cmp	r6, #0
 80002c0:	d14a      	bne.n	8000358 <__udivmoddi4+0x160>
 80002c2:	428b      	cmp	r3, r1
 80002c4:	d302      	bcc.n	80002cc <__udivmoddi4+0xd4>
 80002c6:	4282      	cmp	r2, r0
 80002c8:	f200 80f9 	bhi.w	80004be <__udivmoddi4+0x2c6>
 80002cc:	1a84      	subs	r4, r0, r2
 80002ce:	eb61 0303 	sbc.w	r3, r1, r3
 80002d2:	2001      	movs	r0, #1
 80002d4:	469e      	mov	lr, r3
 80002d6:	2d00      	cmp	r5, #0
 80002d8:	d0e0      	beq.n	800029c <__udivmoddi4+0xa4>
 80002da:	e9c5 4e00 	strd	r4, lr, [r5]
 80002de:	e7dd      	b.n	800029c <__udivmoddi4+0xa4>
 80002e0:	b902      	cbnz	r2, 80002e4 <__udivmoddi4+0xec>
 80002e2:	deff      	udf	#255	; 0xff
 80002e4:	fab2 f282 	clz	r2, r2
 80002e8:	2a00      	cmp	r2, #0
 80002ea:	f040 8092 	bne.w	8000412 <__udivmoddi4+0x21a>
 80002ee:	eba1 010c 	sub.w	r1, r1, ip
 80002f2:	ea4f 471c 	mov.w	r7, ip, lsr #16
 80002f6:	fa1f fe8c 	uxth.w	lr, ip
 80002fa:	2601      	movs	r6, #1
 80002fc:	0c20      	lsrs	r0, r4, #16
 80002fe:	fbb1 f3f7 	udiv	r3, r1, r7
 8000302:	fb07 1113 	mls	r1, r7, r3, r1
 8000306:	ea40 4101 	orr.w	r1, r0, r1, lsl #16
 800030a:	fb0e f003 	mul.w	r0, lr, r3
 800030e:	4288      	cmp	r0, r1
 8000310:	d908      	bls.n	8000324 <__udivmoddi4+0x12c>
 8000312:	eb1c 0101 	adds.w	r1, ip, r1
 8000316:	f103 38ff 	add.w	r8, r3, #4294967295
 800031a:	d202      	bcs.n	8000322 <__udivmoddi4+0x12a>
 800031c:	4288      	cmp	r0, r1
 800031e:	f200 80cb 	bhi.w	80004b8 <__udivmoddi4+0x2c0>
 8000322:	4643      	mov	r3, r8
 8000324:	1a09      	subs	r1, r1, r0
 8000326:	b2a4      	uxth	r4, r4
 8000328:	fbb1 f0f7 	udiv	r0, r1, r7
 800032c:	fb07 1110 	mls	r1, r7, r0, r1
 8000330:	ea44 4401 	orr.w	r4, r4, r1, lsl #16
 8000334:	fb0e fe00 	mul.w	lr, lr, r0
 8000338:	45a6      	cmp	lr, r4
 800033a:	d908      	bls.n	800034e <__udivmoddi4+0x156>
 800033c:	eb1c 0404 	adds.w	r4, ip, r4
 8000340:	f100 31ff 	add.w	r1, r0, #4294967295
 8000344:	d202      	bcs.n	800034c <__udivmoddi4+0x154>
 8000346:	45a6      	cmp	lr, r4
 8000348:	f200 80bb 	bhi.w	80004c2 <__udivmoddi4+0x2ca>
 800034c:	4608      	mov	r0, r1
 800034e:	eba4 040e 	sub.w	r4, r4, lr
 8000352:	ea40 4003 	orr.w	r0, r0, r3, lsl #16
 8000356:	e79c      	b.n	8000292 <__udivmoddi4+0x9a>
 8000358:	f1c6 0720 	rsb	r7, r6, #32
 800035c:	40b3      	lsls	r3, r6
 800035e:	fa22 fc07 	lsr.w	ip, r2, r7
 8000362:	ea4c 0c03 	orr.w	ip, ip, r3
 8000366:	fa20 f407 	lsr.w	r4, r0, r7
 800036a:	fa01 f306 	lsl.w	r3, r1, r6
 800036e:	431c      	orrs	r4, r3
 8000370:	40f9      	lsrs	r1, r7
 8000372:	ea4f 491c 	mov.w	r9, ip, lsr #16
 8000376:	fa00 f306 	lsl.w	r3, r0, r6
 800037a:	fbb1 f8f9 	udiv	r8, r1, r9
 800037e:	0c20      	lsrs	r0, r4, #16
 8000380:	fa1f fe8c 	uxth.w	lr, ip
 8000384:	fb09 1118 	mls	r1, r9, r8, r1
 8000388:	ea40 4101 	orr.w	r1, r0, r1, lsl #16
 800038c:	fb08 f00e 	mul.w	r0, r8, lr
 8000390:	4288      	cmp	r0, r1
 8000392:	fa02 f206 	lsl.w	r2, r2, r6
 8000396:	d90b      	bls.n	80003b0 <__udivmoddi4+0x1b8>
 8000398:	eb1c 0101 	adds.w	r1, ip, r1
 800039c:	f108 3aff 	add.w	sl, r8, #4294967295
 80003a0:	f080 8088 	bcs.w	80004b4 <__udivmoddi4+0x2bc>
 80003a4:	4288      	cmp	r0, r1
 80003a6:	f240 8085 	bls.w	80004b4 <__udivmoddi4+0x2bc>
 80003aa:	f1a8 0802 	sub.w	r8, r8, #2
 80003ae:	4461      	add	r1, ip
 80003b0:	1a09      	subs	r1, r1, r0
 80003b2:	b2a4      	uxth	r4, r4
 80003b4:	fbb1 f0f9 	udiv	r0, r1, r9
 80003b8:	fb09 1110 	mls	r1, r9, r0, r1
 80003bc:	ea44 4101 	orr.w	r1, r4, r1, lsl #16
 80003c0:	fb00 fe0e 	mul.w	lr, r0, lr
 80003c4:	458e      	cmp	lr, r1
 80003c6:	d908      	bls.n	80003da <__udivmoddi4+0x1e2>
 80003c8:	eb1c 0101 	adds.w	r1, ip, r1
 80003cc:	f100 34ff 	add.w	r4, r0, #4294967295
 80003d0:	d26c      	bcs.n	80004ac <__udivmoddi4+0x2b4>
 80003d2:	458e      	cmp	lr, r1
 80003d4:	d96a      	bls.n	80004ac <__udivmoddi4+0x2b4>
 80003d6:	3802      	subs	r0, #2
 80003d8:	4461      	add	r1, ip
 80003da:	ea40 4008 	orr.w	r0, r0, r8, lsl #16
 80003de:	fba0 9402 	umull	r9, r4, r0, r2
 80003e2:	eba1 010e 	sub.w	r1, r1, lr
 80003e6:	42a1      	cmp	r1, r4
 80003e8:	46c8      	mov	r8, r9
 80003ea:	46a6      	mov	lr, r4
 80003ec:	d356      	bcc.n	800049c <__udivmoddi4+0x2a4>
 80003ee:	d053      	beq.n	8000498 <__udivmoddi4+0x2a0>
 80003f0:	b15d      	cbz	r5, 800040a <__udivmoddi4+0x212>
 80003f2:	ebb3 0208 	subs.w	r2, r3, r8
 80003f6:	eb61 010e 	sbc.w	r1, r1, lr
 80003fa:	fa01 f707 	lsl.w	r7, r1, r7
 80003fe:	fa22 f306 	lsr.w	r3, r2, r6
 8000402:	40f1      	lsrs	r1, r6
 8000404:	431f      	orrs	r7, r3
 8000406:	e9c5 7100 	strd	r7, r1, [r5]
 800040a:	2600      	movs	r6, #0
 800040c:	4631      	mov	r1, r6
 800040e:	e8bd 87f0 	ldmia.w	sp!, {r4, r5, r6, r7, r8, r9, sl, pc}
 8000412:	f1c2 0320 	rsb	r3, r2, #32
 8000416:	40d8      	lsrs	r0, r3
 8000418:	fa0c fc02 	lsl.w	ip, ip, r2
 800041c:	fa21 f303 	lsr.w	r3, r1, r3
 8000420:	4091      	lsls	r1, r2
 8000422:	4301      	orrs	r1, r0
 8000424:	ea4f 471c 	mov.w	r7, ip, lsr #16
 8000428:	fa1f fe8c 	uxth.w	lr, ip
 800042c:	fbb3 f0f7 	udiv	r0, r3, r7
 8000430:	fb07 3610 	mls	r6, r7, r0, r3
 8000434:	0c0b      	lsrs	r3, r1, #16
 8000436:	ea43 4306 	orr.w	r3, r3, r6, lsl #16
 800043a:	fb00 f60e 	mul.w	r6, r0, lr
 800043e:	429e      	cmp	r6, r3
 8000440:	fa04 f402 	lsl.w	r4, r4, r2
 8000444:	d908      	bls.n	8000458 <__udivmoddi4+0x260>
 8000446:	eb1c 0303 	adds.w	r3, ip, r3
 800044a:	f100 38ff 	add.w	r8, r0, #4294967295
 800044e:	d22f      	bcs.n	80004b0 <__udivmoddi4+0x2b8>
 8000450:	429e      	cmp	r6, r3
 8000452:	d92d      	bls.n	80004b0 <__udivmoddi4+0x2b8>
 8000454:	3802      	subs	r0, #2
 8000456:	4463      	add	r3, ip
 8000458:	1b9b      	subs	r3, r3, r6
 800045a:	b289      	uxth	r1, r1
 800045c:	fbb3 f6f7 	udiv	r6, r3, r7
 8000460:	fb07 3316 	mls	r3, r7, r6, r3
 8000464:	ea41 4103 	orr.w	r1, r1, r3, lsl #16
 8000468:	fb06 f30e 	mul.w	r3, r6, lr
 800046c:	428b      	cmp	r3, r1
 800046e:	d908      	bls.n	8000482 <__udivmoddi4+0x28a>
 8000470:	eb1c 0101 	adds.w	r1, ip, r1
 8000474:	f106 38ff 	add.w	r8, r6, #4294967295
 8000478:	d216      	bcs.n	80004a8 <__udivmoddi4+0x2b0>
 800047a:	428b      	cmp	r3, r1
 800047c:	d914      	bls.n	80004a8 <__udivmoddi4+0x2b0>
 800047e:	3e02      	subs	r6, #2
 8000480:	4461      	add	r1, ip
 8000482:	1ac9      	subs	r1, r1, r3
 8000484:	ea46 4600 	orr.w	r6, r6, r0, lsl #16
 8000488:	e738      	b.n	80002fc <__udivmoddi4+0x104>
 800048a:	462e      	mov	r6, r5
 800048c:	4628      	mov	r0, r5
 800048e:	e705      	b.n	800029c <__udivmoddi4+0xa4>
 8000490:	4606      	mov	r6, r0
 8000492:	e6e3      	b.n	800025c <__udivmoddi4+0x64>
 8000494:	4618      	mov	r0, r3
 8000496:	e6f8      	b.n	800028a <__udivmoddi4+0x92>
 8000498:	454b      	cmp	r3, r9
 800049a:	d2a9      	bcs.n	80003f0 <__udivmoddi4+0x1f8>
 800049c:	ebb9 0802 	subs.w	r8, r9, r2
 80004a0:	eb64 0e0c 	sbc.w	lr, r4, ip
 80004a4:	3801      	subs	r0, #1
 80004a6:	e7a3      	b.n	80003f0 <__udivmoddi4+0x1f8>
 80004a8:	4646      	mov	r6, r8
 80004aa:	e7ea      	b.n	8000482 <__udivmoddi4+0x28a>
 80004ac:	4620      	mov	r0, r4
 80004ae:	e794      	b.n	80003da <__udivmoddi4+0x1e2>
 80004b0:	4640      	mov	r0, r8
 80004b2:	e7d1      	b.n	8000458 <__udivmoddi4+0x260>
 80004b4:	46d0      	mov	r8, sl
 80004b6:	e77b      	b.n	80003b0 <__udivmoddi4+0x1b8>
 80004b8:	3b02      	subs	r3, #2
 80004ba:	4461      	add	r1, ip
 80004bc:	e732      	b.n	8000324 <__udivmoddi4+0x12c>
 80004be:	4630      	mov	r0, r6
 80004c0:	e709      	b.n	80002d6 <__udivmoddi4+0xde>
 80004c2:	4464      	add	r4, ip
 80004c4:	3802      	subs	r0, #2
 80004c6:	e742      	b.n	800034e <__udivmoddi4+0x156>

080004c8 <__aeabi_idiv0>:
 80004c8:	4770      	bx	lr
 80004ca:	bf00      	nop

080004cc <main>:
/**
  * @brief  The application entry point.
  * @retval int
  */
int main(void)
{
 80004cc:	b580      	push	{r7, lr}
 80004ce:	af00      	add	r7, sp, #0
  /* USER CODE END 1 */

  /* MCU Configuration--------------------------------------------------------*/

  /* Reset of all peripherals, Initializes the Flash interface and the Systick. */
  HAL_Init();
 80004d0:	f000 fa78 	bl	80009c4 <HAL_Init>
  /* USER CODE BEGIN Init */

  /* USER CODE END Init */

  /* Configure the system clock */
  SystemClock_Config();
 80004d4:	f000 f804 	bl	80004e0 <SystemClock_Config>
  /* USER CODE BEGIN SysInit */

  /* USER CODE END SysInit */

  /* Initialize all configured peripherals */
  MX_GPIO_Init();
 80004d8:	f000 f85e 	bl	8000598 <MX_GPIO_Init>

  /* USER CODE END 2 */

  /* Infinite loop */
  /* USER CODE BEGIN WHILE */
  while (1)
 80004dc:	e7fe      	b.n	80004dc <main+0x10>
	...

080004e0 <SystemClock_Config>:
/**
  * @brief System Clock Configuration
  * @retval None
  */
void SystemClock_Config(void)
{
 80004e0:	b580      	push	{r7, lr}
 80004e2:	b094      	sub	sp, #80	; 0x50
 80004e4:	af00      	add	r7, sp, #0
  RCC_OscInitTypeDef RCC_OscInitStruct = {0};
 80004e6:	f107 0320 	add.w	r3, r7, #32
 80004ea:	2230      	movs	r2, #48	; 0x30
 80004ec:	2100      	movs	r1, #0
 80004ee:	4618      	mov	r0, r3
 80004f0:	f001 fa1a 	bl	8001928 <memset>
  RCC_ClkInitTypeDef RCC_ClkInitStruct = {0};
 80004f4:	f107 030c 	add.w	r3, r7, #12
 80004f8:	2200      	movs	r2, #0
 80004fa:	601a      	str	r2, [r3, #0]
 80004fc:	605a      	str	r2, [r3, #4]
 80004fe:	609a      	str	r2, [r3, #8]
 8000500:	60da      	str	r2, [r3, #12]
 8000502:	611a      	str	r2, [r3, #16]

  /** Configure the main internal regulator output voltage
  */
  __HAL_RCC_PWR_CLK_ENABLE();
 8000504:	2300      	movs	r3, #0
 8000506:	60bb      	str	r3, [r7, #8]
 8000508:	4b21      	ldr	r3, [pc, #132]	; (8000590 <SystemClock_Config+0xb0>)
 800050a:	6c1b      	ldr	r3, [r3, #64]	; 0x40
 800050c:	4a20      	ldr	r2, [pc, #128]	; (8000590 <SystemClock_Config+0xb0>)
 800050e:	f043 5380 	orr.w	r3, r3, #268435456	; 0x10000000
 8000512:	6413      	str	r3, [r2, #64]	; 0x40
 8000514:	4b1e      	ldr	r3, [pc, #120]	; (8000590 <SystemClock_Config+0xb0>)
 8000516:	6c1b      	ldr	r3, [r3, #64]	; 0x40
 8000518:	f003 5380 	and.w	r3, r3, #268435456	; 0x10000000
 800051c:	60bb      	str	r3, [r7, #8]
 800051e:	68bb      	ldr	r3, [r7, #8]
  __HAL_PWR_VOLTAGESCALING_CONFIG(PWR_REGULATOR_VOLTAGE_SCALE1);
 8000520:	2300      	movs	r3, #0
 8000522:	607b      	str	r3, [r7, #4]
 8000524:	4b1b      	ldr	r3, [pc, #108]	; (8000594 <SystemClock_Config+0xb4>)
 8000526:	681b      	ldr	r3, [r3, #0]
 8000528:	4a1a      	ldr	r2, [pc, #104]	; (8000594 <SystemClock_Config+0xb4>)
 800052a:	f443 4380 	orr.w	r3, r3, #16384	; 0x4000
 800052e:	6013      	str	r3, [r2, #0]
 8000530:	4b18      	ldr	r3, [pc, #96]	; (8000594 <SystemClock_Config+0xb4>)
 8000532:	681b      	ldr	r3, [r3, #0]
 8000534:	f403 4380 	and.w	r3, r3, #16384	; 0x4000
 8000538:	607b      	str	r3, [r7, #4]
 800053a:	687b      	ldr	r3, [r7, #4]

  /** Initializes the RCC Oscillators according to the specified parameters
  * in the RCC_OscInitTypeDef structure.
  */
  RCC_OscInitStruct.OscillatorType = RCC_OSCILLATORTYPE_HSE;
 800053c:	2301      	movs	r3, #1
 800053e:	623b      	str	r3, [r7, #32]
  RCC_OscInitStruct.HSEState = RCC_HSE_ON;
 8000540:	f44f 3380 	mov.w	r3, #65536	; 0x10000
 8000544:	627b      	str	r3, [r7, #36]	; 0x24
  RCC_OscInitStruct.PLL.PLLState = RCC_PLL_NONE;
 8000546:	2300      	movs	r3, #0
 8000548:	63bb      	str	r3, [r7, #56]	; 0x38
  if (HAL_RCC_OscConfig(&RCC_OscInitStruct) != HAL_OK)
 800054a:	f107 0320 	add.w	r3, r7, #32
 800054e:	4618      	mov	r0, r3
 8000550:	f000 fda2 	bl	8001098 <HAL_RCC_OscConfig>
 8000554:	4603      	mov	r3, r0
 8000556:	2b00      	cmp	r3, #0
 8000558:	d001      	beq.n	800055e <SystemClock_Config+0x7e>
  {
    Error_Handler();
 800055a:	f000 f997 	bl	800088c <Error_Handler>
  }

  /** Initializes the CPU, AHB and APB buses clocks
  */
  RCC_ClkInitStruct.ClockType = RCC_CLOCKTYPE_HCLK|RCC_CLOCKTYPE_SYSCLK
 800055e:	230f      	movs	r3, #15
 8000560:	60fb      	str	r3, [r7, #12]
                              |RCC_CLOCKTYPE_PCLK1|RCC_CLOCKTYPE_PCLK2;
  RCC_ClkInitStruct.SYSCLKSource = RCC_SYSCLKSOURCE_HSE;
 8000562:	2301      	movs	r3, #1
 8000564:	613b      	str	r3, [r7, #16]
  RCC_ClkInitStruct.AHBCLKDivider = RCC_SYSCLK_DIV1;
 8000566:	2300      	movs	r3, #0
 8000568:	617b      	str	r3, [r7, #20]
  RCC_ClkInitStruct.APB1CLKDivider = RCC_HCLK_DIV1;
 800056a:	2300      	movs	r3, #0
 800056c:	61bb      	str	r3, [r7, #24]
  RCC_ClkInitStruct.APB2CLKDivider = RCC_HCLK_DIV1;
 800056e:	2300      	movs	r3, #0
 8000570:	61fb      	str	r3, [r7, #28]

  if (HAL_RCC_ClockConfig(&RCC_ClkInitStruct, FLASH_LATENCY_0) != HAL_OK)
 8000572:	f107 030c 	add.w	r3, r7, #12
 8000576:	2100      	movs	r1, #0
 8000578:	4618      	mov	r0, r3
 800057a:	f001 f805 	bl	8001588 <HAL_RCC_ClockConfig>
 800057e:	4603      	mov	r3, r0
 8000580:	2b00      	cmp	r3, #0
 8000582:	d001      	beq.n	8000588 <SystemClock_Config+0xa8>
  {
    Error_Handler();
 8000584:	f000 f982 	bl	800088c <Error_Handler>
  }
}
 8000588:	bf00      	nop
 800058a:	3750      	adds	r7, #80	; 0x50
 800058c:	46bd      	mov	sp, r7
 800058e:	bd80      	pop	{r7, pc}
 8000590:	40023800 	.word	0x40023800
 8000594:	40007000 	.word	0x40007000

08000598 <MX_GPIO_Init>:
  * @brief GPIO Initialization Function
  * @param None
  * @retval None
  */
static void MX_GPIO_Init(void)
{
 8000598:	b580      	push	{r7, lr}
 800059a:	b08a      	sub	sp, #40	; 0x28
 800059c:	af00      	add	r7, sp, #0
  GPIO_InitTypeDef GPIO_InitStruct = {0};
 800059e:	f107 0314 	add.w	r3, r7, #20
 80005a2:	2200      	movs	r2, #0
 80005a4:	601a      	str	r2, [r3, #0]
 80005a6:	605a      	str	r2, [r3, #4]
 80005a8:	609a      	str	r2, [r3, #8]
 80005aa:	60da      	str	r2, [r3, #12]
 80005ac:	611a      	str	r2, [r3, #16]

  /* GPIO Ports Clock Enable */
  __HAL_RCC_GPIOC_CLK_ENABLE();
 80005ae:	2300      	movs	r3, #0
 80005b0:	613b      	str	r3, [r7, #16]
 80005b2:	4b32      	ldr	r3, [pc, #200]	; (800067c <MX_GPIO_Init+0xe4>)
 80005b4:	6b1b      	ldr	r3, [r3, #48]	; 0x30
 80005b6:	4a31      	ldr	r2, [pc, #196]	; (800067c <MX_GPIO_Init+0xe4>)
 80005b8:	f043 0304 	orr.w	r3, r3, #4
 80005bc:	6313      	str	r3, [r2, #48]	; 0x30
 80005be:	4b2f      	ldr	r3, [pc, #188]	; (800067c <MX_GPIO_Init+0xe4>)
 80005c0:	6b1b      	ldr	r3, [r3, #48]	; 0x30
 80005c2:	f003 0304 	and.w	r3, r3, #4
 80005c6:	613b      	str	r3, [r7, #16]
 80005c8:	693b      	ldr	r3, [r7, #16]
  __HAL_RCC_GPIOH_CLK_ENABLE();
 80005ca:	2300      	movs	r3, #0
 80005cc:	60fb      	str	r3, [r7, #12]
 80005ce:	4b2b      	ldr	r3, [pc, #172]	; (800067c <MX_GPIO_Init+0xe4>)
 80005d0:	6b1b      	ldr	r3, [r3, #48]	; 0x30
 80005d2:	4a2a      	ldr	r2, [pc, #168]	; (800067c <MX_GPIO_Init+0xe4>)
 80005d4:	f043 0380 	orr.w	r3, r3, #128	; 0x80
 80005d8:	6313      	str	r3, [r2, #48]	; 0x30
 80005da:	4b28      	ldr	r3, [pc, #160]	; (800067c <MX_GPIO_Init+0xe4>)
 80005dc:	6b1b      	ldr	r3, [r3, #48]	; 0x30
 80005de:	f003 0380 	and.w	r3, r3, #128	; 0x80
 80005e2:	60fb      	str	r3, [r7, #12]
 80005e4:	68fb      	ldr	r3, [r7, #12]
  __HAL_RCC_GPIOA_CLK_ENABLE();
 80005e6:	2300      	movs	r3, #0
 80005e8:	60bb      	str	r3, [r7, #8]
 80005ea:	4b24      	ldr	r3, [pc, #144]	; (800067c <MX_GPIO_Init+0xe4>)
 80005ec:	6b1b      	ldr	r3, [r3, #48]	; 0x30
 80005ee:	4a23      	ldr	r2, [pc, #140]	; (800067c <MX_GPIO_Init+0xe4>)
 80005f0:	f043 0301 	orr.w	r3, r3, #1
 80005f4:	6313      	str	r3, [r2, #48]	; 0x30
 80005f6:	4b21      	ldr	r3, [pc, #132]	; (800067c <MX_GPIO_Init+0xe4>)
 80005f8:	6b1b      	ldr	r3, [r3, #48]	; 0x30
 80005fa:	f003 0301 	and.w	r3, r3, #1
 80005fe:	60bb      	str	r3, [r7, #8]
 8000600:	68bb      	ldr	r3, [r7, #8]
  __HAL_RCC_GPIOD_CLK_ENABLE();
 8000602:	2300      	movs	r3, #0
 8000604:	607b      	str	r3, [r7, #4]
 8000606:	4b1d      	ldr	r3, [pc, #116]	; (800067c <MX_GPIO_Init+0xe4>)
 8000608:	6b1b      	ldr	r3, [r3, #48]	; 0x30
 800060a:	4a1c      	ldr	r2, [pc, #112]	; (800067c <MX_GPIO_Init+0xe4>)
 800060c:	f043 0308 	orr.w	r3, r3, #8
 8000610:	6313      	str	r3, [r2, #48]	; 0x30
 8000612:	4b1a      	ldr	r3, [pc, #104]	; (800067c <MX_GPIO_Init+0xe4>)
 8000614:	6b1b      	ldr	r3, [r3, #48]	; 0x30
 8000616:	f003 0308 	and.w	r3, r3, #8
 800061a:	607b      	str	r3, [r7, #4]
 800061c:	687b      	ldr	r3, [r7, #4]

  /*Configure GPIO pin Output Level */
  HAL_GPIO_WritePin(GPIOD, GPIO_PIN_12|GPIO_PIN_13|GPIO_PIN_14, GPIO_PIN_RESET);
 800061e:	2200      	movs	r2, #0
 8000620:	f44f 41e0 	mov.w	r1, #28672	; 0x7000
 8000624:	4816      	ldr	r0, [pc, #88]	; (8000680 <MX_GPIO_Init+0xe8>)
 8000626:	f000 fd05 	bl	8001034 <HAL_GPIO_WritePin>

  /*Configure GPIO pin : PA0 */
  GPIO_InitStruct.Pin = GPIO_PIN_0;
 800062a:	2301      	movs	r3, #1
 800062c:	617b      	str	r3, [r7, #20]
  GPIO_InitStruct.Mode = GPIO_MODE_IT_RISING;
 800062e:	f44f 1388 	mov.w	r3, #1114112	; 0x110000
 8000632:	61bb      	str	r3, [r7, #24]
  GPIO_InitStruct.Pull = GPIO_NOPULL;
 8000634:	2300      	movs	r3, #0
 8000636:	61fb      	str	r3, [r7, #28]
  HAL_GPIO_Init(GPIOA, &GPIO_InitStruct);
 8000638:	f107 0314 	add.w	r3, r7, #20
 800063c:	4619      	mov	r1, r3
 800063e:	4811      	ldr	r0, [pc, #68]	; (8000684 <MX_GPIO_Init+0xec>)
 8000640:	f000 fb44 	bl	8000ccc <HAL_GPIO_Init>

  /*Configure GPIO pins : PD12 PD13 PD14 */
  GPIO_InitStruct.Pin = GPIO_PIN_12|GPIO_PIN_13|GPIO_PIN_14;
 8000644:	f44f 43e0 	mov.w	r3, #28672	; 0x7000
 8000648:	617b      	str	r3, [r7, #20]
  GPIO_InitStruct.Mode = GPIO_MODE_OUTPUT_PP;
 800064a:	2301      	movs	r3, #1
 800064c:	61bb      	str	r3, [r7, #24]
  GPIO_InitStruct.Pull = GPIO_NOPULL;
 800064e:	2300      	movs	r3, #0
 8000650:	61fb      	str	r3, [r7, #28]
  GPIO_InitStruct.Speed = GPIO_SPEED_FREQ_LOW;
 8000652:	2300      	movs	r3, #0
 8000654:	623b      	str	r3, [r7, #32]
  HAL_GPIO_Init(GPIOD, &GPIO_InitStruct);
 8000656:	f107 0314 	add.w	r3, r7, #20
 800065a:	4619      	mov	r1, r3
 800065c:	4808      	ldr	r0, [pc, #32]	; (8000680 <MX_GPIO_Init+0xe8>)
 800065e:	f000 fb35 	bl	8000ccc <HAL_GPIO_Init>

  /* EXTI interrupt init*/
  HAL_NVIC_SetPriority(EXTI0_IRQn, 0, 0);
 8000662:	2200      	movs	r2, #0
 8000664:	2100      	movs	r1, #0
 8000666:	2006      	movs	r0, #6
 8000668:	f000 faf9 	bl	8000c5e <HAL_NVIC_SetPriority>
  HAL_NVIC_EnableIRQ(EXTI0_IRQn);
 800066c:	2006      	movs	r0, #6
 800066e:	f000 fb12 	bl	8000c96 <HAL_NVIC_EnableIRQ>

}
 8000672:	bf00      	nop
 8000674:	3728      	adds	r7, #40	; 0x28
 8000676:	46bd      	mov	sp, r7
 8000678:	bd80      	pop	{r7, pc}
 800067a:	bf00      	nop
 800067c:	40023800 	.word	0x40023800
 8000680:	40020c00 	.word	0x40020c00
 8000684:	40020000 	.word	0x40020000

08000688 <HAL_GPIO_EXTI_Callback>:
int status = STATUS_4;
uint16_t curr_time = 0;
uint16_t pre_time = 0;

void HAL_GPIO_EXTI_Callback(uint16_t GPIO_Pin)
{
 8000688:	b580      	push	{r7, lr}
 800068a:	b082      	sub	sp, #8
 800068c:	af00      	add	r7, sp, #0
 800068e:	4603      	mov	r3, r0
 8000690:	80fb      	strh	r3, [r7, #6]
	curr_time = HAL_GetTick();
 8000692:	f000 f9fd 	bl	8000a90 <HAL_GetTick>
 8000696:	4603      	mov	r3, r0
 8000698:	b29a      	uxth	r2, r3
 800069a:	4b77      	ldr	r3, [pc, #476]	; (8000878 <HAL_GPIO_EXTI_Callback+0x1f0>)
 800069c:	801a      	strh	r2, [r3, #0]
	if((curr_time - pre_time) < 50)
 800069e:	4b76      	ldr	r3, [pc, #472]	; (8000878 <HAL_GPIO_EXTI_Callback+0x1f0>)
 80006a0:	881b      	ldrh	r3, [r3, #0]
 80006a2:	461a      	mov	r2, r3
 80006a4:	4b75      	ldr	r3, [pc, #468]	; (800087c <HAL_GPIO_EXTI_Callback+0x1f4>)
 80006a6:	881b      	ldrh	r3, [r3, #0]
 80006a8:	1ad3      	subs	r3, r2, r3
 80006aa:	2b31      	cmp	r3, #49	; 0x31
 80006ac:	f340 80e0 	ble.w	8000870 <HAL_GPIO_EXTI_Callback+0x1e8>
		return;
	while (HAL_GPIO_ReadPin(GPIOA, GPIO_PIN_0) == 1)
 80006b0:	e03f      	b.n	8000732 <HAL_GPIO_EXTI_Callback+0xaa>
	{
		curr_time = HAL_GetTick();
 80006b2:	f000 f9ed 	bl	8000a90 <HAL_GetTick>
 80006b6:	4603      	mov	r3, r0
 80006b8:	b29a      	uxth	r2, r3
 80006ba:	4b6f      	ldr	r3, [pc, #444]	; (8000878 <HAL_GPIO_EXTI_Callback+0x1f0>)
 80006bc:	801a      	strh	r2, [r3, #0]
		if((curr_time - pre_time) > 3000)
 80006be:	4b6e      	ldr	r3, [pc, #440]	; (8000878 <HAL_GPIO_EXTI_Callback+0x1f0>)
 80006c0:	881b      	ldrh	r3, [r3, #0]
 80006c2:	461a      	mov	r2, r3
 80006c4:	4b6d      	ldr	r3, [pc, #436]	; (800087c <HAL_GPIO_EXTI_Callback+0x1f4>)
 80006c6:	881b      	ldrh	r3, [r3, #0]
 80006c8:	1ad3      	subs	r3, r2, r3
 80006ca:	f640 32b8 	movw	r2, #3000	; 0xbb8
 80006ce:	4293      	cmp	r3, r2
 80006d0:	dd2f      	ble.n	8000732 <HAL_GPIO_EXTI_Callback+0xaa>
		{
			if(status == STATUS_4)
 80006d2:	4b6b      	ldr	r3, [pc, #428]	; (8000880 <HAL_GPIO_EXTI_Callback+0x1f8>)
 80006d4:	681b      	ldr	r3, [r3, #0]
 80006d6:	2b11      	cmp	r3, #17
 80006d8:	d115      	bne.n	8000706 <HAL_GPIO_EXTI_Callback+0x7e>
			{
				HAL_GPIO_WritePin(GPIOD, GPIO_PIN_12, GPIO_PIN_SET);
 80006da:	2201      	movs	r2, #1
 80006dc:	f44f 5180 	mov.w	r1, #4096	; 0x1000
 80006e0:	4868      	ldr	r0, [pc, #416]	; (8000884 <HAL_GPIO_EXTI_Callback+0x1fc>)
 80006e2:	f000 fca7 	bl	8001034 <HAL_GPIO_WritePin>
				HAL_GPIO_WritePin(GPIOD, GPIO_PIN_13, GPIO_PIN_RESET);
 80006e6:	2200      	movs	r2, #0
 80006e8:	f44f 5100 	mov.w	r1, #8192	; 0x2000
 80006ec:	4865      	ldr	r0, [pc, #404]	; (8000884 <HAL_GPIO_EXTI_Callback+0x1fc>)
 80006ee:	f000 fca1 	bl	8001034 <HAL_GPIO_WritePin>
				HAL_GPIO_WritePin(GPIOD, GPIO_PIN_14, GPIO_PIN_RESET);
 80006f2:	2200      	movs	r2, #0
 80006f4:	f44f 4180 	mov.w	r1, #16384	; 0x4000
 80006f8:	4862      	ldr	r0, [pc, #392]	; (8000884 <HAL_GPIO_EXTI_Callback+0x1fc>)
 80006fa:	f000 fc9b 	bl	8001034 <HAL_GPIO_WritePin>
				status = STATUS_1;
 80006fe:	4b60      	ldr	r3, [pc, #384]	; (8000880 <HAL_GPIO_EXTI_Callback+0x1f8>)
 8000700:	2200      	movs	r2, #0
 8000702:	601a      	str	r2, [r3, #0]
				break;
 8000704:	e01c      	b.n	8000740 <HAL_GPIO_EXTI_Callback+0xb8>
			}
			else
			{
				HAL_GPIO_WritePin(GPIOD, GPIO_PIN_12, GPIO_PIN_RESET);
 8000706:	2200      	movs	r2, #0
 8000708:	f44f 5180 	mov.w	r1, #4096	; 0x1000
 800070c:	485d      	ldr	r0, [pc, #372]	; (8000884 <HAL_GPIO_EXTI_Callback+0x1fc>)
 800070e:	f000 fc91 	bl	8001034 <HAL_GPIO_WritePin>
				HAL_GPIO_WritePin(GPIOD, GPIO_PIN_13, GPIO_PIN_RESET);
 8000712:	2200      	movs	r2, #0
 8000714:	f44f 5100 	mov.w	r1, #8192	; 0x2000
 8000718:	485a      	ldr	r0, [pc, #360]	; (8000884 <HAL_GPIO_EXTI_Callback+0x1fc>)
 800071a:	f000 fc8b 	bl	8001034 <HAL_GPIO_WritePin>
				HAL_GPIO_WritePin(GPIOD, GPIO_PIN_14, GPIO_PIN_RESET);
 800071e:	2200      	movs	r2, #0
 8000720:	f44f 4180 	mov.w	r1, #16384	; 0x4000
 8000724:	4857      	ldr	r0, [pc, #348]	; (8000884 <HAL_GPIO_EXTI_Callback+0x1fc>)
 8000726:	f000 fc85 	bl	8001034 <HAL_GPIO_WritePin>
				status = STATUS_4;
 800072a:	4b55      	ldr	r3, [pc, #340]	; (8000880 <HAL_GPIO_EXTI_Callback+0x1f8>)
 800072c:	2211      	movs	r2, #17
 800072e:	601a      	str	r2, [r3, #0]
				break;
 8000730:	e006      	b.n	8000740 <HAL_GPIO_EXTI_Callback+0xb8>
	while (HAL_GPIO_ReadPin(GPIOA, GPIO_PIN_0) == 1)
 8000732:	2101      	movs	r1, #1
 8000734:	4854      	ldr	r0, [pc, #336]	; (8000888 <HAL_GPIO_EXTI_Callback+0x200>)
 8000736:	f000 fc65 	bl	8001004 <HAL_GPIO_ReadPin>
 800073a:	4603      	mov	r3, r0
 800073c:	2b01      	cmp	r3, #1
 800073e:	d0b8      	beq.n	80006b2 <HAL_GPIO_EXTI_Callback+0x2a>
			}
		}
	}
	if((curr_time - pre_time) < 3000)
 8000740:	4b4d      	ldr	r3, [pc, #308]	; (8000878 <HAL_GPIO_EXTI_Callback+0x1f0>)
 8000742:	881b      	ldrh	r3, [r3, #0]
 8000744:	461a      	mov	r2, r3
 8000746:	4b4d      	ldr	r3, [pc, #308]	; (800087c <HAL_GPIO_EXTI_Callback+0x1f4>)
 8000748:	881b      	ldrh	r3, [r3, #0]
 800074a:	1ad3      	subs	r3, r2, r3
 800074c:	f640 32b7 	movw	r2, #2999	; 0xbb7
 8000750:	4293      	cmp	r3, r2
 8000752:	f300 8085 	bgt.w	8000860 <HAL_GPIO_EXTI_Callback+0x1d8>
	{
		switch (status)
 8000756:	4b4a      	ldr	r3, [pc, #296]	; (8000880 <HAL_GPIO_EXTI_Callback+0x1f8>)
 8000758:	681b      	ldr	r3, [r3, #0]
 800075a:	2b11      	cmp	r3, #17
 800075c:	f200 8082 	bhi.w	8000864 <HAL_GPIO_EXTI_Callback+0x1dc>
 8000760:	a201      	add	r2, pc, #4	; (adr r2, 8000768 <HAL_GPIO_EXTI_Callback+0xe0>)
 8000762:	f852 f023 	ldr.w	pc, [r2, r3, lsl #2]
 8000766:	bf00      	nop
 8000768:	080007b1 	.word	0x080007b1
 800076c:	080007dd 	.word	0x080007dd
 8000770:	08000865 	.word	0x08000865
 8000774:	08000865 	.word	0x08000865
 8000778:	08000865 	.word	0x08000865
 800077c:	08000865 	.word	0x08000865
 8000780:	08000865 	.word	0x08000865
 8000784:	08000865 	.word	0x08000865
 8000788:	08000865 	.word	0x08000865
 800078c:	08000865 	.word	0x08000865
 8000790:	08000865 	.word	0x08000865
 8000794:	08000865 	.word	0x08000865
 8000798:	08000865 	.word	0x08000865
 800079c:	08000865 	.word	0x08000865
 80007a0:	08000865 	.word	0x08000865
 80007a4:	08000865 	.word	0x08000865
 80007a8:	08000809 	.word	0x08000809
 80007ac:	08000835 	.word	0x08000835
			{
			case STATUS_1:
			{
				HAL_GPIO_WritePin(GPIOD, GPIO_PIN_12, GPIO_PIN_RESET);
 80007b0:	2200      	movs	r2, #0
 80007b2:	f44f 5180 	mov.w	r1, #4096	; 0x1000
 80007b6:	4833      	ldr	r0, [pc, #204]	; (8000884 <HAL_GPIO_EXTI_Callback+0x1fc>)
 80007b8:	f000 fc3c 	bl	8001034 <HAL_GPIO_WritePin>
				HAL_GPIO_WritePin(GPIOD, GPIO_PIN_13, GPIO_PIN_SET);
 80007bc:	2201      	movs	r2, #1
 80007be:	f44f 5100 	mov.w	r1, #8192	; 0x2000
 80007c2:	4830      	ldr	r0, [pc, #192]	; (8000884 <HAL_GPIO_EXTI_Callback+0x1fc>)
 80007c4:	f000 fc36 	bl	8001034 <HAL_GPIO_WritePin>
				HAL_GPIO_WritePin(GPIOD, GPIO_PIN_14, GPIO_PIN_RESET);
 80007c8:	2200      	movs	r2, #0
 80007ca:	f44f 4180 	mov.w	r1, #16384	; 0x4000
 80007ce:	482d      	ldr	r0, [pc, #180]	; (8000884 <HAL_GPIO_EXTI_Callback+0x1fc>)
 80007d0:	f000 fc30 	bl	8001034 <HAL_GPIO_WritePin>
				status = STATUS_2;
 80007d4:	4b2a      	ldr	r3, [pc, #168]	; (8000880 <HAL_GPIO_EXTI_Callback+0x1f8>)
 80007d6:	2201      	movs	r2, #1
 80007d8:	601a      	str	r2, [r3, #0]
				break;
 80007da:	e044      	b.n	8000866 <HAL_GPIO_EXTI_Callback+0x1de>
			}
			case STATUS_2:
			{
				HAL_GPIO_WritePin(GPIOD, GPIO_PIN_12, GPIO_PIN_RESET);
 80007dc:	2200      	movs	r2, #0
 80007de:	f44f 5180 	mov.w	r1, #4096	; 0x1000
 80007e2:	4828      	ldr	r0, [pc, #160]	; (8000884 <HAL_GPIO_EXTI_Callback+0x1fc>)
 80007e4:	f000 fc26 	bl	8001034 <HAL_GPIO_WritePin>
				HAL_GPIO_WritePin(GPIOD, GPIO_PIN_13, GPIO_PIN_RESET);
 80007e8:	2200      	movs	r2, #0
 80007ea:	f44f 5100 	mov.w	r1, #8192	; 0x2000
 80007ee:	4825      	ldr	r0, [pc, #148]	; (8000884 <HAL_GPIO_EXTI_Callback+0x1fc>)
 80007f0:	f000 fc20 	bl	8001034 <HAL_GPIO_WritePin>
				HAL_GPIO_WritePin(GPIOD, GPIO_PIN_14, GPIO_PIN_SET);
 80007f4:	2201      	movs	r2, #1
 80007f6:	f44f 4180 	mov.w	r1, #16384	; 0x4000
 80007fa:	4822      	ldr	r0, [pc, #136]	; (8000884 <HAL_GPIO_EXTI_Callback+0x1fc>)
 80007fc:	f000 fc1a 	bl	8001034 <HAL_GPIO_WritePin>
				status = STATUS_3;
 8000800:	4b1f      	ldr	r3, [pc, #124]	; (8000880 <HAL_GPIO_EXTI_Callback+0x1f8>)
 8000802:	2210      	movs	r2, #16
 8000804:	601a      	str	r2, [r3, #0]
				break;
 8000806:	e02e      	b.n	8000866 <HAL_GPIO_EXTI_Callback+0x1de>
			}
			case STATUS_3:
			{
				HAL_GPIO_WritePin(GPIOD, GPIO_PIN_12, GPIO_PIN_SET);
 8000808:	2201      	movs	r2, #1
 800080a:	f44f 5180 	mov.w	r1, #4096	; 0x1000
 800080e:	481d      	ldr	r0, [pc, #116]	; (8000884 <HAL_GPIO_EXTI_Callback+0x1fc>)
 8000810:	f000 fc10 	bl	8001034 <HAL_GPIO_WritePin>
				HAL_GPIO_WritePin(GPIOD, GPIO_PIN_13, GPIO_PIN_RESET);
 8000814:	2200      	movs	r2, #0
 8000816:	f44f 5100 	mov.w	r1, #8192	; 0x2000
 800081a:	481a      	ldr	r0, [pc, #104]	; (8000884 <HAL_GPIO_EXTI_Callback+0x1fc>)
 800081c:	f000 fc0a 	bl	8001034 <HAL_GPIO_WritePin>
				HAL_GPIO_WritePin(GPIOD, GPIO_PIN_14, GPIO_PIN_RESET);
 8000820:	2200      	movs	r2, #0
 8000822:	f44f 4180 	mov.w	r1, #16384	; 0x4000
 8000826:	4817      	ldr	r0, [pc, #92]	; (8000884 <HAL_GPIO_EXTI_Callback+0x1fc>)
 8000828:	f000 fc04 	bl	8001034 <HAL_GPIO_WritePin>
				status = STATUS_1;
 800082c:	4b14      	ldr	r3, [pc, #80]	; (8000880 <HAL_GPIO_EXTI_Callback+0x1f8>)
 800082e:	2200      	movs	r2, #0
 8000830:	601a      	str	r2, [r3, #0]
				break;
 8000832:	e018      	b.n	8000866 <HAL_GPIO_EXTI_Callback+0x1de>
			}
			case STATUS_4:
			{
				HAL_GPIO_WritePin(GPIOD, GPIO_PIN_12, GPIO_PIN_RESET);
 8000834:	2200      	movs	r2, #0
 8000836:	f44f 5180 	mov.w	r1, #4096	; 0x1000
 800083a:	4812      	ldr	r0, [pc, #72]	; (8000884 <HAL_GPIO_EXTI_Callback+0x1fc>)
 800083c:	f000 fbfa 	bl	8001034 <HAL_GPIO_WritePin>
				HAL_GPIO_WritePin(GPIOD, GPIO_PIN_13, GPIO_PIN_RESET);
 8000840:	2200      	movs	r2, #0
 8000842:	f44f 5100 	mov.w	r1, #8192	; 0x2000
 8000846:	480f      	ldr	r0, [pc, #60]	; (8000884 <HAL_GPIO_EXTI_Callback+0x1fc>)
 8000848:	f000 fbf4 	bl	8001034 <HAL_GPIO_WritePin>
				HAL_GPIO_WritePin(GPIOD, GPIO_PIN_14, GPIO_PIN_RESET);
 800084c:	2200      	movs	r2, #0
 800084e:	f44f 4180 	mov.w	r1, #16384	; 0x4000
 8000852:	480c      	ldr	r0, [pc, #48]	; (8000884 <HAL_GPIO_EXTI_Callback+0x1fc>)
 8000854:	f000 fbee 	bl	8001034 <HAL_GPIO_WritePin>
				status = STATUS_4;
 8000858:	4b09      	ldr	r3, [pc, #36]	; (8000880 <HAL_GPIO_EXTI_Callback+0x1f8>)
 800085a:	2211      	movs	r2, #17
 800085c:	601a      	str	r2, [r3, #0]
				break;
 800085e:	e002      	b.n	8000866 <HAL_GPIO_EXTI_Callback+0x1de>
			}
			default: break;
			}
	}
 8000860:	bf00      	nop
 8000862:	e000      	b.n	8000866 <HAL_GPIO_EXTI_Callback+0x1de>
			default: break;
 8000864:	bf00      	nop
	pre_time = curr_time;
 8000866:	4b04      	ldr	r3, [pc, #16]	; (8000878 <HAL_GPIO_EXTI_Callback+0x1f0>)
 8000868:	881a      	ldrh	r2, [r3, #0]
 800086a:	4b04      	ldr	r3, [pc, #16]	; (800087c <HAL_GPIO_EXTI_Callback+0x1f4>)
 800086c:	801a      	strh	r2, [r3, #0]
 800086e:	e000      	b.n	8000872 <HAL_GPIO_EXTI_Callback+0x1ea>
		return;
 8000870:	bf00      	nop
}
 8000872:	3708      	adds	r7, #8
 8000874:	46bd      	mov	sp, r7
 8000876:	bd80      	pop	{r7, pc}
 8000878:	2000002c 	.word	0x2000002c
 800087c:	2000002e 	.word	0x2000002e
 8000880:	20000000 	.word	0x20000000
 8000884:	40020c00 	.word	0x40020c00
 8000888:	40020000 	.word	0x40020000

0800088c <Error_Handler>:
/**
  * @brief  This function is executed in case of error occurrence.
  * @retval None
  */
void Error_Handler(void)
{
 800088c:	b480      	push	{r7}
 800088e:	af00      	add	r7, sp, #0
  \details Disables IRQ interrupts by setting the I-bit in the CPSR.
           Can only be executed in Privileged modes.
 */
__STATIC_FORCEINLINE void __disable_irq(void)
{
  __ASM volatile ("cpsid i" : : : "memory");
 8000890:	b672      	cpsid	i
}
 8000892:	bf00      	nop
  /* USER CODE BEGIN Error_Handler_Debug */
  /* User can add his own implementation to report the HAL error return state */
  __disable_irq();
  while (1)
 8000894:	e7fe      	b.n	8000894 <Error_Handler+0x8>
	...

08000898 <HAL_MspInit>:
/* USER CODE END 0 */
/**
  * Initializes the Global MSP.
  */
void HAL_MspInit(void)
{
 8000898:	b480      	push	{r7}
 800089a:	b083      	sub	sp, #12
 800089c:	af00      	add	r7, sp, #0
  /* USER CODE BEGIN MspInit 0 */

  /* USER CODE END MspInit 0 */

  __HAL_RCC_SYSCFG_CLK_ENABLE();
 800089e:	2300      	movs	r3, #0
 80008a0:	607b      	str	r3, [r7, #4]
 80008a2:	4b10      	ldr	r3, [pc, #64]	; (80008e4 <HAL_MspInit+0x4c>)
 80008a4:	6c5b      	ldr	r3, [r3, #68]	; 0x44
 80008a6:	4a0f      	ldr	r2, [pc, #60]	; (80008e4 <HAL_MspInit+0x4c>)
 80008a8:	f443 4380 	orr.w	r3, r3, #16384	; 0x4000
 80008ac:	6453      	str	r3, [r2, #68]	; 0x44
 80008ae:	4b0d      	ldr	r3, [pc, #52]	; (80008e4 <HAL_MspInit+0x4c>)
 80008b0:	6c5b      	ldr	r3, [r3, #68]	; 0x44
 80008b2:	f403 4380 	and.w	r3, r3, #16384	; 0x4000
 80008b6:	607b      	str	r3, [r7, #4]
 80008b8:	687b      	ldr	r3, [r7, #4]
  __HAL_RCC_PWR_CLK_ENABLE();
 80008ba:	2300      	movs	r3, #0
 80008bc:	603b      	str	r3, [r7, #0]
 80008be:	4b09      	ldr	r3, [pc, #36]	; (80008e4 <HAL_MspInit+0x4c>)
 80008c0:	6c1b      	ldr	r3, [r3, #64]	; 0x40
 80008c2:	4a08      	ldr	r2, [pc, #32]	; (80008e4 <HAL_MspInit+0x4c>)
 80008c4:	f043 5380 	orr.w	r3, r3, #268435456	; 0x10000000
 80008c8:	6413      	str	r3, [r2, #64]	; 0x40
 80008ca:	4b06      	ldr	r3, [pc, #24]	; (80008e4 <HAL_MspInit+0x4c>)
 80008cc:	6c1b      	ldr	r3, [r3, #64]	; 0x40
 80008ce:	f003 5380 	and.w	r3, r3, #268435456	; 0x10000000
 80008d2:	603b      	str	r3, [r7, #0]
 80008d4:	683b      	ldr	r3, [r7, #0]
  /* System interrupt init*/

  /* USER CODE BEGIN MspInit 1 */

  /* USER CODE END MspInit 1 */
}
 80008d6:	bf00      	nop
 80008d8:	370c      	adds	r7, #12
 80008da:	46bd      	mov	sp, r7
 80008dc:	f85d 7b04 	ldr.w	r7, [sp], #4
 80008e0:	4770      	bx	lr
 80008e2:	bf00      	nop
 80008e4:	40023800 	.word	0x40023800

080008e8 <NMI_Handler>:
/******************************************************************************/
/**
  * @brief This function handles Non maskable interrupt.
  */
void NMI_Handler(void)
{
 80008e8:	b480      	push	{r7}
 80008ea:	af00      	add	r7, sp, #0
  /* USER CODE BEGIN NonMaskableInt_IRQn 0 */

  /* USER CODE END NonMaskableInt_IRQn 0 */
  /* USER CODE BEGIN NonMaskableInt_IRQn 1 */
  while (1)
 80008ec:	e7fe      	b.n	80008ec <NMI_Handler+0x4>

080008ee <HardFault_Handler>:

/**
  * @brief This function handles Hard fault interrupt.
  */
void HardFault_Handler(void)
{
 80008ee:	b480      	push	{r7}
 80008f0:	af00      	add	r7, sp, #0
  /* USER CODE BEGIN HardFault_IRQn 0 */

  /* USER CODE END HardFault_IRQn 0 */
  while (1)
 80008f2:	e7fe      	b.n	80008f2 <HardFault_Handler+0x4>

080008f4 <MemManage_Handler>:

/**
  * @brief This function handles Memory management fault.
  */
void MemManage_Handler(void)
{
 80008f4:	b480      	push	{r7}
 80008f6:	af00      	add	r7, sp, #0
  /* USER CODE BEGIN MemoryManagement_IRQn 0 */

  /* USER CODE END MemoryManagement_IRQn 0 */
  while (1)
 80008f8:	e7fe      	b.n	80008f8 <MemManage_Handler+0x4>

080008fa <BusFault_Handler>:

/**
  * @brief This function handles Pre-fetch fault, memory access fault.
  */
void BusFault_Handler(void)
{
 80008fa:	b480      	push	{r7}
 80008fc:	af00      	add	r7, sp, #0
  /* USER CODE BEGIN BusFault_IRQn 0 */

  /* USER CODE END BusFault_IRQn 0 */
  while (1)
 80008fe:	e7fe      	b.n	80008fe <BusFault_Handler+0x4>

08000900 <UsageFault_Handler>:

/**
  * @brief This function handles Undefined instruction or illegal state.
  */
void UsageFault_Handler(void)
{
 8000900:	b480      	push	{r7}
 8000902:	af00      	add	r7, sp, #0
  /* USER CODE BEGIN UsageFault_IRQn 0 */

  /* USER CODE END UsageFault_IRQn 0 */
  while (1)
 8000904:	e7fe      	b.n	8000904 <UsageFault_Handler+0x4>

08000906 <SVC_Handler>:

/**
  * @brief This function handles System service call via SWI instruction.
  */
void SVC_Handler(void)
{
 8000906:	b480      	push	{r7}
 8000908:	af00      	add	r7, sp, #0

  /* USER CODE END SVCall_IRQn 0 */
  /* USER CODE BEGIN SVCall_IRQn 1 */

  /* USER CODE END SVCall_IRQn 1 */
}
 800090a:	bf00      	nop
 800090c:	46bd      	mov	sp, r7
 800090e:	f85d 7b04 	ldr.w	r7, [sp], #4
 8000912:	4770      	bx	lr

08000914 <DebugMon_Handler>:

/**
  * @brief This function handles Debug monitor.
  */
void DebugMon_Handler(void)
{
 8000914:	b480      	push	{r7}
 8000916:	af00      	add	r7, sp, #0

  /* USER CODE END DebugMonitor_IRQn 0 */
  /* USER CODE BEGIN DebugMonitor_IRQn 1 */

  /* USER CODE END DebugMonitor_IRQn 1 */
}
 8000918:	bf00      	nop
 800091a:	46bd      	mov	sp, r7
 800091c:	f85d 7b04 	ldr.w	r7, [sp], #4
 8000920:	4770      	bx	lr

08000922 <PendSV_Handler>:

/**
  * @brief This function handles Pendable request for system service.
  */
void PendSV_Handler(void)
{
 8000922:	b480      	push	{r7}
 8000924:	af00      	add	r7, sp, #0

  /* USER CODE END PendSV_IRQn 0 */
  /* USER CODE BEGIN PendSV_IRQn 1 */

  /* USER CODE END PendSV_IRQn 1 */
}
 8000926:	bf00      	nop
 8000928:	46bd      	mov	sp, r7
 800092a:	f85d 7b04 	ldr.w	r7, [sp], #4
 800092e:	4770      	bx	lr

08000930 <SysTick_Handler>:

/**
  * @brief This function handles System tick timer.
  */
void SysTick_Handler(void)
{
 8000930:	b580      	push	{r7, lr}
 8000932:	af00      	add	r7, sp, #0
  /* USER CODE BEGIN SysTick_IRQn 0 */

  /* USER CODE END SysTick_IRQn 0 */
  HAL_IncTick();
 8000934:	f000 f898 	bl	8000a68 <HAL_IncTick>
  /* USER CODE BEGIN SysTick_IRQn 1 */

  /* USER CODE END SysTick_IRQn 1 */
}
 8000938:	bf00      	nop
 800093a:	bd80      	pop	{r7, pc}

0800093c <EXTI0_IRQHandler>:

/**
  * @brief This function handles EXTI line0 interrupt.
  */
void EXTI0_IRQHandler(void)
{
 800093c:	b580      	push	{r7, lr}
 800093e:	af00      	add	r7, sp, #0
  /* USER CODE BEGIN EXTI0_IRQn 0 */

  /* USER CODE END EXTI0_IRQn 0 */
  HAL_GPIO_EXTI_IRQHandler(GPIO_PIN_0);
 8000940:	2001      	movs	r0, #1
 8000942:	f000 fb91 	bl	8001068 <HAL_GPIO_EXTI_IRQHandler>
  /* USER CODE BEGIN EXTI0_IRQn 1 */

  /* USER CODE END EXTI0_IRQn 1 */
}
 8000946:	bf00      	nop
 8000948:	bd80      	pop	{r7, pc}
	...

0800094c <SystemInit>:
  *         configuration.
  * @param  None
  * @retval None
  */
void SystemInit(void)
{
 800094c:	b480      	push	{r7}
 800094e:	af00      	add	r7, sp, #0
  /* FPU settings ------------------------------------------------------------*/
  #if (__FPU_PRESENT == 1) && (__FPU_USED == 1)
    SCB->CPACR |= ((3UL << 10*2)|(3UL << 11*2));  /* set CP10 and CP11 Full Access */
 8000950:	4b06      	ldr	r3, [pc, #24]	; (800096c <SystemInit+0x20>)
 8000952:	f8d3 3088 	ldr.w	r3, [r3, #136]	; 0x88
 8000956:	4a05      	ldr	r2, [pc, #20]	; (800096c <SystemInit+0x20>)
 8000958:	f443 0370 	orr.w	r3, r3, #15728640	; 0xf00000
 800095c:	f8c2 3088 	str.w	r3, [r2, #136]	; 0x88

  /* Configure the Vector Table location -------------------------------------*/
#if defined(USER_VECT_TAB_ADDRESS)
  SCB->VTOR = VECT_TAB_BASE_ADDRESS | VECT_TAB_OFFSET; /* Vector Table Relocation in Internal SRAM */
#endif /* USER_VECT_TAB_ADDRESS */
}
 8000960:	bf00      	nop
 8000962:	46bd      	mov	sp, r7
 8000964:	f85d 7b04 	ldr.w	r7, [sp], #4
 8000968:	4770      	bx	lr
 800096a:	bf00      	nop
 800096c:	e000ed00 	.word	0xe000ed00

08000970 <Reset_Handler>:

    .section  .text.Reset_Handler
  .weak  Reset_Handler
  .type  Reset_Handler, %function
Reset_Handler:  
  ldr   sp, =_estack     /* set stack pointer */
 8000970:	f8df d034 	ldr.w	sp, [pc, #52]	; 80009a8 <LoopFillZerobss+0x12>

/* Copy the data segment initializers from flash to SRAM */  
  ldr r0, =_sdata
 8000974:	480d      	ldr	r0, [pc, #52]	; (80009ac <LoopFillZerobss+0x16>)
  ldr r1, =_edata
 8000976:	490e      	ldr	r1, [pc, #56]	; (80009b0 <LoopFillZerobss+0x1a>)
  ldr r2, =_sidata
 8000978:	4a0e      	ldr	r2, [pc, #56]	; (80009b4 <LoopFillZerobss+0x1e>)
  movs r3, #0
 800097a:	2300      	movs	r3, #0
  b LoopCopyDataInit
 800097c:	e002      	b.n	8000984 <LoopCopyDataInit>

0800097e <CopyDataInit>:

CopyDataInit:
  ldr r4, [r2, r3]
 800097e:	58d4      	ldr	r4, [r2, r3]
  str r4, [r0, r3]
 8000980:	50c4      	str	r4, [r0, r3]
  adds r3, r3, #4
 8000982:	3304      	adds	r3, #4

08000984 <LoopCopyDataInit>:

LoopCopyDataInit:
  adds r4, r0, r3
 8000984:	18c4      	adds	r4, r0, r3
  cmp r4, r1
 8000986:	428c      	cmp	r4, r1
  bcc CopyDataInit
 8000988:	d3f9      	bcc.n	800097e <CopyDataInit>
  
/* Zero fill the bss segment. */
  ldr r2, =_sbss
 800098a:	4a0b      	ldr	r2, [pc, #44]	; (80009b8 <LoopFillZerobss+0x22>)
  ldr r4, =_ebss
 800098c:	4c0b      	ldr	r4, [pc, #44]	; (80009bc <LoopFillZerobss+0x26>)
  movs r3, #0
 800098e:	2300      	movs	r3, #0
  b LoopFillZerobss
 8000990:	e001      	b.n	8000996 <LoopFillZerobss>

08000992 <FillZerobss>:

FillZerobss:
  str  r3, [r2]
 8000992:	6013      	str	r3, [r2, #0]
  adds r2, r2, #4
 8000994:	3204      	adds	r2, #4

08000996 <LoopFillZerobss>:

LoopFillZerobss:
  cmp r2, r4
 8000996:	42a2      	cmp	r2, r4
  bcc FillZerobss
 8000998:	d3fb      	bcc.n	8000992 <FillZerobss>

/* Call the clock system initialization function.*/
  bl  SystemInit   
 800099a:	f7ff ffd7 	bl	800094c <SystemInit>
/* Call static constructors */
    bl __libc_init_array
 800099e:	f000 ff9f 	bl	80018e0 <__libc_init_array>
/* Call the application's entry point.*/
  bl  main
 80009a2:	f7ff fd93 	bl	80004cc <main>
  bx  lr    
 80009a6:	4770      	bx	lr
  ldr   sp, =_estack     /* set stack pointer */
 80009a8:	20020000 	.word	0x20020000
  ldr r0, =_sdata
 80009ac:	20000000 	.word	0x20000000
  ldr r1, =_edata
 80009b0:	20000010 	.word	0x20000010
  ldr r2, =_sidata
 80009b4:	08001970 	.word	0x08001970
  ldr r2, =_sbss
 80009b8:	20000010 	.word	0x20000010
  ldr r4, =_ebss
 80009bc:	20000034 	.word	0x20000034

080009c0 <ADC_IRQHandler>:
 * @retval None       
*/
    .section  .text.Default_Handler,"ax",%progbits
Default_Handler:
Infinite_Loop:
  b  Infinite_Loop
 80009c0:	e7fe      	b.n	80009c0 <ADC_IRQHandler>
	...

080009c4 <HAL_Init>:
  *         need to ensure that the SysTick time base is always set to 1 millisecond
  *         to have correct HAL operation.
  * @retval HAL status
  */
HAL_StatusTypeDef HAL_Init(void)
{
 80009c4:	b580      	push	{r7, lr}
 80009c6:	af00      	add	r7, sp, #0
  /* Configure Flash prefetch, Instruction cache, Data cache */ 
#if (INSTRUCTION_CACHE_ENABLE != 0U)
  __HAL_FLASH_INSTRUCTION_CACHE_ENABLE();
 80009c8:	4b0e      	ldr	r3, [pc, #56]	; (8000a04 <HAL_Init+0x40>)
 80009ca:	681b      	ldr	r3, [r3, #0]
 80009cc:	4a0d      	ldr	r2, [pc, #52]	; (8000a04 <HAL_Init+0x40>)
 80009ce:	f443 7300 	orr.w	r3, r3, #512	; 0x200
 80009d2:	6013      	str	r3, [r2, #0]
#endif /* INSTRUCTION_CACHE_ENABLE */

#if (DATA_CACHE_ENABLE != 0U)
  __HAL_FLASH_DATA_CACHE_ENABLE();
 80009d4:	4b0b      	ldr	r3, [pc, #44]	; (8000a04 <HAL_Init+0x40>)
 80009d6:	681b      	ldr	r3, [r3, #0]
 80009d8:	4a0a      	ldr	r2, [pc, #40]	; (8000a04 <HAL_Init+0x40>)
 80009da:	f443 6380 	orr.w	r3, r3, #1024	; 0x400
 80009de:	6013      	str	r3, [r2, #0]
#endif /* DATA_CACHE_ENABLE */

#if (PREFETCH_ENABLE != 0U)
  __HAL_FLASH_PREFETCH_BUFFER_ENABLE();
 80009e0:	4b08      	ldr	r3, [pc, #32]	; (8000a04 <HAL_Init+0x40>)
 80009e2:	681b      	ldr	r3, [r3, #0]
 80009e4:	4a07      	ldr	r2, [pc, #28]	; (8000a04 <HAL_Init+0x40>)
 80009e6:	f443 7380 	orr.w	r3, r3, #256	; 0x100
 80009ea:	6013      	str	r3, [r2, #0]
#endif /* PREFETCH_ENABLE */

  /* Set Interrupt Group Priority */
  HAL_NVIC_SetPriorityGrouping(NVIC_PRIORITYGROUP_4);
 80009ec:	2003      	movs	r0, #3
 80009ee:	f000 f92b 	bl	8000c48 <HAL_NVIC_SetPriorityGrouping>

  /* Use systick as time base source and configure 1ms tick (default clock after Reset is HSI) */
  HAL_InitTick(TICK_INT_PRIORITY);
 80009f2:	200f      	movs	r0, #15
 80009f4:	f000 f808 	bl	8000a08 <HAL_InitTick>

  /* Init the low level hardware */
  HAL_MspInit();
 80009f8:	f7ff ff4e 	bl	8000898 <HAL_MspInit>

  /* Return function status */
  return HAL_OK;
 80009fc:	2300      	movs	r3, #0
}
 80009fe:	4618      	mov	r0, r3
 8000a00:	bd80      	pop	{r7, pc}
 8000a02:	bf00      	nop
 8000a04:	40023c00 	.word	0x40023c00

08000a08 <HAL_InitTick>:
  *       implementation  in user file.
  * @param TickPriority Tick interrupt priority.
  * @retval HAL status
  */
__weak HAL_StatusTypeDef HAL_InitTick(uint32_t TickPriority)
{
 8000a08:	b580      	push	{r7, lr}
 8000a0a:	b082      	sub	sp, #8
 8000a0c:	af00      	add	r7, sp, #0
 8000a0e:	6078      	str	r0, [r7, #4]
  /* Configure the SysTick to have interrupt in 1ms time basis*/
  if (HAL_SYSTICK_Config(SystemCoreClock / (1000U / uwTickFreq)) > 0U)
 8000a10:	4b12      	ldr	r3, [pc, #72]	; (8000a5c <HAL_InitTick+0x54>)
 8000a12:	681a      	ldr	r2, [r3, #0]
 8000a14:	4b12      	ldr	r3, [pc, #72]	; (8000a60 <HAL_InitTick+0x58>)
 8000a16:	781b      	ldrb	r3, [r3, #0]
 8000a18:	4619      	mov	r1, r3
 8000a1a:	f44f 737a 	mov.w	r3, #1000	; 0x3e8
 8000a1e:	fbb3 f3f1 	udiv	r3, r3, r1
 8000a22:	fbb2 f3f3 	udiv	r3, r2, r3
 8000a26:	4618      	mov	r0, r3
 8000a28:	f000 f943 	bl	8000cb2 <HAL_SYSTICK_Config>
 8000a2c:	4603      	mov	r3, r0
 8000a2e:	2b00      	cmp	r3, #0
 8000a30:	d001      	beq.n	8000a36 <HAL_InitTick+0x2e>
  {
    return HAL_ERROR;
 8000a32:	2301      	movs	r3, #1
 8000a34:	e00e      	b.n	8000a54 <HAL_InitTick+0x4c>
  }

  /* Configure the SysTick IRQ priority */
  if (TickPriority < (1UL << __NVIC_PRIO_BITS))
 8000a36:	687b      	ldr	r3, [r7, #4]
 8000a38:	2b0f      	cmp	r3, #15
 8000a3a:	d80a      	bhi.n	8000a52 <HAL_InitTick+0x4a>
  {
    HAL_NVIC_SetPriority(SysTick_IRQn, TickPriority, 0U);
 8000a3c:	2200      	movs	r2, #0
 8000a3e:	6879      	ldr	r1, [r7, #4]
 8000a40:	f04f 30ff 	mov.w	r0, #4294967295
 8000a44:	f000 f90b 	bl	8000c5e <HAL_NVIC_SetPriority>
    uwTickPrio = TickPriority;
 8000a48:	4a06      	ldr	r2, [pc, #24]	; (8000a64 <HAL_InitTick+0x5c>)
 8000a4a:	687b      	ldr	r3, [r7, #4]
 8000a4c:	6013      	str	r3, [r2, #0]
  {
    return HAL_ERROR;
  }

  /* Return function status */
  return HAL_OK;
 8000a4e:	2300      	movs	r3, #0
 8000a50:	e000      	b.n	8000a54 <HAL_InitTick+0x4c>
    return HAL_ERROR;
 8000a52:	2301      	movs	r3, #1
}
 8000a54:	4618      	mov	r0, r3
 8000a56:	3708      	adds	r7, #8
 8000a58:	46bd      	mov	sp, r7
 8000a5a:	bd80      	pop	{r7, pc}
 8000a5c:	20000004 	.word	0x20000004
 8000a60:	2000000c 	.word	0x2000000c
 8000a64:	20000008 	.word	0x20000008

08000a68 <HAL_IncTick>:
 * @note This function is declared as __weak to be overwritten in case of other 
  *      implementations in user file.
  * @retval None
  */
__weak void HAL_IncTick(void)
{
 8000a68:	b480      	push	{r7}
 8000a6a:	af00      	add	r7, sp, #0
  uwTick += uwTickFreq;
 8000a6c:	4b06      	ldr	r3, [pc, #24]	; (8000a88 <HAL_IncTick+0x20>)
 8000a6e:	781b      	ldrb	r3, [r3, #0]
 8000a70:	461a      	mov	r2, r3
 8000a72:	4b06      	ldr	r3, [pc, #24]	; (8000a8c <HAL_IncTick+0x24>)
 8000a74:	681b      	ldr	r3, [r3, #0]
 8000a76:	4413      	add	r3, r2
 8000a78:	4a04      	ldr	r2, [pc, #16]	; (8000a8c <HAL_IncTick+0x24>)
 8000a7a:	6013      	str	r3, [r2, #0]
}
 8000a7c:	bf00      	nop
 8000a7e:	46bd      	mov	sp, r7
 8000a80:	f85d 7b04 	ldr.w	r7, [sp], #4
 8000a84:	4770      	bx	lr
 8000a86:	bf00      	nop
 8000a88:	2000000c 	.word	0x2000000c
 8000a8c:	20000030 	.word	0x20000030

08000a90 <HAL_GetTick>:
  * @note This function is declared as __weak to be overwritten in case of other 
  *       implementations in user file.
  * @retval tick value
  */
__weak uint32_t HAL_GetTick(void)
{
 8000a90:	b480      	push	{r7}
 8000a92:	af00      	add	r7, sp, #0
  return uwTick;
 8000a94:	4b03      	ldr	r3, [pc, #12]	; (8000aa4 <HAL_GetTick+0x14>)
 8000a96:	681b      	ldr	r3, [r3, #0]
}
 8000a98:	4618      	mov	r0, r3
 8000a9a:	46bd      	mov	sp, r7
 8000a9c:	f85d 7b04 	ldr.w	r7, [sp], #4
 8000aa0:	4770      	bx	lr
 8000aa2:	bf00      	nop
 8000aa4:	20000030 	.word	0x20000030

08000aa8 <__NVIC_SetPriorityGrouping>:
           In case of a conflict between priority grouping and available
           priority bits (__NVIC_PRIO_BITS), the smallest possible priority group is set.
  \param [in]      PriorityGroup  Priority grouping field.
 */
__STATIC_INLINE void __NVIC_SetPriorityGrouping(uint32_t PriorityGroup)
{
 8000aa8:	b480      	push	{r7}
 8000aaa:	b085      	sub	sp, #20
 8000aac:	af00      	add	r7, sp, #0
 8000aae:	6078      	str	r0, [r7, #4]
  uint32_t reg_value;
  uint32_t PriorityGroupTmp = (PriorityGroup & (uint32_t)0x07UL);             /* only values 0..7 are used          */
 8000ab0:	687b      	ldr	r3, [r7, #4]
 8000ab2:	f003 0307 	and.w	r3, r3, #7
 8000ab6:	60fb      	str	r3, [r7, #12]

  reg_value  =  SCB->AIRCR;                                                   /* read old register configuration    */
 8000ab8:	4b0c      	ldr	r3, [pc, #48]	; (8000aec <__NVIC_SetPriorityGrouping+0x44>)
 8000aba:	68db      	ldr	r3, [r3, #12]
 8000abc:	60bb      	str	r3, [r7, #8]
  reg_value &= ~((uint32_t)(SCB_AIRCR_VECTKEY_Msk | SCB_AIRCR_PRIGROUP_Msk)); /* clear bits to change               */
 8000abe:	68ba      	ldr	r2, [r7, #8]
 8000ac0:	f64f 03ff 	movw	r3, #63743	; 0xf8ff
 8000ac4:	4013      	ands	r3, r2
 8000ac6:	60bb      	str	r3, [r7, #8]
  reg_value  =  (reg_value                                   |
                ((uint32_t)0x5FAUL << SCB_AIRCR_VECTKEY_Pos) |
                (PriorityGroupTmp << SCB_AIRCR_PRIGROUP_Pos)  );              /* Insert write key and priority group */
 8000ac8:	68fb      	ldr	r3, [r7, #12]
 8000aca:	021a      	lsls	r2, r3, #8
                ((uint32_t)0x5FAUL << SCB_AIRCR_VECTKEY_Pos) |
 8000acc:	68bb      	ldr	r3, [r7, #8]
 8000ace:	4313      	orrs	r3, r2
  reg_value  =  (reg_value                                   |
 8000ad0:	f043 63bf 	orr.w	r3, r3, #100139008	; 0x5f80000
 8000ad4:	f443 3300 	orr.w	r3, r3, #131072	; 0x20000
 8000ad8:	60bb      	str	r3, [r7, #8]
  SCB->AIRCR =  reg_value;
 8000ada:	4a04      	ldr	r2, [pc, #16]	; (8000aec <__NVIC_SetPriorityGrouping+0x44>)
 8000adc:	68bb      	ldr	r3, [r7, #8]
 8000ade:	60d3      	str	r3, [r2, #12]
}
 8000ae0:	bf00      	nop
 8000ae2:	3714      	adds	r7, #20
 8000ae4:	46bd      	mov	sp, r7
 8000ae6:	f85d 7b04 	ldr.w	r7, [sp], #4
 8000aea:	4770      	bx	lr
 8000aec:	e000ed00 	.word	0xe000ed00

08000af0 <__NVIC_GetPriorityGrouping>:
  \brief   Get Priority Grouping
  \details Reads the priority grouping field from the NVIC Interrupt Controller.
  \return                Priority grouping field (SCB->AIRCR [10:8] PRIGROUP field).
 */
__STATIC_INLINE uint32_t __NVIC_GetPriorityGrouping(void)
{
 8000af0:	b480      	push	{r7}
 8000af2:	af00      	add	r7, sp, #0
  return ((uint32_t)((SCB->AIRCR & SCB_AIRCR_PRIGROUP_Msk) >> SCB_AIRCR_PRIGROUP_Pos));
 8000af4:	4b04      	ldr	r3, [pc, #16]	; (8000b08 <__NVIC_GetPriorityGrouping+0x18>)
 8000af6:	68db      	ldr	r3, [r3, #12]
 8000af8:	0a1b      	lsrs	r3, r3, #8
 8000afa:	f003 0307 	and.w	r3, r3, #7
}
 8000afe:	4618      	mov	r0, r3
 8000b00:	46bd      	mov	sp, r7
 8000b02:	f85d 7b04 	ldr.w	r7, [sp], #4
 8000b06:	4770      	bx	lr
 8000b08:	e000ed00 	.word	0xe000ed00

08000b0c <__NVIC_EnableIRQ>:
  \details Enables a device specific interrupt in the NVIC interrupt controller.
  \param [in]      IRQn  Device specific interrupt number.
  \note    IRQn must not be negative.
 */
__STATIC_INLINE void __NVIC_EnableIRQ(IRQn_Type IRQn)
{
 8000b0c:	b480      	push	{r7}
 8000b0e:	b083      	sub	sp, #12
 8000b10:	af00      	add	r7, sp, #0
 8000b12:	4603      	mov	r3, r0
 8000b14:	71fb      	strb	r3, [r7, #7]
  if ((int32_t)(IRQn) >= 0)
 8000b16:	f997 3007 	ldrsb.w	r3, [r7, #7]
 8000b1a:	2b00      	cmp	r3, #0
 8000b1c:	db0b      	blt.n	8000b36 <__NVIC_EnableIRQ+0x2a>
  {
    NVIC->ISER[(((uint32_t)IRQn) >> 5UL)] = (uint32_t)(1UL << (((uint32_t)IRQn) & 0x1FUL));
 8000b1e:	79fb      	ldrb	r3, [r7, #7]
 8000b20:	f003 021f 	and.w	r2, r3, #31
 8000b24:	4907      	ldr	r1, [pc, #28]	; (8000b44 <__NVIC_EnableIRQ+0x38>)
 8000b26:	f997 3007 	ldrsb.w	r3, [r7, #7]
 8000b2a:	095b      	lsrs	r3, r3, #5
 8000b2c:	2001      	movs	r0, #1
 8000b2e:	fa00 f202 	lsl.w	r2, r0, r2
 8000b32:	f841 2023 	str.w	r2, [r1, r3, lsl #2]
  }
}
 8000b36:	bf00      	nop
 8000b38:	370c      	adds	r7, #12
 8000b3a:	46bd      	mov	sp, r7
 8000b3c:	f85d 7b04 	ldr.w	r7, [sp], #4
 8000b40:	4770      	bx	lr
 8000b42:	bf00      	nop
 8000b44:	e000e100 	.word	0xe000e100

08000b48 <__NVIC_SetPriority>:
  \param [in]      IRQn  Interrupt number.
  \param [in]  priority  Priority to set.
  \note    The priority cannot be set for every processor exception.
 */
__STATIC_INLINE void __NVIC_SetPriority(IRQn_Type IRQn, uint32_t priority)
{
 8000b48:	b480      	push	{r7}
 8000b4a:	b083      	sub	sp, #12
 8000b4c:	af00      	add	r7, sp, #0
 8000b4e:	4603      	mov	r3, r0
 8000b50:	6039      	str	r1, [r7, #0]
 8000b52:	71fb      	strb	r3, [r7, #7]
  if ((int32_t)(IRQn) >= 0)
 8000b54:	f997 3007 	ldrsb.w	r3, [r7, #7]
 8000b58:	2b00      	cmp	r3, #0
 8000b5a:	db0a      	blt.n	8000b72 <__NVIC_SetPriority+0x2a>
  {
    NVIC->IP[((uint32_t)IRQn)]               = (uint8_t)((priority << (8U - __NVIC_PRIO_BITS)) & (uint32_t)0xFFUL);
 8000b5c:	683b      	ldr	r3, [r7, #0]
 8000b5e:	b2da      	uxtb	r2, r3
 8000b60:	490c      	ldr	r1, [pc, #48]	; (8000b94 <__NVIC_SetPriority+0x4c>)
 8000b62:	f997 3007 	ldrsb.w	r3, [r7, #7]
 8000b66:	0112      	lsls	r2, r2, #4
 8000b68:	b2d2      	uxtb	r2, r2
 8000b6a:	440b      	add	r3, r1
 8000b6c:	f883 2300 	strb.w	r2, [r3, #768]	; 0x300
  }
  else
  {
    SCB->SHP[(((uint32_t)IRQn) & 0xFUL)-4UL] = (uint8_t)((priority << (8U - __NVIC_PRIO_BITS)) & (uint32_t)0xFFUL);
  }
}
 8000b70:	e00a      	b.n	8000b88 <__NVIC_SetPriority+0x40>
    SCB->SHP[(((uint32_t)IRQn) & 0xFUL)-4UL] = (uint8_t)((priority << (8U - __NVIC_PRIO_BITS)) & (uint32_t)0xFFUL);
 8000b72:	683b      	ldr	r3, [r7, #0]
 8000b74:	b2da      	uxtb	r2, r3
 8000b76:	4908      	ldr	r1, [pc, #32]	; (8000b98 <__NVIC_SetPriority+0x50>)
 8000b78:	79fb      	ldrb	r3, [r7, #7]
 8000b7a:	f003 030f 	and.w	r3, r3, #15
 8000b7e:	3b04      	subs	r3, #4
 8000b80:	0112      	lsls	r2, r2, #4
 8000b82:	b2d2      	uxtb	r2, r2
 8000b84:	440b      	add	r3, r1
 8000b86:	761a      	strb	r2, [r3, #24]
}
 8000b88:	bf00      	nop
 8000b8a:	370c      	adds	r7, #12
 8000b8c:	46bd      	mov	sp, r7
 8000b8e:	f85d 7b04 	ldr.w	r7, [sp], #4
 8000b92:	4770      	bx	lr
 8000b94:	e000e100 	.word	0xe000e100
 8000b98:	e000ed00 	.word	0xe000ed00

08000b9c <NVIC_EncodePriority>:
  \param [in]   PreemptPriority  Preemptive priority value (starting from 0).
  \param [in]       SubPriority  Subpriority value (starting from 0).
  \return                        Encoded priority. Value can be used in the function \ref NVIC_SetPriority().
 */
__STATIC_INLINE uint32_t NVIC_EncodePriority (uint32_t PriorityGroup, uint32_t PreemptPriority, uint32_t SubPriority)
{
 8000b9c:	b480      	push	{r7}
 8000b9e:	b089      	sub	sp, #36	; 0x24
 8000ba0:	af00      	add	r7, sp, #0
 8000ba2:	60f8      	str	r0, [r7, #12]
 8000ba4:	60b9      	str	r1, [r7, #8]
 8000ba6:	607a      	str	r2, [r7, #4]
  uint32_t PriorityGroupTmp = (PriorityGroup & (uint32_t)0x07UL);   /* only values 0..7 are used          */
 8000ba8:	68fb      	ldr	r3, [r7, #12]
 8000baa:	f003 0307 	and.w	r3, r3, #7
 8000bae:	61fb      	str	r3, [r7, #28]
  uint32_t PreemptPriorityBits;
  uint32_t SubPriorityBits;

  PreemptPriorityBits = ((7UL - PriorityGroupTmp) > (uint32_t)(__NVIC_PRIO_BITS)) ? (uint32_t)(__NVIC_PRIO_BITS) : (uint32_t)(7UL - PriorityGroupTmp);
 8000bb0:	69fb      	ldr	r3, [r7, #28]
 8000bb2:	f1c3 0307 	rsb	r3, r3, #7
 8000bb6:	2b04      	cmp	r3, #4
 8000bb8:	bf28      	it	cs
 8000bba:	2304      	movcs	r3, #4
 8000bbc:	61bb      	str	r3, [r7, #24]
  SubPriorityBits     = ((PriorityGroupTmp + (uint32_t)(__NVIC_PRIO_BITS)) < (uint32_t)7UL) ? (uint32_t)0UL : (uint32_t)((PriorityGroupTmp - 7UL) + (uint32_t)(__NVIC_PRIO_BITS));
 8000bbe:	69fb      	ldr	r3, [r7, #28]
 8000bc0:	3304      	adds	r3, #4
 8000bc2:	2b06      	cmp	r3, #6
 8000bc4:	d902      	bls.n	8000bcc <NVIC_EncodePriority+0x30>
 8000bc6:	69fb      	ldr	r3, [r7, #28]
 8000bc8:	3b03      	subs	r3, #3
 8000bca:	e000      	b.n	8000bce <NVIC_EncodePriority+0x32>
 8000bcc:	2300      	movs	r3, #0
 8000bce:	617b      	str	r3, [r7, #20]

  return (
           ((PreemptPriority & (uint32_t)((1UL << (PreemptPriorityBits)) - 1UL)) << SubPriorityBits) |
 8000bd0:	f04f 32ff 	mov.w	r2, #4294967295
 8000bd4:	69bb      	ldr	r3, [r7, #24]
 8000bd6:	fa02 f303 	lsl.w	r3, r2, r3
 8000bda:	43da      	mvns	r2, r3
 8000bdc:	68bb      	ldr	r3, [r7, #8]
 8000bde:	401a      	ands	r2, r3
 8000be0:	697b      	ldr	r3, [r7, #20]
 8000be2:	409a      	lsls	r2, r3
           ((SubPriority     & (uint32_t)((1UL << (SubPriorityBits    )) - 1UL)))
 8000be4:	f04f 31ff 	mov.w	r1, #4294967295
 8000be8:	697b      	ldr	r3, [r7, #20]
 8000bea:	fa01 f303 	lsl.w	r3, r1, r3
 8000bee:	43d9      	mvns	r1, r3
 8000bf0:	687b      	ldr	r3, [r7, #4]
 8000bf2:	400b      	ands	r3, r1
           ((PreemptPriority & (uint32_t)((1UL << (PreemptPriorityBits)) - 1UL)) << SubPriorityBits) |
 8000bf4:	4313      	orrs	r3, r2
         );
}
 8000bf6:	4618      	mov	r0, r3
 8000bf8:	3724      	adds	r7, #36	; 0x24
 8000bfa:	46bd      	mov	sp, r7
 8000bfc:	f85d 7b04 	ldr.w	r7, [sp], #4
 8000c00:	4770      	bx	lr
	...

08000c04 <SysTick_Config>:
  \note    When the variable <b>__Vendor_SysTickConfig</b> is set to 1, then the
           function <b>SysTick_Config</b> is not included. In this case, the file <b><i>device</i>.h</b>
           must contain a vendor-specific implementation of this function.
 */
__STATIC_INLINE uint32_t SysTick_Config(uint32_t ticks)
{
 8000c04:	b580      	push	{r7, lr}
 8000c06:	b082      	sub	sp, #8
 8000c08:	af00      	add	r7, sp, #0
 8000c0a:	6078      	str	r0, [r7, #4]
  if ((ticks - 1UL) > SysTick_LOAD_RELOAD_Msk)
 8000c0c:	687b      	ldr	r3, [r7, #4]
 8000c0e:	3b01      	subs	r3, #1
 8000c10:	f1b3 7f80 	cmp.w	r3, #16777216	; 0x1000000
 8000c14:	d301      	bcc.n	8000c1a <SysTick_Config+0x16>
  {
    return (1UL);                                                   /* Reload value impossible */
 8000c16:	2301      	movs	r3, #1
 8000c18:	e00f      	b.n	8000c3a <SysTick_Config+0x36>
  }

  SysTick->LOAD  = (uint32_t)(ticks - 1UL);                         /* set reload register */
 8000c1a:	4a0a      	ldr	r2, [pc, #40]	; (8000c44 <SysTick_Config+0x40>)
 8000c1c:	687b      	ldr	r3, [r7, #4]
 8000c1e:	3b01      	subs	r3, #1
 8000c20:	6053      	str	r3, [r2, #4]
  NVIC_SetPriority (SysTick_IRQn, (1UL << __NVIC_PRIO_BITS) - 1UL); /* set Priority for Systick Interrupt */
 8000c22:	210f      	movs	r1, #15
 8000c24:	f04f 30ff 	mov.w	r0, #4294967295
 8000c28:	f7ff ff8e 	bl	8000b48 <__NVIC_SetPriority>
  SysTick->VAL   = 0UL;                                             /* Load the SysTick Counter Value */
 8000c2c:	4b05      	ldr	r3, [pc, #20]	; (8000c44 <SysTick_Config+0x40>)
 8000c2e:	2200      	movs	r2, #0
 8000c30:	609a      	str	r2, [r3, #8]
  SysTick->CTRL  = SysTick_CTRL_CLKSOURCE_Msk |
 8000c32:	4b04      	ldr	r3, [pc, #16]	; (8000c44 <SysTick_Config+0x40>)
 8000c34:	2207      	movs	r2, #7
 8000c36:	601a      	str	r2, [r3, #0]
                   SysTick_CTRL_TICKINT_Msk   |
                   SysTick_CTRL_ENABLE_Msk;                         /* Enable SysTick IRQ and SysTick Timer */
  return (0UL);                                                     /* Function successful */
 8000c38:	2300      	movs	r3, #0
}
 8000c3a:	4618      	mov	r0, r3
 8000c3c:	3708      	adds	r7, #8
 8000c3e:	46bd      	mov	sp, r7
 8000c40:	bd80      	pop	{r7, pc}
 8000c42:	bf00      	nop
 8000c44:	e000e010 	.word	0xe000e010

08000c48 <HAL_NVIC_SetPriorityGrouping>:
  * @note   When the NVIC_PriorityGroup_0 is selected, IRQ preemption is no more possible. 
  *         The pending IRQ priority will be managed only by the subpriority. 
  * @retval None
  */
void HAL_NVIC_SetPriorityGrouping(uint32_t PriorityGroup)
{
 8000c48:	b580      	push	{r7, lr}
 8000c4a:	b082      	sub	sp, #8
 8000c4c:	af00      	add	r7, sp, #0
 8000c4e:	6078      	str	r0, [r7, #4]
  /* Check the parameters */
  assert_param(IS_NVIC_PRIORITY_GROUP(PriorityGroup));
  
  /* Set the PRIGROUP[10:8] bits according to the PriorityGroup parameter value */
  NVIC_SetPriorityGrouping(PriorityGroup);
 8000c50:	6878      	ldr	r0, [r7, #4]
 8000c52:	f7ff ff29 	bl	8000aa8 <__NVIC_SetPriorityGrouping>
}
 8000c56:	bf00      	nop
 8000c58:	3708      	adds	r7, #8
 8000c5a:	46bd      	mov	sp, r7
 8000c5c:	bd80      	pop	{r7, pc}

08000c5e <HAL_NVIC_SetPriority>:
  *         This parameter can be a value between 0 and 15
  *         A lower priority value indicates a higher priority.          
  * @retval None
  */
void HAL_NVIC_SetPriority(IRQn_Type IRQn, uint32_t PreemptPriority, uint32_t SubPriority)
{ 
 8000c5e:	b580      	push	{r7, lr}
 8000c60:	b086      	sub	sp, #24
 8000c62:	af00      	add	r7, sp, #0
 8000c64:	4603      	mov	r3, r0
 8000c66:	60b9      	str	r1, [r7, #8]
 8000c68:	607a      	str	r2, [r7, #4]
 8000c6a:	73fb      	strb	r3, [r7, #15]
  uint32_t prioritygroup = 0x00U;
 8000c6c:	2300      	movs	r3, #0
 8000c6e:	617b      	str	r3, [r7, #20]
  
  /* Check the parameters */
  assert_param(IS_NVIC_SUB_PRIORITY(SubPriority));
  assert_param(IS_NVIC_PREEMPTION_PRIORITY(PreemptPriority));
  
  prioritygroup = NVIC_GetPriorityGrouping();
 8000c70:	f7ff ff3e 	bl	8000af0 <__NVIC_GetPriorityGrouping>
 8000c74:	6178      	str	r0, [r7, #20]
  
  NVIC_SetPriority(IRQn, NVIC_EncodePriority(prioritygroup, PreemptPriority, SubPriority));
 8000c76:	687a      	ldr	r2, [r7, #4]
 8000c78:	68b9      	ldr	r1, [r7, #8]
 8000c7a:	6978      	ldr	r0, [r7, #20]
 8000c7c:	f7ff ff8e 	bl	8000b9c <NVIC_EncodePriority>
 8000c80:	4602      	mov	r2, r0
 8000c82:	f997 300f 	ldrsb.w	r3, [r7, #15]
 8000c86:	4611      	mov	r1, r2
 8000c88:	4618      	mov	r0, r3
 8000c8a:	f7ff ff5d 	bl	8000b48 <__NVIC_SetPriority>
}
 8000c8e:	bf00      	nop
 8000c90:	3718      	adds	r7, #24
 8000c92:	46bd      	mov	sp, r7
 8000c94:	bd80      	pop	{r7, pc}

08000c96 <HAL_NVIC_EnableIRQ>:
  *         This parameter can be an enumerator of IRQn_Type enumeration
  *         (For the complete STM32 Devices IRQ Channels list, please refer to the appropriate CMSIS device file (stm32f4xxxx.h))
  * @retval None
  */
void HAL_NVIC_EnableIRQ(IRQn_Type IRQn)
{
 8000c96:	b580      	push	{r7, lr}
 8000c98:	b082      	sub	sp, #8
 8000c9a:	af00      	add	r7, sp, #0
 8000c9c:	4603      	mov	r3, r0
 8000c9e:	71fb      	strb	r3, [r7, #7]
  /* Check the parameters */
  assert_param(IS_NVIC_DEVICE_IRQ(IRQn));
  
  /* Enable interrupt */
  NVIC_EnableIRQ(IRQn);
 8000ca0:	f997 3007 	ldrsb.w	r3, [r7, #7]
 8000ca4:	4618      	mov	r0, r3
 8000ca6:	f7ff ff31 	bl	8000b0c <__NVIC_EnableIRQ>
}
 8000caa:	bf00      	nop
 8000cac:	3708      	adds	r7, #8
 8000cae:	46bd      	mov	sp, r7
 8000cb0:	bd80      	pop	{r7, pc}

08000cb2 <HAL_SYSTICK_Config>:
  * @param  TicksNumb Specifies the ticks Number of ticks between two interrupts.
  * @retval status:  - 0  Function succeeded.
  *                  - 1  Function failed.
  */
uint32_t HAL_SYSTICK_Config(uint32_t TicksNumb)
{
 8000cb2:	b580      	push	{r7, lr}
 8000cb4:	b082      	sub	sp, #8
 8000cb6:	af00      	add	r7, sp, #0
 8000cb8:	6078      	str	r0, [r7, #4]
   return SysTick_Config(TicksNumb);
 8000cba:	6878      	ldr	r0, [r7, #4]
 8000cbc:	f7ff ffa2 	bl	8000c04 <SysTick_Config>
 8000cc0:	4603      	mov	r3, r0
}
 8000cc2:	4618      	mov	r0, r3
 8000cc4:	3708      	adds	r7, #8
 8000cc6:	46bd      	mov	sp, r7
 8000cc8:	bd80      	pop	{r7, pc}
	...

08000ccc <HAL_GPIO_Init>:
  * @param  GPIO_Init pointer to a GPIO_InitTypeDef structure that contains
  *         the configuration information for the specified GPIO peripheral.
  * @retval None
  */
void HAL_GPIO_Init(GPIO_TypeDef  *GPIOx, GPIO_InitTypeDef *GPIO_Init)
{
 8000ccc:	b480      	push	{r7}
 8000cce:	b089      	sub	sp, #36	; 0x24
 8000cd0:	af00      	add	r7, sp, #0
 8000cd2:	6078      	str	r0, [r7, #4]
 8000cd4:	6039      	str	r1, [r7, #0]
  uint32_t position;
  uint32_t ioposition = 0x00U;
 8000cd6:	2300      	movs	r3, #0
 8000cd8:	617b      	str	r3, [r7, #20]
  uint32_t iocurrent = 0x00U;
 8000cda:	2300      	movs	r3, #0
 8000cdc:	613b      	str	r3, [r7, #16]
  uint32_t temp = 0x00U;
 8000cde:	2300      	movs	r3, #0
 8000ce0:	61bb      	str	r3, [r7, #24]
  assert_param(IS_GPIO_ALL_INSTANCE(GPIOx));
  assert_param(IS_GPIO_PIN(GPIO_Init->Pin));
  assert_param(IS_GPIO_MODE(GPIO_Init->Mode));

  /* Configure the port pins */
  for(position = 0U; position < GPIO_NUMBER; position++)
 8000ce2:	2300      	movs	r3, #0
 8000ce4:	61fb      	str	r3, [r7, #28]
 8000ce6:	e16b      	b.n	8000fc0 <HAL_GPIO_Init+0x2f4>
  {
    /* Get the IO position */
    ioposition = 0x01U << position;
 8000ce8:	2201      	movs	r2, #1
 8000cea:	69fb      	ldr	r3, [r7, #28]
 8000cec:	fa02 f303 	lsl.w	r3, r2, r3
 8000cf0:	617b      	str	r3, [r7, #20]
    /* Get the current IO position */
    iocurrent = (uint32_t)(GPIO_Init->Pin) & ioposition;
 8000cf2:	683b      	ldr	r3, [r7, #0]
 8000cf4:	681b      	ldr	r3, [r3, #0]
 8000cf6:	697a      	ldr	r2, [r7, #20]
 8000cf8:	4013      	ands	r3, r2
 8000cfa:	613b      	str	r3, [r7, #16]

    if(iocurrent == ioposition)
 8000cfc:	693a      	ldr	r2, [r7, #16]
 8000cfe:	697b      	ldr	r3, [r7, #20]
 8000d00:	429a      	cmp	r2, r3
 8000d02:	f040 815a 	bne.w	8000fba <HAL_GPIO_Init+0x2ee>
    {
      /*--------------------- GPIO Mode Configuration ------------------------*/
      /* In case of Output or Alternate function mode selection */
      if(((GPIO_Init->Mode & GPIO_MODE) == MODE_OUTPUT) || \
 8000d06:	683b      	ldr	r3, [r7, #0]
 8000d08:	685b      	ldr	r3, [r3, #4]
 8000d0a:	f003 0303 	and.w	r3, r3, #3
 8000d0e:	2b01      	cmp	r3, #1
 8000d10:	d005      	beq.n	8000d1e <HAL_GPIO_Init+0x52>
          (GPIO_Init->Mode & GPIO_MODE) == MODE_AF)
 8000d12:	683b      	ldr	r3, [r7, #0]
 8000d14:	685b      	ldr	r3, [r3, #4]
 8000d16:	f003 0303 	and.w	r3, r3, #3
      if(((GPIO_Init->Mode & GPIO_MODE) == MODE_OUTPUT) || \
 8000d1a:	2b02      	cmp	r3, #2
 8000d1c:	d130      	bne.n	8000d80 <HAL_GPIO_Init+0xb4>
      {
        /* Check the Speed parameter */
        assert_param(IS_GPIO_SPEED(GPIO_Init->Speed));
        /* Configure the IO Speed */
        temp = GPIOx->OSPEEDR; 
 8000d1e:	687b      	ldr	r3, [r7, #4]
 8000d20:	689b      	ldr	r3, [r3, #8]
 8000d22:	61bb      	str	r3, [r7, #24]
        temp &= ~(GPIO_OSPEEDER_OSPEEDR0 << (position * 2U));
 8000d24:	69fb      	ldr	r3, [r7, #28]
 8000d26:	005b      	lsls	r3, r3, #1
 8000d28:	2203      	movs	r2, #3
 8000d2a:	fa02 f303 	lsl.w	r3, r2, r3
 8000d2e:	43db      	mvns	r3, r3
 8000d30:	69ba      	ldr	r2, [r7, #24]
 8000d32:	4013      	ands	r3, r2
 8000d34:	61bb      	str	r3, [r7, #24]
        temp |= (GPIO_Init->Speed << (position * 2U));
 8000d36:	683b      	ldr	r3, [r7, #0]
 8000d38:	68da      	ldr	r2, [r3, #12]
 8000d3a:	69fb      	ldr	r3, [r7, #28]
 8000d3c:	005b      	lsls	r3, r3, #1
 8000d3e:	fa02 f303 	lsl.w	r3, r2, r3
 8000d42:	69ba      	ldr	r2, [r7, #24]
 8000d44:	4313      	orrs	r3, r2
 8000d46:	61bb      	str	r3, [r7, #24]
        GPIOx->OSPEEDR = temp;
 8000d48:	687b      	ldr	r3, [r7, #4]
 8000d4a:	69ba      	ldr	r2, [r7, #24]
 8000d4c:	609a      	str	r2, [r3, #8]

        /* Configure the IO Output Type */
        temp = GPIOx->OTYPER;
 8000d4e:	687b      	ldr	r3, [r7, #4]
 8000d50:	685b      	ldr	r3, [r3, #4]
 8000d52:	61bb      	str	r3, [r7, #24]
        temp &= ~(GPIO_OTYPER_OT_0 << position) ;
 8000d54:	2201      	movs	r2, #1
 8000d56:	69fb      	ldr	r3, [r7, #28]
 8000d58:	fa02 f303 	lsl.w	r3, r2, r3
 8000d5c:	43db      	mvns	r3, r3
 8000d5e:	69ba      	ldr	r2, [r7, #24]
 8000d60:	4013      	ands	r3, r2
 8000d62:	61bb      	str	r3, [r7, #24]
        temp |= (((GPIO_Init->Mode & OUTPUT_TYPE) >> OUTPUT_TYPE_Pos) << position);
 8000d64:	683b      	ldr	r3, [r7, #0]
 8000d66:	685b      	ldr	r3, [r3, #4]
 8000d68:	091b      	lsrs	r3, r3, #4
 8000d6a:	f003 0201 	and.w	r2, r3, #1
 8000d6e:	69fb      	ldr	r3, [r7, #28]
 8000d70:	fa02 f303 	lsl.w	r3, r2, r3
 8000d74:	69ba      	ldr	r2, [r7, #24]
 8000d76:	4313      	orrs	r3, r2
 8000d78:	61bb      	str	r3, [r7, #24]
        GPIOx->OTYPER = temp;
 8000d7a:	687b      	ldr	r3, [r7, #4]
 8000d7c:	69ba      	ldr	r2, [r7, #24]
 8000d7e:	605a      	str	r2, [r3, #4]
       }

      if((GPIO_Init->Mode & GPIO_MODE) != MODE_ANALOG)
 8000d80:	683b      	ldr	r3, [r7, #0]
 8000d82:	685b      	ldr	r3, [r3, #4]
 8000d84:	f003 0303 	and.w	r3, r3, #3
 8000d88:	2b03      	cmp	r3, #3
 8000d8a:	d017      	beq.n	8000dbc <HAL_GPIO_Init+0xf0>
      {
        /* Check the parameters */
        assert_param(IS_GPIO_PULL(GPIO_Init->Pull));
        
        /* Activate the Pull-up or Pull down resistor for the current IO */
        temp = GPIOx->PUPDR;
 8000d8c:	687b      	ldr	r3, [r7, #4]
 8000d8e:	68db      	ldr	r3, [r3, #12]
 8000d90:	61bb      	str	r3, [r7, #24]
        temp &= ~(GPIO_PUPDR_PUPDR0 << (position * 2U));
 8000d92:	69fb      	ldr	r3, [r7, #28]
 8000d94:	005b      	lsls	r3, r3, #1
 8000d96:	2203      	movs	r2, #3
 8000d98:	fa02 f303 	lsl.w	r3, r2, r3
 8000d9c:	43db      	mvns	r3, r3
 8000d9e:	69ba      	ldr	r2, [r7, #24]
 8000da0:	4013      	ands	r3, r2
 8000da2:	61bb      	str	r3, [r7, #24]
        temp |= ((GPIO_Init->Pull) << (position * 2U));
 8000da4:	683b      	ldr	r3, [r7, #0]
 8000da6:	689a      	ldr	r2, [r3, #8]
 8000da8:	69fb      	ldr	r3, [r7, #28]
 8000daa:	005b      	lsls	r3, r3, #1
 8000dac:	fa02 f303 	lsl.w	r3, r2, r3
 8000db0:	69ba      	ldr	r2, [r7, #24]
 8000db2:	4313      	orrs	r3, r2
 8000db4:	61bb      	str	r3, [r7, #24]
        GPIOx->PUPDR = temp;
 8000db6:	687b      	ldr	r3, [r7, #4]
 8000db8:	69ba      	ldr	r2, [r7, #24]
 8000dba:	60da      	str	r2, [r3, #12]
      }

      /* In case of Alternate function mode selection */
      if((GPIO_Init->Mode & GPIO_MODE) == MODE_AF)
 8000dbc:	683b      	ldr	r3, [r7, #0]
 8000dbe:	685b      	ldr	r3, [r3, #4]
 8000dc0:	f003 0303 	and.w	r3, r3, #3
 8000dc4:	2b02      	cmp	r3, #2
 8000dc6:	d123      	bne.n	8000e10 <HAL_GPIO_Init+0x144>
      {
        /* Check the Alternate function parameter */
        assert_param(IS_GPIO_AF(GPIO_Init->Alternate));
        /* Configure Alternate function mapped with the current IO */
        temp = GPIOx->AFR[position >> 3U];
 8000dc8:	69fb      	ldr	r3, [r7, #28]
 8000dca:	08da      	lsrs	r2, r3, #3
 8000dcc:	687b      	ldr	r3, [r7, #4]
 8000dce:	3208      	adds	r2, #8
 8000dd0:	f853 3022 	ldr.w	r3, [r3, r2, lsl #2]
 8000dd4:	61bb      	str	r3, [r7, #24]
        temp &= ~(0xFU << ((uint32_t)(position & 0x07U) * 4U)) ;
 8000dd6:	69fb      	ldr	r3, [r7, #28]
 8000dd8:	f003 0307 	and.w	r3, r3, #7
 8000ddc:	009b      	lsls	r3, r3, #2
 8000dde:	220f      	movs	r2, #15
 8000de0:	fa02 f303 	lsl.w	r3, r2, r3
 8000de4:	43db      	mvns	r3, r3
 8000de6:	69ba      	ldr	r2, [r7, #24]
 8000de8:	4013      	ands	r3, r2
 8000dea:	61bb      	str	r3, [r7, #24]
        temp |= ((uint32_t)(GPIO_Init->Alternate) << (((uint32_t)position & 0x07U) * 4U));
 8000dec:	683b      	ldr	r3, [r7, #0]
 8000dee:	691a      	ldr	r2, [r3, #16]
 8000df0:	69fb      	ldr	r3, [r7, #28]
 8000df2:	f003 0307 	and.w	r3, r3, #7
 8000df6:	009b      	lsls	r3, r3, #2
 8000df8:	fa02 f303 	lsl.w	r3, r2, r3
 8000dfc:	69ba      	ldr	r2, [r7, #24]
 8000dfe:	4313      	orrs	r3, r2
 8000e00:	61bb      	str	r3, [r7, #24]
        GPIOx->AFR[position >> 3U] = temp;
 8000e02:	69fb      	ldr	r3, [r7, #28]
 8000e04:	08da      	lsrs	r2, r3, #3
 8000e06:	687b      	ldr	r3, [r7, #4]
 8000e08:	3208      	adds	r2, #8
 8000e0a:	69b9      	ldr	r1, [r7, #24]
 8000e0c:	f843 1022 	str.w	r1, [r3, r2, lsl #2]
      }

      /* Configure IO Direction mode (Input, Output, Alternate or Analog) */
      temp = GPIOx->MODER;
 8000e10:	687b      	ldr	r3, [r7, #4]
 8000e12:	681b      	ldr	r3, [r3, #0]
 8000e14:	61bb      	str	r3, [r7, #24]
      temp &= ~(GPIO_MODER_MODER0 << (position * 2U));
 8000e16:	69fb      	ldr	r3, [r7, #28]
 8000e18:	005b      	lsls	r3, r3, #1
 8000e1a:	2203      	movs	r2, #3
 8000e1c:	fa02 f303 	lsl.w	r3, r2, r3
 8000e20:	43db      	mvns	r3, r3
 8000e22:	69ba      	ldr	r2, [r7, #24]
 8000e24:	4013      	ands	r3, r2
 8000e26:	61bb      	str	r3, [r7, #24]
      temp |= ((GPIO_Init->Mode & GPIO_MODE) << (position * 2U));
 8000e28:	683b      	ldr	r3, [r7, #0]
 8000e2a:	685b      	ldr	r3, [r3, #4]
 8000e2c:	f003 0203 	and.w	r2, r3, #3
 8000e30:	69fb      	ldr	r3, [r7, #28]
 8000e32:	005b      	lsls	r3, r3, #1
 8000e34:	fa02 f303 	lsl.w	r3, r2, r3
 8000e38:	69ba      	ldr	r2, [r7, #24]
 8000e3a:	4313      	orrs	r3, r2
 8000e3c:	61bb      	str	r3, [r7, #24]
      GPIOx->MODER = temp;
 8000e3e:	687b      	ldr	r3, [r7, #4]
 8000e40:	69ba      	ldr	r2, [r7, #24]
 8000e42:	601a      	str	r2, [r3, #0]

      /*--------------------- EXTI Mode Configuration ------------------------*/
      /* Configure the External Interrupt or event for the current IO */
      if((GPIO_Init->Mode & EXTI_MODE) != 0x00U)
 8000e44:	683b      	ldr	r3, [r7, #0]
 8000e46:	685b      	ldr	r3, [r3, #4]
 8000e48:	f403 3340 	and.w	r3, r3, #196608	; 0x30000
 8000e4c:	2b00      	cmp	r3, #0
 8000e4e:	f000 80b4 	beq.w	8000fba <HAL_GPIO_Init+0x2ee>
      {
        /* Enable SYSCFG Clock */
        __HAL_RCC_SYSCFG_CLK_ENABLE();
 8000e52:	2300      	movs	r3, #0
 8000e54:	60fb      	str	r3, [r7, #12]
 8000e56:	4b60      	ldr	r3, [pc, #384]	; (8000fd8 <HAL_GPIO_Init+0x30c>)
 8000e58:	6c5b      	ldr	r3, [r3, #68]	; 0x44
 8000e5a:	4a5f      	ldr	r2, [pc, #380]	; (8000fd8 <HAL_GPIO_Init+0x30c>)
 8000e5c:	f443 4380 	orr.w	r3, r3, #16384	; 0x4000
 8000e60:	6453      	str	r3, [r2, #68]	; 0x44
 8000e62:	4b5d      	ldr	r3, [pc, #372]	; (8000fd8 <HAL_GPIO_Init+0x30c>)
 8000e64:	6c5b      	ldr	r3, [r3, #68]	; 0x44
 8000e66:	f403 4380 	and.w	r3, r3, #16384	; 0x4000
 8000e6a:	60fb      	str	r3, [r7, #12]
 8000e6c:	68fb      	ldr	r3, [r7, #12]

        temp = SYSCFG->EXTICR[position >> 2U];
 8000e6e:	4a5b      	ldr	r2, [pc, #364]	; (8000fdc <HAL_GPIO_Init+0x310>)
 8000e70:	69fb      	ldr	r3, [r7, #28]
 8000e72:	089b      	lsrs	r3, r3, #2
 8000e74:	3302      	adds	r3, #2
 8000e76:	f852 3023 	ldr.w	r3, [r2, r3, lsl #2]
 8000e7a:	61bb      	str	r3, [r7, #24]
        temp &= ~(0x0FU << (4U * (position & 0x03U)));
 8000e7c:	69fb      	ldr	r3, [r7, #28]
 8000e7e:	f003 0303 	and.w	r3, r3, #3
 8000e82:	009b      	lsls	r3, r3, #2
 8000e84:	220f      	movs	r2, #15
 8000e86:	fa02 f303 	lsl.w	r3, r2, r3
 8000e8a:	43db      	mvns	r3, r3
 8000e8c:	69ba      	ldr	r2, [r7, #24]
 8000e8e:	4013      	ands	r3, r2
 8000e90:	61bb      	str	r3, [r7, #24]
        temp |= ((uint32_t)(GPIO_GET_INDEX(GPIOx)) << (4U * (position & 0x03U)));
 8000e92:	687b      	ldr	r3, [r7, #4]
 8000e94:	4a52      	ldr	r2, [pc, #328]	; (8000fe0 <HAL_GPIO_Init+0x314>)
 8000e96:	4293      	cmp	r3, r2
 8000e98:	d02b      	beq.n	8000ef2 <HAL_GPIO_Init+0x226>
 8000e9a:	687b      	ldr	r3, [r7, #4]
 8000e9c:	4a51      	ldr	r2, [pc, #324]	; (8000fe4 <HAL_GPIO_Init+0x318>)
 8000e9e:	4293      	cmp	r3, r2
 8000ea0:	d025      	beq.n	8000eee <HAL_GPIO_Init+0x222>
 8000ea2:	687b      	ldr	r3, [r7, #4]
 8000ea4:	4a50      	ldr	r2, [pc, #320]	; (8000fe8 <HAL_GPIO_Init+0x31c>)
 8000ea6:	4293      	cmp	r3, r2
 8000ea8:	d01f      	beq.n	8000eea <HAL_GPIO_Init+0x21e>
 8000eaa:	687b      	ldr	r3, [r7, #4]
 8000eac:	4a4f      	ldr	r2, [pc, #316]	; (8000fec <HAL_GPIO_Init+0x320>)
 8000eae:	4293      	cmp	r3, r2
 8000eb0:	d019      	beq.n	8000ee6 <HAL_GPIO_Init+0x21a>
 8000eb2:	687b      	ldr	r3, [r7, #4]
 8000eb4:	4a4e      	ldr	r2, [pc, #312]	; (8000ff0 <HAL_GPIO_Init+0x324>)
 8000eb6:	4293      	cmp	r3, r2
 8000eb8:	d013      	beq.n	8000ee2 <HAL_GPIO_Init+0x216>
 8000eba:	687b      	ldr	r3, [r7, #4]
 8000ebc:	4a4d      	ldr	r2, [pc, #308]	; (8000ff4 <HAL_GPIO_Init+0x328>)
 8000ebe:	4293      	cmp	r3, r2
 8000ec0:	d00d      	beq.n	8000ede <HAL_GPIO_Init+0x212>
 8000ec2:	687b      	ldr	r3, [r7, #4]
 8000ec4:	4a4c      	ldr	r2, [pc, #304]	; (8000ff8 <HAL_GPIO_Init+0x32c>)
 8000ec6:	4293      	cmp	r3, r2
 8000ec8:	d007      	beq.n	8000eda <HAL_GPIO_Init+0x20e>
 8000eca:	687b      	ldr	r3, [r7, #4]
 8000ecc:	4a4b      	ldr	r2, [pc, #300]	; (8000ffc <HAL_GPIO_Init+0x330>)
 8000ece:	4293      	cmp	r3, r2
 8000ed0:	d101      	bne.n	8000ed6 <HAL_GPIO_Init+0x20a>
 8000ed2:	2307      	movs	r3, #7
 8000ed4:	e00e      	b.n	8000ef4 <HAL_GPIO_Init+0x228>
 8000ed6:	2308      	movs	r3, #8
 8000ed8:	e00c      	b.n	8000ef4 <HAL_GPIO_Init+0x228>
 8000eda:	2306      	movs	r3, #6
 8000edc:	e00a      	b.n	8000ef4 <HAL_GPIO_Init+0x228>
 8000ede:	2305      	movs	r3, #5
 8000ee0:	e008      	b.n	8000ef4 <HAL_GPIO_Init+0x228>
 8000ee2:	2304      	movs	r3, #4
 8000ee4:	e006      	b.n	8000ef4 <HAL_GPIO_Init+0x228>
 8000ee6:	2303      	movs	r3, #3
 8000ee8:	e004      	b.n	8000ef4 <HAL_GPIO_Init+0x228>
 8000eea:	2302      	movs	r3, #2
 8000eec:	e002      	b.n	8000ef4 <HAL_GPIO_Init+0x228>
 8000eee:	2301      	movs	r3, #1
 8000ef0:	e000      	b.n	8000ef4 <HAL_GPIO_Init+0x228>
 8000ef2:	2300      	movs	r3, #0
 8000ef4:	69fa      	ldr	r2, [r7, #28]
 8000ef6:	f002 0203 	and.w	r2, r2, #3
 8000efa:	0092      	lsls	r2, r2, #2
 8000efc:	4093      	lsls	r3, r2
 8000efe:	69ba      	ldr	r2, [r7, #24]
 8000f00:	4313      	orrs	r3, r2
 8000f02:	61bb      	str	r3, [r7, #24]
        SYSCFG->EXTICR[position >> 2U] = temp;
 8000f04:	4935      	ldr	r1, [pc, #212]	; (8000fdc <HAL_GPIO_Init+0x310>)
 8000f06:	69fb      	ldr	r3, [r7, #28]
 8000f08:	089b      	lsrs	r3, r3, #2
 8000f0a:	3302      	adds	r3, #2
 8000f0c:	69ba      	ldr	r2, [r7, #24]
 8000f0e:	f841 2023 	str.w	r2, [r1, r3, lsl #2]

        /* Clear Rising Falling edge configuration */
        temp = EXTI->RTSR;
 8000f12:	4b3b      	ldr	r3, [pc, #236]	; (8001000 <HAL_GPIO_Init+0x334>)
 8000f14:	689b      	ldr	r3, [r3, #8]
 8000f16:	61bb      	str	r3, [r7, #24]
        temp &= ~((uint32_t)iocurrent);
 8000f18:	693b      	ldr	r3, [r7, #16]
 8000f1a:	43db      	mvns	r3, r3
 8000f1c:	69ba      	ldr	r2, [r7, #24]
 8000f1e:	4013      	ands	r3, r2
 8000f20:	61bb      	str	r3, [r7, #24]
        if((GPIO_Init->Mode & TRIGGER_RISING) != 0x00U)
 8000f22:	683b      	ldr	r3, [r7, #0]
 8000f24:	685b      	ldr	r3, [r3, #4]
 8000f26:	f403 1380 	and.w	r3, r3, #1048576	; 0x100000
 8000f2a:	2b00      	cmp	r3, #0
 8000f2c:	d003      	beq.n	8000f36 <HAL_GPIO_Init+0x26a>
        {
          temp |= iocurrent;
 8000f2e:	69ba      	ldr	r2, [r7, #24]
 8000f30:	693b      	ldr	r3, [r7, #16]
 8000f32:	4313      	orrs	r3, r2
 8000f34:	61bb      	str	r3, [r7, #24]
        }
        EXTI->RTSR = temp;
 8000f36:	4a32      	ldr	r2, [pc, #200]	; (8001000 <HAL_GPIO_Init+0x334>)
 8000f38:	69bb      	ldr	r3, [r7, #24]
 8000f3a:	6093      	str	r3, [r2, #8]

        temp = EXTI->FTSR;
 8000f3c:	4b30      	ldr	r3, [pc, #192]	; (8001000 <HAL_GPIO_Init+0x334>)
 8000f3e:	68db      	ldr	r3, [r3, #12]
 8000f40:	61bb      	str	r3, [r7, #24]
        temp &= ~((uint32_t)iocurrent);
 8000f42:	693b      	ldr	r3, [r7, #16]
 8000f44:	43db      	mvns	r3, r3
 8000f46:	69ba      	ldr	r2, [r7, #24]
 8000f48:	4013      	ands	r3, r2
 8000f4a:	61bb      	str	r3, [r7, #24]
        if((GPIO_Init->Mode & TRIGGER_FALLING) != 0x00U)
 8000f4c:	683b      	ldr	r3, [r7, #0]
 8000f4e:	685b      	ldr	r3, [r3, #4]
 8000f50:	f403 1300 	and.w	r3, r3, #2097152	; 0x200000
 8000f54:	2b00      	cmp	r3, #0
 8000f56:	d003      	beq.n	8000f60 <HAL_GPIO_Init+0x294>
        {
          temp |= iocurrent;
 8000f58:	69ba      	ldr	r2, [r7, #24]
 8000f5a:	693b      	ldr	r3, [r7, #16]
 8000f5c:	4313      	orrs	r3, r2
 8000f5e:	61bb      	str	r3, [r7, #24]
        }
        EXTI->FTSR = temp;
 8000f60:	4a27      	ldr	r2, [pc, #156]	; (8001000 <HAL_GPIO_Init+0x334>)
 8000f62:	69bb      	ldr	r3, [r7, #24]
 8000f64:	60d3      	str	r3, [r2, #12]

        temp = EXTI->EMR;
 8000f66:	4b26      	ldr	r3, [pc, #152]	; (8001000 <HAL_GPIO_Init+0x334>)
 8000f68:	685b      	ldr	r3, [r3, #4]
 8000f6a:	61bb      	str	r3, [r7, #24]
        temp &= ~((uint32_t)iocurrent);
 8000f6c:	693b      	ldr	r3, [r7, #16]
 8000f6e:	43db      	mvns	r3, r3
 8000f70:	69ba      	ldr	r2, [r7, #24]
 8000f72:	4013      	ands	r3, r2
 8000f74:	61bb      	str	r3, [r7, #24]
        if((GPIO_Init->Mode & EXTI_EVT) != 0x00U)
 8000f76:	683b      	ldr	r3, [r7, #0]
 8000f78:	685b      	ldr	r3, [r3, #4]
 8000f7a:	f403 3300 	and.w	r3, r3, #131072	; 0x20000
 8000f7e:	2b00      	cmp	r3, #0
 8000f80:	d003      	beq.n	8000f8a <HAL_GPIO_Init+0x2be>
        {
          temp |= iocurrent;
 8000f82:	69ba      	ldr	r2, [r7, #24]
 8000f84:	693b      	ldr	r3, [r7, #16]
 8000f86:	4313      	orrs	r3, r2
 8000f88:	61bb      	str	r3, [r7, #24]
        }
        EXTI->EMR = temp;
 8000f8a:	4a1d      	ldr	r2, [pc, #116]	; (8001000 <HAL_GPIO_Init+0x334>)
 8000f8c:	69bb      	ldr	r3, [r7, #24]
 8000f8e:	6053      	str	r3, [r2, #4]

        /* Clear EXTI line configuration */
        temp = EXTI->IMR;
 8000f90:	4b1b      	ldr	r3, [pc, #108]	; (8001000 <HAL_GPIO_Init+0x334>)
 8000f92:	681b      	ldr	r3, [r3, #0]
 8000f94:	61bb      	str	r3, [r7, #24]
        temp &= ~((uint32_t)iocurrent);
 8000f96:	693b      	ldr	r3, [r7, #16]
 8000f98:	43db      	mvns	r3, r3
 8000f9a:	69ba      	ldr	r2, [r7, #24]
 8000f9c:	4013      	ands	r3, r2
 8000f9e:	61bb      	str	r3, [r7, #24]
        if((GPIO_Init->Mode & EXTI_IT) != 0x00U)
 8000fa0:	683b      	ldr	r3, [r7, #0]
 8000fa2:	685b      	ldr	r3, [r3, #4]
 8000fa4:	f403 3380 	and.w	r3, r3, #65536	; 0x10000
 8000fa8:	2b00      	cmp	r3, #0
 8000faa:	d003      	beq.n	8000fb4 <HAL_GPIO_Init+0x2e8>
        {
          temp |= iocurrent;
 8000fac:	69ba      	ldr	r2, [r7, #24]
 8000fae:	693b      	ldr	r3, [r7, #16]
 8000fb0:	4313      	orrs	r3, r2
 8000fb2:	61bb      	str	r3, [r7, #24]
        }
        EXTI->IMR = temp;
 8000fb4:	4a12      	ldr	r2, [pc, #72]	; (8001000 <HAL_GPIO_Init+0x334>)
 8000fb6:	69bb      	ldr	r3, [r7, #24]
 8000fb8:	6013      	str	r3, [r2, #0]
  for(position = 0U; position < GPIO_NUMBER; position++)
 8000fba:	69fb      	ldr	r3, [r7, #28]
 8000fbc:	3301      	adds	r3, #1
 8000fbe:	61fb      	str	r3, [r7, #28]
 8000fc0:	69fb      	ldr	r3, [r7, #28]
 8000fc2:	2b0f      	cmp	r3, #15
 8000fc4:	f67f ae90 	bls.w	8000ce8 <HAL_GPIO_Init+0x1c>
      }
    }
  }
}
 8000fc8:	bf00      	nop
 8000fca:	bf00      	nop
 8000fcc:	3724      	adds	r7, #36	; 0x24
 8000fce:	46bd      	mov	sp, r7
 8000fd0:	f85d 7b04 	ldr.w	r7, [sp], #4
 8000fd4:	4770      	bx	lr
 8000fd6:	bf00      	nop
 8000fd8:	40023800 	.word	0x40023800
 8000fdc:	40013800 	.word	0x40013800
 8000fe0:	40020000 	.word	0x40020000
 8000fe4:	40020400 	.word	0x40020400
 8000fe8:	40020800 	.word	0x40020800
 8000fec:	40020c00 	.word	0x40020c00
 8000ff0:	40021000 	.word	0x40021000
 8000ff4:	40021400 	.word	0x40021400
 8000ff8:	40021800 	.word	0x40021800
 8000ffc:	40021c00 	.word	0x40021c00
 8001000:	40013c00 	.word	0x40013c00

08001004 <HAL_GPIO_ReadPin>:
  * @param  GPIO_Pin specifies the port bit to read.
  *         This parameter can be GPIO_PIN_x where x can be (0..15).
  * @retval The input port pin value.
  */
GPIO_PinState HAL_GPIO_ReadPin(GPIO_TypeDef* GPIOx, uint16_t GPIO_Pin)
{
 8001004:	b480      	push	{r7}
 8001006:	b085      	sub	sp, #20
 8001008:	af00      	add	r7, sp, #0
 800100a:	6078      	str	r0, [r7, #4]
 800100c:	460b      	mov	r3, r1
 800100e:	807b      	strh	r3, [r7, #2]
  GPIO_PinState bitstatus;

  /* Check the parameters */
  assert_param(IS_GPIO_PIN(GPIO_Pin));

  if((GPIOx->IDR & GPIO_Pin) != (uint32_t)GPIO_PIN_RESET)
 8001010:	687b      	ldr	r3, [r7, #4]
 8001012:	691a      	ldr	r2, [r3, #16]
 8001014:	887b      	ldrh	r3, [r7, #2]
 8001016:	4013      	ands	r3, r2
 8001018:	2b00      	cmp	r3, #0
 800101a:	d002      	beq.n	8001022 <HAL_GPIO_ReadPin+0x1e>
  {
    bitstatus = GPIO_PIN_SET;
 800101c:	2301      	movs	r3, #1
 800101e:	73fb      	strb	r3, [r7, #15]
 8001020:	e001      	b.n	8001026 <HAL_GPIO_ReadPin+0x22>
  }
  else
  {
    bitstatus = GPIO_PIN_RESET;
 8001022:	2300      	movs	r3, #0
 8001024:	73fb      	strb	r3, [r7, #15]
  }
  return bitstatus;
 8001026:	7bfb      	ldrb	r3, [r7, #15]
}
 8001028:	4618      	mov	r0, r3
 800102a:	3714      	adds	r7, #20
 800102c:	46bd      	mov	sp, r7
 800102e:	f85d 7b04 	ldr.w	r7, [sp], #4
 8001032:	4770      	bx	lr

08001034 <HAL_GPIO_WritePin>:
  *            @arg GPIO_PIN_RESET: to clear the port pin
  *            @arg GPIO_PIN_SET: to set the port pin
  * @retval None
  */
void HAL_GPIO_WritePin(GPIO_TypeDef* GPIOx, uint16_t GPIO_Pin, GPIO_PinState PinState)
{
 8001034:	b480      	push	{r7}
 8001036:	b083      	sub	sp, #12
 8001038:	af00      	add	r7, sp, #0
 800103a:	6078      	str	r0, [r7, #4]
 800103c:	460b      	mov	r3, r1
 800103e:	807b      	strh	r3, [r7, #2]
 8001040:	4613      	mov	r3, r2
 8001042:	707b      	strb	r3, [r7, #1]
  /* Check the parameters */
  assert_param(IS_GPIO_PIN(GPIO_Pin));
  assert_param(IS_GPIO_PIN_ACTION(PinState));

  if(PinState != GPIO_PIN_RESET)
 8001044:	787b      	ldrb	r3, [r7, #1]
 8001046:	2b00      	cmp	r3, #0
 8001048:	d003      	beq.n	8001052 <HAL_GPIO_WritePin+0x1e>
  {
    GPIOx->BSRR = GPIO_Pin;
 800104a:	887a      	ldrh	r2, [r7, #2]
 800104c:	687b      	ldr	r3, [r7, #4]
 800104e:	619a      	str	r2, [r3, #24]
  }
  else
  {
    GPIOx->BSRR = (uint32_t)GPIO_Pin << 16U;
  }
}
 8001050:	e003      	b.n	800105a <HAL_GPIO_WritePin+0x26>
    GPIOx->BSRR = (uint32_t)GPIO_Pin << 16U;
 8001052:	887b      	ldrh	r3, [r7, #2]
 8001054:	041a      	lsls	r2, r3, #16
 8001056:	687b      	ldr	r3, [r7, #4]
 8001058:	619a      	str	r2, [r3, #24]
}
 800105a:	bf00      	nop
 800105c:	370c      	adds	r7, #12
 800105e:	46bd      	mov	sp, r7
 8001060:	f85d 7b04 	ldr.w	r7, [sp], #4
 8001064:	4770      	bx	lr
	...

08001068 <HAL_GPIO_EXTI_IRQHandler>:
  * @brief  This function handles EXTI interrupt request.
  * @param  GPIO_Pin Specifies the pins connected EXTI line
  * @retval None
  */
void HAL_GPIO_EXTI_IRQHandler(uint16_t GPIO_Pin)
{
 8001068:	b580      	push	{r7, lr}
 800106a:	b082      	sub	sp, #8
 800106c:	af00      	add	r7, sp, #0
 800106e:	4603      	mov	r3, r0
 8001070:	80fb      	strh	r3, [r7, #6]
  /* EXTI line interrupt detected */
  if(__HAL_GPIO_EXTI_GET_IT(GPIO_Pin) != RESET)
 8001072:	4b08      	ldr	r3, [pc, #32]	; (8001094 <HAL_GPIO_EXTI_IRQHandler+0x2c>)
 8001074:	695a      	ldr	r2, [r3, #20]
 8001076:	88fb      	ldrh	r3, [r7, #6]
 8001078:	4013      	ands	r3, r2
 800107a:	2b00      	cmp	r3, #0
 800107c:	d006      	beq.n	800108c <HAL_GPIO_EXTI_IRQHandler+0x24>
  {
    __HAL_GPIO_EXTI_CLEAR_IT(GPIO_Pin);
 800107e:	4a05      	ldr	r2, [pc, #20]	; (8001094 <HAL_GPIO_EXTI_IRQHandler+0x2c>)
 8001080:	88fb      	ldrh	r3, [r7, #6]
 8001082:	6153      	str	r3, [r2, #20]
    HAL_GPIO_EXTI_Callback(GPIO_Pin);
 8001084:	88fb      	ldrh	r3, [r7, #6]
 8001086:	4618      	mov	r0, r3
 8001088:	f7ff fafe 	bl	8000688 <HAL_GPIO_EXTI_Callback>
  }
}
 800108c:	bf00      	nop
 800108e:	3708      	adds	r7, #8
 8001090:	46bd      	mov	sp, r7
 8001092:	bd80      	pop	{r7, pc}
 8001094:	40013c00 	.word	0x40013c00

08001098 <HAL_RCC_OscConfig>:
  *         supported by this API. User should request a transition to HSE Off
  *         first and then HSE On or HSE Bypass.
  * @retval HAL status
  */
__weak HAL_StatusTypeDef HAL_RCC_OscConfig(RCC_OscInitTypeDef  *RCC_OscInitStruct)
{
 8001098:	b580      	push	{r7, lr}
 800109a:	b086      	sub	sp, #24
 800109c:	af00      	add	r7, sp, #0
 800109e:	6078      	str	r0, [r7, #4]
  uint32_t tickstart, pll_config;

  /* Check Null pointer */
  if(RCC_OscInitStruct == NULL)
 80010a0:	687b      	ldr	r3, [r7, #4]
 80010a2:	2b00      	cmp	r3, #0
 80010a4:	d101      	bne.n	80010aa <HAL_RCC_OscConfig+0x12>
  {
    return HAL_ERROR;
 80010a6:	2301      	movs	r3, #1
 80010a8:	e267      	b.n	800157a <HAL_RCC_OscConfig+0x4e2>
  }

  /* Check the parameters */
  assert_param(IS_RCC_OSCILLATORTYPE(RCC_OscInitStruct->OscillatorType));
  /*------------------------------- HSE Configuration ------------------------*/
  if(((RCC_OscInitStruct->OscillatorType) & RCC_OSCILLATORTYPE_HSE) == RCC_OSCILLATORTYPE_HSE)
 80010aa:	687b      	ldr	r3, [r7, #4]
 80010ac:	681b      	ldr	r3, [r3, #0]
 80010ae:	f003 0301 	and.w	r3, r3, #1
 80010b2:	2b00      	cmp	r3, #0
 80010b4:	d075      	beq.n	80011a2 <HAL_RCC_OscConfig+0x10a>
  {
    /* Check the parameters */
    assert_param(IS_RCC_HSE(RCC_OscInitStruct->HSEState));
    /* When the HSE is used as system clock or clock source for PLL in these cases HSE will not disabled */
    if((__HAL_RCC_GET_SYSCLK_SOURCE() == RCC_CFGR_SWS_HSE) ||\
 80010b6:	4b88      	ldr	r3, [pc, #544]	; (80012d8 <HAL_RCC_OscConfig+0x240>)
 80010b8:	689b      	ldr	r3, [r3, #8]
 80010ba:	f003 030c 	and.w	r3, r3, #12
 80010be:	2b04      	cmp	r3, #4
 80010c0:	d00c      	beq.n	80010dc <HAL_RCC_OscConfig+0x44>
      ((__HAL_RCC_GET_SYSCLK_SOURCE() == RCC_CFGR_SWS_PLL) && ((RCC->PLLCFGR & RCC_PLLCFGR_PLLSRC) == RCC_PLLCFGR_PLLSRC_HSE)))
 80010c2:	4b85      	ldr	r3, [pc, #532]	; (80012d8 <HAL_RCC_OscConfig+0x240>)
 80010c4:	689b      	ldr	r3, [r3, #8]
 80010c6:	f003 030c 	and.w	r3, r3, #12
    if((__HAL_RCC_GET_SYSCLK_SOURCE() == RCC_CFGR_SWS_HSE) ||\
 80010ca:	2b08      	cmp	r3, #8
 80010cc:	d112      	bne.n	80010f4 <HAL_RCC_OscConfig+0x5c>
      ((__HAL_RCC_GET_SYSCLK_SOURCE() == RCC_CFGR_SWS_PLL) && ((RCC->PLLCFGR & RCC_PLLCFGR_PLLSRC) == RCC_PLLCFGR_PLLSRC_HSE)))
 80010ce:	4b82      	ldr	r3, [pc, #520]	; (80012d8 <HAL_RCC_OscConfig+0x240>)
 80010d0:	685b      	ldr	r3, [r3, #4]
 80010d2:	f403 0380 	and.w	r3, r3, #4194304	; 0x400000
 80010d6:	f5b3 0f80 	cmp.w	r3, #4194304	; 0x400000
 80010da:	d10b      	bne.n	80010f4 <HAL_RCC_OscConfig+0x5c>
    {
      if((__HAL_RCC_GET_FLAG(RCC_FLAG_HSERDY) != RESET) && (RCC_OscInitStruct->HSEState == RCC_HSE_OFF))
 80010dc:	4b7e      	ldr	r3, [pc, #504]	; (80012d8 <HAL_RCC_OscConfig+0x240>)
 80010de:	681b      	ldr	r3, [r3, #0]
 80010e0:	f403 3300 	and.w	r3, r3, #131072	; 0x20000
 80010e4:	2b00      	cmp	r3, #0
 80010e6:	d05b      	beq.n	80011a0 <HAL_RCC_OscConfig+0x108>
 80010e8:	687b      	ldr	r3, [r7, #4]
 80010ea:	685b      	ldr	r3, [r3, #4]
 80010ec:	2b00      	cmp	r3, #0
 80010ee:	d157      	bne.n	80011a0 <HAL_RCC_OscConfig+0x108>
      {
        return HAL_ERROR;
 80010f0:	2301      	movs	r3, #1
 80010f2:	e242      	b.n	800157a <HAL_RCC_OscConfig+0x4e2>
      }
    }
    else
    {
      /* Set the new HSE configuration ---------------------------------------*/
      __HAL_RCC_HSE_CONFIG(RCC_OscInitStruct->HSEState);
 80010f4:	687b      	ldr	r3, [r7, #4]
 80010f6:	685b      	ldr	r3, [r3, #4]
 80010f8:	f5b3 3f80 	cmp.w	r3, #65536	; 0x10000
 80010fc:	d106      	bne.n	800110c <HAL_RCC_OscConfig+0x74>
 80010fe:	4b76      	ldr	r3, [pc, #472]	; (80012d8 <HAL_RCC_OscConfig+0x240>)
 8001100:	681b      	ldr	r3, [r3, #0]
 8001102:	4a75      	ldr	r2, [pc, #468]	; (80012d8 <HAL_RCC_OscConfig+0x240>)
 8001104:	f443 3380 	orr.w	r3, r3, #65536	; 0x10000
 8001108:	6013      	str	r3, [r2, #0]
 800110a:	e01d      	b.n	8001148 <HAL_RCC_OscConfig+0xb0>
 800110c:	687b      	ldr	r3, [r7, #4]
 800110e:	685b      	ldr	r3, [r3, #4]
 8001110:	f5b3 2fa0 	cmp.w	r3, #327680	; 0x50000
 8001114:	d10c      	bne.n	8001130 <HAL_RCC_OscConfig+0x98>
 8001116:	4b70      	ldr	r3, [pc, #448]	; (80012d8 <HAL_RCC_OscConfig+0x240>)
 8001118:	681b      	ldr	r3, [r3, #0]
 800111a:	4a6f      	ldr	r2, [pc, #444]	; (80012d8 <HAL_RCC_OscConfig+0x240>)
 800111c:	f443 2380 	orr.w	r3, r3, #262144	; 0x40000
 8001120:	6013      	str	r3, [r2, #0]
 8001122:	4b6d      	ldr	r3, [pc, #436]	; (80012d8 <HAL_RCC_OscConfig+0x240>)
 8001124:	681b      	ldr	r3, [r3, #0]
 8001126:	4a6c      	ldr	r2, [pc, #432]	; (80012d8 <HAL_RCC_OscConfig+0x240>)
 8001128:	f443 3380 	orr.w	r3, r3, #65536	; 0x10000
 800112c:	6013      	str	r3, [r2, #0]
 800112e:	e00b      	b.n	8001148 <HAL_RCC_OscConfig+0xb0>
 8001130:	4b69      	ldr	r3, [pc, #420]	; (80012d8 <HAL_RCC_OscConfig+0x240>)
 8001132:	681b      	ldr	r3, [r3, #0]
 8001134:	4a68      	ldr	r2, [pc, #416]	; (80012d8 <HAL_RCC_OscConfig+0x240>)
 8001136:	f423 3380 	bic.w	r3, r3, #65536	; 0x10000
 800113a:	6013      	str	r3, [r2, #0]
 800113c:	4b66      	ldr	r3, [pc, #408]	; (80012d8 <HAL_RCC_OscConfig+0x240>)
 800113e:	681b      	ldr	r3, [r3, #0]
 8001140:	4a65      	ldr	r2, [pc, #404]	; (80012d8 <HAL_RCC_OscConfig+0x240>)
 8001142:	f423 2380 	bic.w	r3, r3, #262144	; 0x40000
 8001146:	6013      	str	r3, [r2, #0]

      /* Check the HSE State */
      if((RCC_OscInitStruct->HSEState) != RCC_HSE_OFF)
 8001148:	687b      	ldr	r3, [r7, #4]
 800114a:	685b      	ldr	r3, [r3, #4]
 800114c:	2b00      	cmp	r3, #0
 800114e:	d013      	beq.n	8001178 <HAL_RCC_OscConfig+0xe0>
      {
        /* Get Start Tick */
        tickstart = HAL_GetTick();
 8001150:	f7ff fc9e 	bl	8000a90 <HAL_GetTick>
 8001154:	6138      	str	r0, [r7, #16]

        /* Wait till HSE is ready */
        while(__HAL_RCC_GET_FLAG(RCC_FLAG_HSERDY) == RESET)
 8001156:	e008      	b.n	800116a <HAL_RCC_OscConfig+0xd2>
        {
          if((HAL_GetTick() - tickstart ) > HSE_TIMEOUT_VALUE)
 8001158:	f7ff fc9a 	bl	8000a90 <HAL_GetTick>
 800115c:	4602      	mov	r2, r0
 800115e:	693b      	ldr	r3, [r7, #16]
 8001160:	1ad3      	subs	r3, r2, r3
 8001162:	2b64      	cmp	r3, #100	; 0x64
 8001164:	d901      	bls.n	800116a <HAL_RCC_OscConfig+0xd2>
          {
            return HAL_TIMEOUT;
 8001166:	2303      	movs	r3, #3
 8001168:	e207      	b.n	800157a <HAL_RCC_OscConfig+0x4e2>
        while(__HAL_RCC_GET_FLAG(RCC_FLAG_HSERDY) == RESET)
 800116a:	4b5b      	ldr	r3, [pc, #364]	; (80012d8 <HAL_RCC_OscConfig+0x240>)
 800116c:	681b      	ldr	r3, [r3, #0]
 800116e:	f403 3300 	and.w	r3, r3, #131072	; 0x20000
 8001172:	2b00      	cmp	r3, #0
 8001174:	d0f0      	beq.n	8001158 <HAL_RCC_OscConfig+0xc0>
 8001176:	e014      	b.n	80011a2 <HAL_RCC_OscConfig+0x10a>
        }
      }
      else
      {
        /* Get Start Tick */
        tickstart = HAL_GetTick();
 8001178:	f7ff fc8a 	bl	8000a90 <HAL_GetTick>
 800117c:	6138      	str	r0, [r7, #16]

        /* Wait till HSE is bypassed or disabled */
        while(__HAL_RCC_GET_FLAG(RCC_FLAG_HSERDY) != RESET)
 800117e:	e008      	b.n	8001192 <HAL_RCC_OscConfig+0xfa>
        {
          if((HAL_GetTick() - tickstart ) > HSE_TIMEOUT_VALUE)
 8001180:	f7ff fc86 	bl	8000a90 <HAL_GetTick>
 8001184:	4602      	mov	r2, r0
 8001186:	693b      	ldr	r3, [r7, #16]
 8001188:	1ad3      	subs	r3, r2, r3
 800118a:	2b64      	cmp	r3, #100	; 0x64
 800118c:	d901      	bls.n	8001192 <HAL_RCC_OscConfig+0xfa>
          {
            return HAL_TIMEOUT;
 800118e:	2303      	movs	r3, #3
 8001190:	e1f3      	b.n	800157a <HAL_RCC_OscConfig+0x4e2>
        while(__HAL_RCC_GET_FLAG(RCC_FLAG_HSERDY) != RESET)
 8001192:	4b51      	ldr	r3, [pc, #324]	; (80012d8 <HAL_RCC_OscConfig+0x240>)
 8001194:	681b      	ldr	r3, [r3, #0]
 8001196:	f403 3300 	and.w	r3, r3, #131072	; 0x20000
 800119a:	2b00      	cmp	r3, #0
 800119c:	d1f0      	bne.n	8001180 <HAL_RCC_OscConfig+0xe8>
 800119e:	e000      	b.n	80011a2 <HAL_RCC_OscConfig+0x10a>
      if((__HAL_RCC_GET_FLAG(RCC_FLAG_HSERDY) != RESET) && (RCC_OscInitStruct->HSEState == RCC_HSE_OFF))
 80011a0:	bf00      	nop
        }
      }
    }
  }
  /*----------------------------- HSI Configuration --------------------------*/
  if(((RCC_OscInitStruct->OscillatorType) & RCC_OSCILLATORTYPE_HSI) == RCC_OSCILLATORTYPE_HSI)
 80011a2:	687b      	ldr	r3, [r7, #4]
 80011a4:	681b      	ldr	r3, [r3, #0]
 80011a6:	f003 0302 	and.w	r3, r3, #2
 80011aa:	2b00      	cmp	r3, #0
 80011ac:	d063      	beq.n	8001276 <HAL_RCC_OscConfig+0x1de>
    /* Check the parameters */
    assert_param(IS_RCC_HSI(RCC_OscInitStruct->HSIState));
    assert_param(IS_RCC_CALIBRATION_VALUE(RCC_OscInitStruct->HSICalibrationValue));

    /* Check if HSI is used as system clock or as PLL source when PLL is selected as system clock */
    if((__HAL_RCC_GET_SYSCLK_SOURCE() == RCC_CFGR_SWS_HSI) ||\
 80011ae:	4b4a      	ldr	r3, [pc, #296]	; (80012d8 <HAL_RCC_OscConfig+0x240>)
 80011b0:	689b      	ldr	r3, [r3, #8]
 80011b2:	f003 030c 	and.w	r3, r3, #12
 80011b6:	2b00      	cmp	r3, #0
 80011b8:	d00b      	beq.n	80011d2 <HAL_RCC_OscConfig+0x13a>
      ((__HAL_RCC_GET_SYSCLK_SOURCE() == RCC_CFGR_SWS_PLL) && ((RCC->PLLCFGR & RCC_PLLCFGR_PLLSRC) == RCC_PLLCFGR_PLLSRC_HSI)))
 80011ba:	4b47      	ldr	r3, [pc, #284]	; (80012d8 <HAL_RCC_OscConfig+0x240>)
 80011bc:	689b      	ldr	r3, [r3, #8]
 80011be:	f003 030c 	and.w	r3, r3, #12
    if((__HAL_RCC_GET_SYSCLK_SOURCE() == RCC_CFGR_SWS_HSI) ||\
 80011c2:	2b08      	cmp	r3, #8
 80011c4:	d11c      	bne.n	8001200 <HAL_RCC_OscConfig+0x168>
      ((__HAL_RCC_GET_SYSCLK_SOURCE() == RCC_CFGR_SWS_PLL) && ((RCC->PLLCFGR & RCC_PLLCFGR_PLLSRC) == RCC_PLLCFGR_PLLSRC_HSI)))
 80011c6:	4b44      	ldr	r3, [pc, #272]	; (80012d8 <HAL_RCC_OscConfig+0x240>)
 80011c8:	685b      	ldr	r3, [r3, #4]
 80011ca:	f403 0380 	and.w	r3, r3, #4194304	; 0x400000
 80011ce:	2b00      	cmp	r3, #0
 80011d0:	d116      	bne.n	8001200 <HAL_RCC_OscConfig+0x168>
    {
      /* When HSI is used as system clock it will not disabled */
      if((__HAL_RCC_GET_FLAG(RCC_FLAG_HSIRDY) != RESET) && (RCC_OscInitStruct->HSIState != RCC_HSI_ON))
 80011d2:	4b41      	ldr	r3, [pc, #260]	; (80012d8 <HAL_RCC_OscConfig+0x240>)
 80011d4:	681b      	ldr	r3, [r3, #0]
 80011d6:	f003 0302 	and.w	r3, r3, #2
 80011da:	2b00      	cmp	r3, #0
 80011dc:	d005      	beq.n	80011ea <HAL_RCC_OscConfig+0x152>
 80011de:	687b      	ldr	r3, [r7, #4]
 80011e0:	68db      	ldr	r3, [r3, #12]
 80011e2:	2b01      	cmp	r3, #1
 80011e4:	d001      	beq.n	80011ea <HAL_RCC_OscConfig+0x152>
      {
        return HAL_ERROR;
 80011e6:	2301      	movs	r3, #1
 80011e8:	e1c7      	b.n	800157a <HAL_RCC_OscConfig+0x4e2>
      }
      /* Otherwise, just the calibration is allowed */
      else
      {
        /* Adjusts the Internal High Speed oscillator (HSI) calibration value.*/
        __HAL_RCC_HSI_CALIBRATIONVALUE_ADJUST(RCC_OscInitStruct->HSICalibrationValue);
 80011ea:	4b3b      	ldr	r3, [pc, #236]	; (80012d8 <HAL_RCC_OscConfig+0x240>)
 80011ec:	681b      	ldr	r3, [r3, #0]
 80011ee:	f023 02f8 	bic.w	r2, r3, #248	; 0xf8
 80011f2:	687b      	ldr	r3, [r7, #4]
 80011f4:	691b      	ldr	r3, [r3, #16]
 80011f6:	00db      	lsls	r3, r3, #3
 80011f8:	4937      	ldr	r1, [pc, #220]	; (80012d8 <HAL_RCC_OscConfig+0x240>)
 80011fa:	4313      	orrs	r3, r2
 80011fc:	600b      	str	r3, [r1, #0]
      if((__HAL_RCC_GET_FLAG(RCC_FLAG_HSIRDY) != RESET) && (RCC_OscInitStruct->HSIState != RCC_HSI_ON))
 80011fe:	e03a      	b.n	8001276 <HAL_RCC_OscConfig+0x1de>
      }
    }
    else
    {
      /* Check the HSI State */
      if((RCC_OscInitStruct->HSIState)!= RCC_HSI_OFF)
 8001200:	687b      	ldr	r3, [r7, #4]
 8001202:	68db      	ldr	r3, [r3, #12]
 8001204:	2b00      	cmp	r3, #0
 8001206:	d020      	beq.n	800124a <HAL_RCC_OscConfig+0x1b2>
      {
        /* Enable the Internal High Speed oscillator (HSI). */
        __HAL_RCC_HSI_ENABLE();
 8001208:	4b34      	ldr	r3, [pc, #208]	; (80012dc <HAL_RCC_OscConfig+0x244>)
 800120a:	2201      	movs	r2, #1
 800120c:	601a      	str	r2, [r3, #0]

        /* Get Start Tick*/
        tickstart = HAL_GetTick();
 800120e:	f7ff fc3f 	bl	8000a90 <HAL_GetTick>
 8001212:	6138      	str	r0, [r7, #16]

        /* Wait till HSI is ready */
        while(__HAL_RCC_GET_FLAG(RCC_FLAG_HSIRDY) == RESET)
 8001214:	e008      	b.n	8001228 <HAL_RCC_OscConfig+0x190>
        {
          if((HAL_GetTick() - tickstart ) > HSI_TIMEOUT_VALUE)
 8001216:	f7ff fc3b 	bl	8000a90 <HAL_GetTick>
 800121a:	4602      	mov	r2, r0
 800121c:	693b      	ldr	r3, [r7, #16]
 800121e:	1ad3      	subs	r3, r2, r3
 8001220:	2b02      	cmp	r3, #2
 8001222:	d901      	bls.n	8001228 <HAL_RCC_OscConfig+0x190>
          {
            return HAL_TIMEOUT;
 8001224:	2303      	movs	r3, #3
 8001226:	e1a8      	b.n	800157a <HAL_RCC_OscConfig+0x4e2>
        while(__HAL_RCC_GET_FLAG(RCC_FLAG_HSIRDY) == RESET)
 8001228:	4b2b      	ldr	r3, [pc, #172]	; (80012d8 <HAL_RCC_OscConfig+0x240>)
 800122a:	681b      	ldr	r3, [r3, #0]
 800122c:	f003 0302 	and.w	r3, r3, #2
 8001230:	2b00      	cmp	r3, #0
 8001232:	d0f0      	beq.n	8001216 <HAL_RCC_OscConfig+0x17e>
          }
        }

        /* Adjusts the Internal High Speed oscillator (HSI) calibration value. */
        __HAL_RCC_HSI_CALIBRATIONVALUE_ADJUST(RCC_OscInitStruct->HSICalibrationValue);
 8001234:	4b28      	ldr	r3, [pc, #160]	; (80012d8 <HAL_RCC_OscConfig+0x240>)
 8001236:	681b      	ldr	r3, [r3, #0]
 8001238:	f023 02f8 	bic.w	r2, r3, #248	; 0xf8
 800123c:	687b      	ldr	r3, [r7, #4]
 800123e:	691b      	ldr	r3, [r3, #16]
 8001240:	00db      	lsls	r3, r3, #3
 8001242:	4925      	ldr	r1, [pc, #148]	; (80012d8 <HAL_RCC_OscConfig+0x240>)
 8001244:	4313      	orrs	r3, r2
 8001246:	600b      	str	r3, [r1, #0]
 8001248:	e015      	b.n	8001276 <HAL_RCC_OscConfig+0x1de>
      }
      else
      {
        /* Disable the Internal High Speed oscillator (HSI). */
        __HAL_RCC_HSI_DISABLE();
 800124a:	4b24      	ldr	r3, [pc, #144]	; (80012dc <HAL_RCC_OscConfig+0x244>)
 800124c:	2200      	movs	r2, #0
 800124e:	601a      	str	r2, [r3, #0]

        /* Get Start Tick*/
        tickstart = HAL_GetTick();
 8001250:	f7ff fc1e 	bl	8000a90 <HAL_GetTick>
 8001254:	6138      	str	r0, [r7, #16]

        /* Wait till HSI is ready */
        while(__HAL_RCC_GET_FLAG(RCC_FLAG_HSIRDY) != RESET)
 8001256:	e008      	b.n	800126a <HAL_RCC_OscConfig+0x1d2>
        {
          if((HAL_GetTick() - tickstart ) > HSI_TIMEOUT_VALUE)
 8001258:	f7ff fc1a 	bl	8000a90 <HAL_GetTick>
 800125c:	4602      	mov	r2, r0
 800125e:	693b      	ldr	r3, [r7, #16]
 8001260:	1ad3      	subs	r3, r2, r3
 8001262:	2b02      	cmp	r3, #2
 8001264:	d901      	bls.n	800126a <HAL_RCC_OscConfig+0x1d2>
          {
            return HAL_TIMEOUT;
 8001266:	2303      	movs	r3, #3
 8001268:	e187      	b.n	800157a <HAL_RCC_OscConfig+0x4e2>
        while(__HAL_RCC_GET_FLAG(RCC_FLAG_HSIRDY) != RESET)
 800126a:	4b1b      	ldr	r3, [pc, #108]	; (80012d8 <HAL_RCC_OscConfig+0x240>)
 800126c:	681b      	ldr	r3, [r3, #0]
 800126e:	f003 0302 	and.w	r3, r3, #2
 8001272:	2b00      	cmp	r3, #0
 8001274:	d1f0      	bne.n	8001258 <HAL_RCC_OscConfig+0x1c0>
        }
      }
    }
  }
  /*------------------------------ LSI Configuration -------------------------*/
  if(((RCC_OscInitStruct->OscillatorType) & RCC_OSCILLATORTYPE_LSI) == RCC_OSCILLATORTYPE_LSI)
 8001276:	687b      	ldr	r3, [r7, #4]
 8001278:	681b      	ldr	r3, [r3, #0]
 800127a:	f003 0308 	and.w	r3, r3, #8
 800127e:	2b00      	cmp	r3, #0
 8001280:	d036      	beq.n	80012f0 <HAL_RCC_OscConfig+0x258>
  {
    /* Check the parameters */
    assert_param(IS_RCC_LSI(RCC_OscInitStruct->LSIState));

    /* Check the LSI State */
    if((RCC_OscInitStruct->LSIState)!= RCC_LSI_OFF)
 8001282:	687b      	ldr	r3, [r7, #4]
 8001284:	695b      	ldr	r3, [r3, #20]
 8001286:	2b00      	cmp	r3, #0
 8001288:	d016      	beq.n	80012b8 <HAL_RCC_OscConfig+0x220>
    {
      /* Enable the Internal Low Speed oscillator (LSI). */
      __HAL_RCC_LSI_ENABLE();
 800128a:	4b15      	ldr	r3, [pc, #84]	; (80012e0 <HAL_RCC_OscConfig+0x248>)
 800128c:	2201      	movs	r2, #1
 800128e:	601a      	str	r2, [r3, #0]

      /* Get Start Tick*/
      tickstart = HAL_GetTick();
 8001290:	f7ff fbfe 	bl	8000a90 <HAL_GetTick>
 8001294:	6138      	str	r0, [r7, #16]

      /* Wait till LSI is ready */
      while(__HAL_RCC_GET_FLAG(RCC_FLAG_LSIRDY) == RESET)
 8001296:	e008      	b.n	80012aa <HAL_RCC_OscConfig+0x212>
      {
        if((HAL_GetTick() - tickstart ) > LSI_TIMEOUT_VALUE)
 8001298:	f7ff fbfa 	bl	8000a90 <HAL_GetTick>
 800129c:	4602      	mov	r2, r0
 800129e:	693b      	ldr	r3, [r7, #16]
 80012a0:	1ad3      	subs	r3, r2, r3
 80012a2:	2b02      	cmp	r3, #2
 80012a4:	d901      	bls.n	80012aa <HAL_RCC_OscConfig+0x212>
        {
          return HAL_TIMEOUT;
 80012a6:	2303      	movs	r3, #3
 80012a8:	e167      	b.n	800157a <HAL_RCC_OscConfig+0x4e2>
      while(__HAL_RCC_GET_FLAG(RCC_FLAG_LSIRDY) == RESET)
 80012aa:	4b0b      	ldr	r3, [pc, #44]	; (80012d8 <HAL_RCC_OscConfig+0x240>)
 80012ac:	6f5b      	ldr	r3, [r3, #116]	; 0x74
 80012ae:	f003 0302 	and.w	r3, r3, #2
 80012b2:	2b00      	cmp	r3, #0
 80012b4:	d0f0      	beq.n	8001298 <HAL_RCC_OscConfig+0x200>
 80012b6:	e01b      	b.n	80012f0 <HAL_RCC_OscConfig+0x258>
      }
    }
    else
    {
      /* Disable the Internal Low Speed oscillator (LSI). */
      __HAL_RCC_LSI_DISABLE();
 80012b8:	4b09      	ldr	r3, [pc, #36]	; (80012e0 <HAL_RCC_OscConfig+0x248>)
 80012ba:	2200      	movs	r2, #0
 80012bc:	601a      	str	r2, [r3, #0]

      /* Get Start Tick */
      tickstart = HAL_GetTick();
 80012be:	f7ff fbe7 	bl	8000a90 <HAL_GetTick>
 80012c2:	6138      	str	r0, [r7, #16]

      /* Wait till LSI is ready */
      while(__HAL_RCC_GET_FLAG(RCC_FLAG_LSIRDY) != RESET)
 80012c4:	e00e      	b.n	80012e4 <HAL_RCC_OscConfig+0x24c>
      {
        if((HAL_GetTick() - tickstart ) > LSI_TIMEOUT_VALUE)
 80012c6:	f7ff fbe3 	bl	8000a90 <HAL_GetTick>
 80012ca:	4602      	mov	r2, r0
 80012cc:	693b      	ldr	r3, [r7, #16]
 80012ce:	1ad3      	subs	r3, r2, r3
 80012d0:	2b02      	cmp	r3, #2
 80012d2:	d907      	bls.n	80012e4 <HAL_RCC_OscConfig+0x24c>
        {
          return HAL_TIMEOUT;
 80012d4:	2303      	movs	r3, #3
 80012d6:	e150      	b.n	800157a <HAL_RCC_OscConfig+0x4e2>
 80012d8:	40023800 	.word	0x40023800
 80012dc:	42470000 	.word	0x42470000
 80012e0:	42470e80 	.word	0x42470e80
      while(__HAL_RCC_GET_FLAG(RCC_FLAG_LSIRDY) != RESET)
 80012e4:	4b88      	ldr	r3, [pc, #544]	; (8001508 <HAL_RCC_OscConfig+0x470>)
 80012e6:	6f5b      	ldr	r3, [r3, #116]	; 0x74
 80012e8:	f003 0302 	and.w	r3, r3, #2
 80012ec:	2b00      	cmp	r3, #0
 80012ee:	d1ea      	bne.n	80012c6 <HAL_RCC_OscConfig+0x22e>
        }
      }
    }
  }
  /*------------------------------ LSE Configuration -------------------------*/
  if(((RCC_OscInitStruct->OscillatorType) & RCC_OSCILLATORTYPE_LSE) == RCC_OSCILLATORTYPE_LSE)
 80012f0:	687b      	ldr	r3, [r7, #4]
 80012f2:	681b      	ldr	r3, [r3, #0]
 80012f4:	f003 0304 	and.w	r3, r3, #4
 80012f8:	2b00      	cmp	r3, #0
 80012fa:	f000 8097 	beq.w	800142c <HAL_RCC_OscConfig+0x394>
  {
    FlagStatus       pwrclkchanged = RESET;
 80012fe:	2300      	movs	r3, #0
 8001300:	75fb      	strb	r3, [r7, #23]
    /* Check the parameters */
    assert_param(IS_RCC_LSE(RCC_OscInitStruct->LSEState));

    /* Update LSE configuration in Backup Domain control register    */
    /* Requires to enable write access to Backup Domain of necessary */
    if(__HAL_RCC_PWR_IS_CLK_DISABLED())
 8001302:	4b81      	ldr	r3, [pc, #516]	; (8001508 <HAL_RCC_OscConfig+0x470>)
 8001304:	6c1b      	ldr	r3, [r3, #64]	; 0x40
 8001306:	f003 5380 	and.w	r3, r3, #268435456	; 0x10000000
 800130a:	2b00      	cmp	r3, #0
 800130c:	d10f      	bne.n	800132e <HAL_RCC_OscConfig+0x296>
    {
      __HAL_RCC_PWR_CLK_ENABLE();
 800130e:	2300      	movs	r3, #0
 8001310:	60bb      	str	r3, [r7, #8]
 8001312:	4b7d      	ldr	r3, [pc, #500]	; (8001508 <HAL_RCC_OscConfig+0x470>)
 8001314:	6c1b      	ldr	r3, [r3, #64]	; 0x40
 8001316:	4a7c      	ldr	r2, [pc, #496]	; (8001508 <HAL_RCC_OscConfig+0x470>)
 8001318:	f043 5380 	orr.w	r3, r3, #268435456	; 0x10000000
 800131c:	6413      	str	r3, [r2, #64]	; 0x40
 800131e:	4b7a      	ldr	r3, [pc, #488]	; (8001508 <HAL_RCC_OscConfig+0x470>)
 8001320:	6c1b      	ldr	r3, [r3, #64]	; 0x40
 8001322:	f003 5380 	and.w	r3, r3, #268435456	; 0x10000000
 8001326:	60bb      	str	r3, [r7, #8]
 8001328:	68bb      	ldr	r3, [r7, #8]
      pwrclkchanged = SET;
 800132a:	2301      	movs	r3, #1
 800132c:	75fb      	strb	r3, [r7, #23]
    }

    if(HAL_IS_BIT_CLR(PWR->CR, PWR_CR_DBP))
 800132e:	4b77      	ldr	r3, [pc, #476]	; (800150c <HAL_RCC_OscConfig+0x474>)
 8001330:	681b      	ldr	r3, [r3, #0]
 8001332:	f403 7380 	and.w	r3, r3, #256	; 0x100
 8001336:	2b00      	cmp	r3, #0
 8001338:	d118      	bne.n	800136c <HAL_RCC_OscConfig+0x2d4>
    {
      /* Enable write access to Backup domain */
      SET_BIT(PWR->CR, PWR_CR_DBP);
 800133a:	4b74      	ldr	r3, [pc, #464]	; (800150c <HAL_RCC_OscConfig+0x474>)
 800133c:	681b      	ldr	r3, [r3, #0]
 800133e:	4a73      	ldr	r2, [pc, #460]	; (800150c <HAL_RCC_OscConfig+0x474>)
 8001340:	f443 7380 	orr.w	r3, r3, #256	; 0x100
 8001344:	6013      	str	r3, [r2, #0]

      /* Wait for Backup domain Write protection disable */
      tickstart = HAL_GetTick();
 8001346:	f7ff fba3 	bl	8000a90 <HAL_GetTick>
 800134a:	6138      	str	r0, [r7, #16]

      while(HAL_IS_BIT_CLR(PWR->CR, PWR_CR_DBP))
 800134c:	e008      	b.n	8001360 <HAL_RCC_OscConfig+0x2c8>
      {
        if((HAL_GetTick() - tickstart) > RCC_DBP_TIMEOUT_VALUE)
 800134e:	f7ff fb9f 	bl	8000a90 <HAL_GetTick>
 8001352:	4602      	mov	r2, r0
 8001354:	693b      	ldr	r3, [r7, #16]
 8001356:	1ad3      	subs	r3, r2, r3
 8001358:	2b02      	cmp	r3, #2
 800135a:	d901      	bls.n	8001360 <HAL_RCC_OscConfig+0x2c8>
        {
          return HAL_TIMEOUT;
 800135c:	2303      	movs	r3, #3
 800135e:	e10c      	b.n	800157a <HAL_RCC_OscConfig+0x4e2>
      while(HAL_IS_BIT_CLR(PWR->CR, PWR_CR_DBP))
 8001360:	4b6a      	ldr	r3, [pc, #424]	; (800150c <HAL_RCC_OscConfig+0x474>)
 8001362:	681b      	ldr	r3, [r3, #0]
 8001364:	f403 7380 	and.w	r3, r3, #256	; 0x100
 8001368:	2b00      	cmp	r3, #0
 800136a:	d0f0      	beq.n	800134e <HAL_RCC_OscConfig+0x2b6>
        }
      }
    }

    /* Set the new LSE configuration -----------------------------------------*/
    __HAL_RCC_LSE_CONFIG(RCC_OscInitStruct->LSEState);
 800136c:	687b      	ldr	r3, [r7, #4]
 800136e:	689b      	ldr	r3, [r3, #8]
 8001370:	2b01      	cmp	r3, #1
 8001372:	d106      	bne.n	8001382 <HAL_RCC_OscConfig+0x2ea>
 8001374:	4b64      	ldr	r3, [pc, #400]	; (8001508 <HAL_RCC_OscConfig+0x470>)
 8001376:	6f1b      	ldr	r3, [r3, #112]	; 0x70
 8001378:	4a63      	ldr	r2, [pc, #396]	; (8001508 <HAL_RCC_OscConfig+0x470>)
 800137a:	f043 0301 	orr.w	r3, r3, #1
 800137e:	6713      	str	r3, [r2, #112]	; 0x70
 8001380:	e01c      	b.n	80013bc <HAL_RCC_OscConfig+0x324>
 8001382:	687b      	ldr	r3, [r7, #4]
 8001384:	689b      	ldr	r3, [r3, #8]
 8001386:	2b05      	cmp	r3, #5
 8001388:	d10c      	bne.n	80013a4 <HAL_RCC_OscConfig+0x30c>
 800138a:	4b5f      	ldr	r3, [pc, #380]	; (8001508 <HAL_RCC_OscConfig+0x470>)
 800138c:	6f1b      	ldr	r3, [r3, #112]	; 0x70
 800138e:	4a5e      	ldr	r2, [pc, #376]	; (8001508 <HAL_RCC_OscConfig+0x470>)
 8001390:	f043 0304 	orr.w	r3, r3, #4
 8001394:	6713      	str	r3, [r2, #112]	; 0x70
 8001396:	4b5c      	ldr	r3, [pc, #368]	; (8001508 <HAL_RCC_OscConfig+0x470>)
 8001398:	6f1b      	ldr	r3, [r3, #112]	; 0x70
 800139a:	4a5b      	ldr	r2, [pc, #364]	; (8001508 <HAL_RCC_OscConfig+0x470>)
 800139c:	f043 0301 	orr.w	r3, r3, #1
 80013a0:	6713      	str	r3, [r2, #112]	; 0x70
 80013a2:	e00b      	b.n	80013bc <HAL_RCC_OscConfig+0x324>
 80013a4:	4b58      	ldr	r3, [pc, #352]	; (8001508 <HAL_RCC_OscConfig+0x470>)
 80013a6:	6f1b      	ldr	r3, [r3, #112]	; 0x70
 80013a8:	4a57      	ldr	r2, [pc, #348]	; (8001508 <HAL_RCC_OscConfig+0x470>)
 80013aa:	f023 0301 	bic.w	r3, r3, #1
 80013ae:	6713      	str	r3, [r2, #112]	; 0x70
 80013b0:	4b55      	ldr	r3, [pc, #340]	; (8001508 <HAL_RCC_OscConfig+0x470>)
 80013b2:	6f1b      	ldr	r3, [r3, #112]	; 0x70
 80013b4:	4a54      	ldr	r2, [pc, #336]	; (8001508 <HAL_RCC_OscConfig+0x470>)
 80013b6:	f023 0304 	bic.w	r3, r3, #4
 80013ba:	6713      	str	r3, [r2, #112]	; 0x70
    /* Check the LSE State */
    if((RCC_OscInitStruct->LSEState) != RCC_LSE_OFF)
 80013bc:	687b      	ldr	r3, [r7, #4]
 80013be:	689b      	ldr	r3, [r3, #8]
 80013c0:	2b00      	cmp	r3, #0
 80013c2:	d015      	beq.n	80013f0 <HAL_RCC_OscConfig+0x358>
    {
      /* Get Start Tick*/
      tickstart = HAL_GetTick();
 80013c4:	f7ff fb64 	bl	8000a90 <HAL_GetTick>
 80013c8:	6138      	str	r0, [r7, #16]

      /* Wait till LSE is ready */
      while(__HAL_RCC_GET_FLAG(RCC_FLAG_LSERDY) == RESET)
 80013ca:	e00a      	b.n	80013e2 <HAL_RCC_OscConfig+0x34a>
      {
        if((HAL_GetTick() - tickstart ) > RCC_LSE_TIMEOUT_VALUE)
 80013cc:	f7ff fb60 	bl	8000a90 <HAL_GetTick>
 80013d0:	4602      	mov	r2, r0
 80013d2:	693b      	ldr	r3, [r7, #16]
 80013d4:	1ad3      	subs	r3, r2, r3
 80013d6:	f241 3288 	movw	r2, #5000	; 0x1388
 80013da:	4293      	cmp	r3, r2
 80013dc:	d901      	bls.n	80013e2 <HAL_RCC_OscConfig+0x34a>
        {
          return HAL_TIMEOUT;
 80013de:	2303      	movs	r3, #3
 80013e0:	e0cb      	b.n	800157a <HAL_RCC_OscConfig+0x4e2>
      while(__HAL_RCC_GET_FLAG(RCC_FLAG_LSERDY) == RESET)
 80013e2:	4b49      	ldr	r3, [pc, #292]	; (8001508 <HAL_RCC_OscConfig+0x470>)
 80013e4:	6f1b      	ldr	r3, [r3, #112]	; 0x70
 80013e6:	f003 0302 	and.w	r3, r3, #2
 80013ea:	2b00      	cmp	r3, #0
 80013ec:	d0ee      	beq.n	80013cc <HAL_RCC_OscConfig+0x334>
 80013ee:	e014      	b.n	800141a <HAL_RCC_OscConfig+0x382>
      }
    }
    else
    {
      /* Get Start Tick */
      tickstart = HAL_GetTick();
 80013f0:	f7ff fb4e 	bl	8000a90 <HAL_GetTick>
 80013f4:	6138      	str	r0, [r7, #16]

      /* Wait till LSE is ready */
      while(__HAL_RCC_GET_FLAG(RCC_FLAG_LSERDY) != RESET)
 80013f6:	e00a      	b.n	800140e <HAL_RCC_OscConfig+0x376>
      {
        if((HAL_GetTick() - tickstart ) > RCC_LSE_TIMEOUT_VALUE)
 80013f8:	f7ff fb4a 	bl	8000a90 <HAL_GetTick>
 80013fc:	4602      	mov	r2, r0
 80013fe:	693b      	ldr	r3, [r7, #16]
 8001400:	1ad3      	subs	r3, r2, r3
 8001402:	f241 3288 	movw	r2, #5000	; 0x1388
 8001406:	4293      	cmp	r3, r2
 8001408:	d901      	bls.n	800140e <HAL_RCC_OscConfig+0x376>
        {
          return HAL_TIMEOUT;
 800140a:	2303      	movs	r3, #3
 800140c:	e0b5      	b.n	800157a <HAL_RCC_OscConfig+0x4e2>
      while(__HAL_RCC_GET_FLAG(RCC_FLAG_LSERDY) != RESET)
 800140e:	4b3e      	ldr	r3, [pc, #248]	; (8001508 <HAL_RCC_OscConfig+0x470>)
 8001410:	6f1b      	ldr	r3, [r3, #112]	; 0x70
 8001412:	f003 0302 	and.w	r3, r3, #2
 8001416:	2b00      	cmp	r3, #0
 8001418:	d1ee      	bne.n	80013f8 <HAL_RCC_OscConfig+0x360>
        }
      }
    }

    /* Restore clock configuration if changed */
    if(pwrclkchanged == SET)
 800141a:	7dfb      	ldrb	r3, [r7, #23]
 800141c:	2b01      	cmp	r3, #1
 800141e:	d105      	bne.n	800142c <HAL_RCC_OscConfig+0x394>
    {
      __HAL_RCC_PWR_CLK_DISABLE();
 8001420:	4b39      	ldr	r3, [pc, #228]	; (8001508 <HAL_RCC_OscConfig+0x470>)
 8001422:	6c1b      	ldr	r3, [r3, #64]	; 0x40
 8001424:	4a38      	ldr	r2, [pc, #224]	; (8001508 <HAL_RCC_OscConfig+0x470>)
 8001426:	f023 5380 	bic.w	r3, r3, #268435456	; 0x10000000
 800142a:	6413      	str	r3, [r2, #64]	; 0x40
    }
  }
  /*-------------------------------- PLL Configuration -----------------------*/
  /* Check the parameters */
  assert_param(IS_RCC_PLL(RCC_OscInitStruct->PLL.PLLState));
  if ((RCC_OscInitStruct->PLL.PLLState) != RCC_PLL_NONE)
 800142c:	687b      	ldr	r3, [r7, #4]
 800142e:	699b      	ldr	r3, [r3, #24]
 8001430:	2b00      	cmp	r3, #0
 8001432:	f000 80a1 	beq.w	8001578 <HAL_RCC_OscConfig+0x4e0>
  {
    /* Check if the PLL is used as system clock or not */
    if(__HAL_RCC_GET_SYSCLK_SOURCE() != RCC_CFGR_SWS_PLL)
 8001436:	4b34      	ldr	r3, [pc, #208]	; (8001508 <HAL_RCC_OscConfig+0x470>)
 8001438:	689b      	ldr	r3, [r3, #8]
 800143a:	f003 030c 	and.w	r3, r3, #12
 800143e:	2b08      	cmp	r3, #8
 8001440:	d05c      	beq.n	80014fc <HAL_RCC_OscConfig+0x464>
    {
      if((RCC_OscInitStruct->PLL.PLLState) == RCC_PLL_ON)
 8001442:	687b      	ldr	r3, [r7, #4]
 8001444:	699b      	ldr	r3, [r3, #24]
 8001446:	2b02      	cmp	r3, #2
 8001448:	d141      	bne.n	80014ce <HAL_RCC_OscConfig+0x436>
        assert_param(IS_RCC_PLLN_VALUE(RCC_OscInitStruct->PLL.PLLN));
        assert_param(IS_RCC_PLLP_VALUE(RCC_OscInitStruct->PLL.PLLP));
        assert_param(IS_RCC_PLLQ_VALUE(RCC_OscInitStruct->PLL.PLLQ));

        /* Disable the main PLL. */
        __HAL_RCC_PLL_DISABLE();
 800144a:	4b31      	ldr	r3, [pc, #196]	; (8001510 <HAL_RCC_OscConfig+0x478>)
 800144c:	2200      	movs	r2, #0
 800144e:	601a      	str	r2, [r3, #0]

        /* Get Start Tick */
        tickstart = HAL_GetTick();
 8001450:	f7ff fb1e 	bl	8000a90 <HAL_GetTick>
 8001454:	6138      	str	r0, [r7, #16]

        /* Wait till PLL is ready */
        while(__HAL_RCC_GET_FLAG(RCC_FLAG_PLLRDY) != RESET)
 8001456:	e008      	b.n	800146a <HAL_RCC_OscConfig+0x3d2>
        {
          if((HAL_GetTick() - tickstart ) > PLL_TIMEOUT_VALUE)
 8001458:	f7ff fb1a 	bl	8000a90 <HAL_GetTick>
 800145c:	4602      	mov	r2, r0
 800145e:	693b      	ldr	r3, [r7, #16]
 8001460:	1ad3      	subs	r3, r2, r3
 8001462:	2b02      	cmp	r3, #2
 8001464:	d901      	bls.n	800146a <HAL_RCC_OscConfig+0x3d2>
          {
            return HAL_TIMEOUT;
 8001466:	2303      	movs	r3, #3
 8001468:	e087      	b.n	800157a <HAL_RCC_OscConfig+0x4e2>
        while(__HAL_RCC_GET_FLAG(RCC_FLAG_PLLRDY) != RESET)
 800146a:	4b27      	ldr	r3, [pc, #156]	; (8001508 <HAL_RCC_OscConfig+0x470>)
 800146c:	681b      	ldr	r3, [r3, #0]
 800146e:	f003 7300 	and.w	r3, r3, #33554432	; 0x2000000
 8001472:	2b00      	cmp	r3, #0
 8001474:	d1f0      	bne.n	8001458 <HAL_RCC_OscConfig+0x3c0>
          }
        }

        /* Configure the main PLL clock source, multiplication and division factors. */
        WRITE_REG(RCC->PLLCFGR, (RCC_OscInitStruct->PLL.PLLSource                                            | \
 8001476:	687b      	ldr	r3, [r7, #4]
 8001478:	69da      	ldr	r2, [r3, #28]
 800147a:	687b      	ldr	r3, [r7, #4]
 800147c:	6a1b      	ldr	r3, [r3, #32]
 800147e:	431a      	orrs	r2, r3
 8001480:	687b      	ldr	r3, [r7, #4]
 8001482:	6a5b      	ldr	r3, [r3, #36]	; 0x24
 8001484:	019b      	lsls	r3, r3, #6
 8001486:	431a      	orrs	r2, r3
 8001488:	687b      	ldr	r3, [r7, #4]
 800148a:	6a9b      	ldr	r3, [r3, #40]	; 0x28
 800148c:	085b      	lsrs	r3, r3, #1
 800148e:	3b01      	subs	r3, #1
 8001490:	041b      	lsls	r3, r3, #16
 8001492:	431a      	orrs	r2, r3
 8001494:	687b      	ldr	r3, [r7, #4]
 8001496:	6adb      	ldr	r3, [r3, #44]	; 0x2c
 8001498:	061b      	lsls	r3, r3, #24
 800149a:	491b      	ldr	r1, [pc, #108]	; (8001508 <HAL_RCC_OscConfig+0x470>)
 800149c:	4313      	orrs	r3, r2
 800149e:	604b      	str	r3, [r1, #4]
                                 RCC_OscInitStruct->PLL.PLLM                                                 | \
                                 (RCC_OscInitStruct->PLL.PLLN << RCC_PLLCFGR_PLLN_Pos)             | \
                                 (((RCC_OscInitStruct->PLL.PLLP >> 1U) - 1U) << RCC_PLLCFGR_PLLP_Pos) | \
                                 (RCC_OscInitStruct->PLL.PLLQ << RCC_PLLCFGR_PLLQ_Pos)));
        /* Enable the main PLL. */
        __HAL_RCC_PLL_ENABLE();
 80014a0:	4b1b      	ldr	r3, [pc, #108]	; (8001510 <HAL_RCC_OscConfig+0x478>)
 80014a2:	2201      	movs	r2, #1
 80014a4:	601a      	str	r2, [r3, #0]

        /* Get Start Tick */
        tickstart = HAL_GetTick();
 80014a6:	f7ff faf3 	bl	8000a90 <HAL_GetTick>
 80014aa:	6138      	str	r0, [r7, #16]

        /* Wait till PLL is ready */
        while(__HAL_RCC_GET_FLAG(RCC_FLAG_PLLRDY) == RESET)
 80014ac:	e008      	b.n	80014c0 <HAL_RCC_OscConfig+0x428>
        {
          if((HAL_GetTick() - tickstart ) > PLL_TIMEOUT_VALUE)
 80014ae:	f7ff faef 	bl	8000a90 <HAL_GetTick>
 80014b2:	4602      	mov	r2, r0
 80014b4:	693b      	ldr	r3, [r7, #16]
 80014b6:	1ad3      	subs	r3, r2, r3
 80014b8:	2b02      	cmp	r3, #2
 80014ba:	d901      	bls.n	80014c0 <HAL_RCC_OscConfig+0x428>
          {
            return HAL_TIMEOUT;
 80014bc:	2303      	movs	r3, #3
 80014be:	e05c      	b.n	800157a <HAL_RCC_OscConfig+0x4e2>
        while(__HAL_RCC_GET_FLAG(RCC_FLAG_PLLRDY) == RESET)
 80014c0:	4b11      	ldr	r3, [pc, #68]	; (8001508 <HAL_RCC_OscConfig+0x470>)
 80014c2:	681b      	ldr	r3, [r3, #0]
 80014c4:	f003 7300 	and.w	r3, r3, #33554432	; 0x2000000
 80014c8:	2b00      	cmp	r3, #0
 80014ca:	d0f0      	beq.n	80014ae <HAL_RCC_OscConfig+0x416>
 80014cc:	e054      	b.n	8001578 <HAL_RCC_OscConfig+0x4e0>
        }
      }
      else
      {
        /* Disable the main PLL. */
        __HAL_RCC_PLL_DISABLE();
 80014ce:	4b10      	ldr	r3, [pc, #64]	; (8001510 <HAL_RCC_OscConfig+0x478>)
 80014d0:	2200      	movs	r2, #0
 80014d2:	601a      	str	r2, [r3, #0]

        /* Get Start Tick */
        tickstart = HAL_GetTick();
 80014d4:	f7ff fadc 	bl	8000a90 <HAL_GetTick>
 80014d8:	6138      	str	r0, [r7, #16]

        /* Wait till PLL is ready */
        while(__HAL_RCC_GET_FLAG(RCC_FLAG_PLLRDY) != RESET)
 80014da:	e008      	b.n	80014ee <HAL_RCC_OscConfig+0x456>
        {
          if((HAL_GetTick() - tickstart ) > PLL_TIMEOUT_VALUE)
 80014dc:	f7ff fad8 	bl	8000a90 <HAL_GetTick>
 80014e0:	4602      	mov	r2, r0
 80014e2:	693b      	ldr	r3, [r7, #16]
 80014e4:	1ad3      	subs	r3, r2, r3
 80014e6:	2b02      	cmp	r3, #2
 80014e8:	d901      	bls.n	80014ee <HAL_RCC_OscConfig+0x456>
          {
            return HAL_TIMEOUT;
 80014ea:	2303      	movs	r3, #3
 80014ec:	e045      	b.n	800157a <HAL_RCC_OscConfig+0x4e2>
        while(__HAL_RCC_GET_FLAG(RCC_FLAG_PLLRDY) != RESET)
 80014ee:	4b06      	ldr	r3, [pc, #24]	; (8001508 <HAL_RCC_OscConfig+0x470>)
 80014f0:	681b      	ldr	r3, [r3, #0]
 80014f2:	f003 7300 	and.w	r3, r3, #33554432	; 0x2000000
 80014f6:	2b00      	cmp	r3, #0
 80014f8:	d1f0      	bne.n	80014dc <HAL_RCC_OscConfig+0x444>
 80014fa:	e03d      	b.n	8001578 <HAL_RCC_OscConfig+0x4e0>
      }
    }
    else
    {
      /* Check if there is a request to disable the PLL used as System clock source */
      if((RCC_OscInitStruct->PLL.PLLState) == RCC_PLL_OFF)
 80014fc:	687b      	ldr	r3, [r7, #4]
 80014fe:	699b      	ldr	r3, [r3, #24]
 8001500:	2b01      	cmp	r3, #1
 8001502:	d107      	bne.n	8001514 <HAL_RCC_OscConfig+0x47c>
      {
        return HAL_ERROR;
 8001504:	2301      	movs	r3, #1
 8001506:	e038      	b.n	800157a <HAL_RCC_OscConfig+0x4e2>
 8001508:	40023800 	.word	0x40023800
 800150c:	40007000 	.word	0x40007000
 8001510:	42470060 	.word	0x42470060
      }
      else
      {
        /* Do not return HAL_ERROR if request repeats the current configuration */
        pll_config = RCC->PLLCFGR;
 8001514:	4b1b      	ldr	r3, [pc, #108]	; (8001584 <HAL_RCC_OscConfig+0x4ec>)
 8001516:	685b      	ldr	r3, [r3, #4]
 8001518:	60fb      	str	r3, [r7, #12]
            (READ_BIT(pll_config, RCC_PLLCFGR_PLLN) != (RCC_OscInitStruct->PLL.PLLN) << RCC_PLLCFGR_PLLN_Pos) ||
            (READ_BIT(pll_config, RCC_PLLCFGR_PLLP) != (((RCC_OscInitStruct->PLL.PLLP >> 1U) - 1U)) << RCC_PLLCFGR_PLLP_Pos) ||
            (READ_BIT(pll_config, RCC_PLLCFGR_PLLQ) != (RCC_OscInitStruct->PLL.PLLQ << RCC_PLLCFGR_PLLQ_Pos)) ||
            (READ_BIT(pll_config, RCC_PLLCFGR_PLLR) != (RCC_OscInitStruct->PLL.PLLR << RCC_PLLCFGR_PLLR_Pos)))
#else
        if (((RCC_OscInitStruct->PLL.PLLState) == RCC_PLL_OFF) ||
 800151a:	687b      	ldr	r3, [r7, #4]
 800151c:	699b      	ldr	r3, [r3, #24]
 800151e:	2b01      	cmp	r3, #1
 8001520:	d028      	beq.n	8001574 <HAL_RCC_OscConfig+0x4dc>
            (READ_BIT(pll_config, RCC_PLLCFGR_PLLSRC) != RCC_OscInitStruct->PLL.PLLSource) ||
 8001522:	68fb      	ldr	r3, [r7, #12]
 8001524:	f403 0280 	and.w	r2, r3, #4194304	; 0x400000
 8001528:	687b      	ldr	r3, [r7, #4]
 800152a:	69db      	ldr	r3, [r3, #28]
        if (((RCC_OscInitStruct->PLL.PLLState) == RCC_PLL_OFF) ||
 800152c:	429a      	cmp	r2, r3
 800152e:	d121      	bne.n	8001574 <HAL_RCC_OscConfig+0x4dc>
            (READ_BIT(pll_config, RCC_PLLCFGR_PLLM) != (RCC_OscInitStruct->PLL.PLLM) << RCC_PLLCFGR_PLLM_Pos) ||
 8001530:	68fb      	ldr	r3, [r7, #12]
 8001532:	f003 023f 	and.w	r2, r3, #63	; 0x3f
 8001536:	687b      	ldr	r3, [r7, #4]
 8001538:	6a1b      	ldr	r3, [r3, #32]
            (READ_BIT(pll_config, RCC_PLLCFGR_PLLSRC) != RCC_OscInitStruct->PLL.PLLSource) ||
 800153a:	429a      	cmp	r2, r3
 800153c:	d11a      	bne.n	8001574 <HAL_RCC_OscConfig+0x4dc>
            (READ_BIT(pll_config, RCC_PLLCFGR_PLLN) != (RCC_OscInitStruct->PLL.PLLN) << RCC_PLLCFGR_PLLN_Pos) ||
 800153e:	68fa      	ldr	r2, [r7, #12]
 8001540:	f647 73c0 	movw	r3, #32704	; 0x7fc0
 8001544:	4013      	ands	r3, r2
 8001546:	687a      	ldr	r2, [r7, #4]
 8001548:	6a52      	ldr	r2, [r2, #36]	; 0x24
 800154a:	0192      	lsls	r2, r2, #6
            (READ_BIT(pll_config, RCC_PLLCFGR_PLLM) != (RCC_OscInitStruct->PLL.PLLM) << RCC_PLLCFGR_PLLM_Pos) ||
 800154c:	4293      	cmp	r3, r2
 800154e:	d111      	bne.n	8001574 <HAL_RCC_OscConfig+0x4dc>
            (READ_BIT(pll_config, RCC_PLLCFGR_PLLP) != (((RCC_OscInitStruct->PLL.PLLP >> 1U) - 1U)) << RCC_PLLCFGR_PLLP_Pos) ||
 8001550:	68fb      	ldr	r3, [r7, #12]
 8001552:	f403 3240 	and.w	r2, r3, #196608	; 0x30000
 8001556:	687b      	ldr	r3, [r7, #4]
 8001558:	6a9b      	ldr	r3, [r3, #40]	; 0x28
 800155a:	085b      	lsrs	r3, r3, #1
 800155c:	3b01      	subs	r3, #1
 800155e:	041b      	lsls	r3, r3, #16
            (READ_BIT(pll_config, RCC_PLLCFGR_PLLN) != (RCC_OscInitStruct->PLL.PLLN) << RCC_PLLCFGR_PLLN_Pos) ||
 8001560:	429a      	cmp	r2, r3
 8001562:	d107      	bne.n	8001574 <HAL_RCC_OscConfig+0x4dc>
            (READ_BIT(pll_config, RCC_PLLCFGR_PLLQ) != (RCC_OscInitStruct->PLL.PLLQ << RCC_PLLCFGR_PLLQ_Pos)))
 8001564:	68fb      	ldr	r3, [r7, #12]
 8001566:	f003 6270 	and.w	r2, r3, #251658240	; 0xf000000
 800156a:	687b      	ldr	r3, [r7, #4]
 800156c:	6adb      	ldr	r3, [r3, #44]	; 0x2c
 800156e:	061b      	lsls	r3, r3, #24
            (READ_BIT(pll_config, RCC_PLLCFGR_PLLP) != (((RCC_OscInitStruct->PLL.PLLP >> 1U) - 1U)) << RCC_PLLCFGR_PLLP_Pos) ||
 8001570:	429a      	cmp	r2, r3
 8001572:	d001      	beq.n	8001578 <HAL_RCC_OscConfig+0x4e0>
#endif
        {
          return HAL_ERROR;
 8001574:	2301      	movs	r3, #1
 8001576:	e000      	b.n	800157a <HAL_RCC_OscConfig+0x4e2>
        }
      }
    }
  }
  return HAL_OK;
 8001578:	2300      	movs	r3, #0
}
 800157a:	4618      	mov	r0, r3
 800157c:	3718      	adds	r7, #24
 800157e:	46bd      	mov	sp, r7
 8001580:	bd80      	pop	{r7, pc}
 8001582:	bf00      	nop
 8001584:	40023800 	.word	0x40023800

08001588 <HAL_RCC_ClockConfig>:
  *         HPRE[3:0] bits to ensure that HCLK not exceed the maximum allowed frequency
  *         (for more details refer to section above "Initialization/de-initialization functions")
  * @retval None
  */
HAL_StatusTypeDef HAL_RCC_ClockConfig(RCC_ClkInitTypeDef  *RCC_ClkInitStruct, uint32_t FLatency)
{
 8001588:	b580      	push	{r7, lr}
 800158a:	b084      	sub	sp, #16
 800158c:	af00      	add	r7, sp, #0
 800158e:	6078      	str	r0, [r7, #4]
 8001590:	6039      	str	r1, [r7, #0]
  uint32_t tickstart;

  /* Check Null pointer */
  if(RCC_ClkInitStruct == NULL)
 8001592:	687b      	ldr	r3, [r7, #4]
 8001594:	2b00      	cmp	r3, #0
 8001596:	d101      	bne.n	800159c <HAL_RCC_ClockConfig+0x14>
  {
    return HAL_ERROR;
 8001598:	2301      	movs	r3, #1
 800159a:	e0cc      	b.n	8001736 <HAL_RCC_ClockConfig+0x1ae>
  /* To correctly read data from FLASH memory, the number of wait states (LATENCY)
    must be correctly programmed according to the frequency of the CPU clock
    (HCLK) and the supply voltage of the device. */

  /* Increasing the number of wait states because of higher CPU frequency */
  if(FLatency > __HAL_FLASH_GET_LATENCY())
 800159c:	4b68      	ldr	r3, [pc, #416]	; (8001740 <HAL_RCC_ClockConfig+0x1b8>)
 800159e:	681b      	ldr	r3, [r3, #0]
 80015a0:	f003 0307 	and.w	r3, r3, #7
 80015a4:	683a      	ldr	r2, [r7, #0]
 80015a6:	429a      	cmp	r2, r3
 80015a8:	d90c      	bls.n	80015c4 <HAL_RCC_ClockConfig+0x3c>
  {
    /* Program the new number of wait states to the LATENCY bits in the FLASH_ACR register */
    __HAL_FLASH_SET_LATENCY(FLatency);
 80015aa:	4b65      	ldr	r3, [pc, #404]	; (8001740 <HAL_RCC_ClockConfig+0x1b8>)
 80015ac:	683a      	ldr	r2, [r7, #0]
 80015ae:	b2d2      	uxtb	r2, r2
 80015b0:	701a      	strb	r2, [r3, #0]

    /* Check that the new number of wait states is taken into account to access the Flash
    memory by reading the FLASH_ACR register */
    if(__HAL_FLASH_GET_LATENCY() != FLatency)
 80015b2:	4b63      	ldr	r3, [pc, #396]	; (8001740 <HAL_RCC_ClockConfig+0x1b8>)
 80015b4:	681b      	ldr	r3, [r3, #0]
 80015b6:	f003 0307 	and.w	r3, r3, #7
 80015ba:	683a      	ldr	r2, [r7, #0]
 80015bc:	429a      	cmp	r2, r3
 80015be:	d001      	beq.n	80015c4 <HAL_RCC_ClockConfig+0x3c>
    {
      return HAL_ERROR;
 80015c0:	2301      	movs	r3, #1
 80015c2:	e0b8      	b.n	8001736 <HAL_RCC_ClockConfig+0x1ae>
    }
  }

  /*-------------------------- HCLK Configuration --------------------------*/
  if(((RCC_ClkInitStruct->ClockType) & RCC_CLOCKTYPE_HCLK) == RCC_CLOCKTYPE_HCLK)
 80015c4:	687b      	ldr	r3, [r7, #4]
 80015c6:	681b      	ldr	r3, [r3, #0]
 80015c8:	f003 0302 	and.w	r3, r3, #2
 80015cc:	2b00      	cmp	r3, #0
 80015ce:	d020      	beq.n	8001612 <HAL_RCC_ClockConfig+0x8a>
  {
    /* Set the highest APBx dividers in order to ensure that we do not go through
       a non-spec phase whatever we decrease or increase HCLK. */
    if(((RCC_ClkInitStruct->ClockType) & RCC_CLOCKTYPE_PCLK1) == RCC_CLOCKTYPE_PCLK1)
 80015d0:	687b      	ldr	r3, [r7, #4]
 80015d2:	681b      	ldr	r3, [r3, #0]
 80015d4:	f003 0304 	and.w	r3, r3, #4
 80015d8:	2b00      	cmp	r3, #0
 80015da:	d005      	beq.n	80015e8 <HAL_RCC_ClockConfig+0x60>
    {
      MODIFY_REG(RCC->CFGR, RCC_CFGR_PPRE1, RCC_HCLK_DIV16);
 80015dc:	4b59      	ldr	r3, [pc, #356]	; (8001744 <HAL_RCC_ClockConfig+0x1bc>)
 80015de:	689b      	ldr	r3, [r3, #8]
 80015e0:	4a58      	ldr	r2, [pc, #352]	; (8001744 <HAL_RCC_ClockConfig+0x1bc>)
 80015e2:	f443 53e0 	orr.w	r3, r3, #7168	; 0x1c00
 80015e6:	6093      	str	r3, [r2, #8]
    }

    if(((RCC_ClkInitStruct->ClockType) & RCC_CLOCKTYPE_PCLK2) == RCC_CLOCKTYPE_PCLK2)
 80015e8:	687b      	ldr	r3, [r7, #4]
 80015ea:	681b      	ldr	r3, [r3, #0]
 80015ec:	f003 0308 	and.w	r3, r3, #8
 80015f0:	2b00      	cmp	r3, #0
 80015f2:	d005      	beq.n	8001600 <HAL_RCC_ClockConfig+0x78>
    {
      MODIFY_REG(RCC->CFGR, RCC_CFGR_PPRE2, (RCC_HCLK_DIV16 << 3));
 80015f4:	4b53      	ldr	r3, [pc, #332]	; (8001744 <HAL_RCC_ClockConfig+0x1bc>)
 80015f6:	689b      	ldr	r3, [r3, #8]
 80015f8:	4a52      	ldr	r2, [pc, #328]	; (8001744 <HAL_RCC_ClockConfig+0x1bc>)
 80015fa:	f443 4360 	orr.w	r3, r3, #57344	; 0xe000
 80015fe:	6093      	str	r3, [r2, #8]
    }

    assert_param(IS_RCC_HCLK(RCC_ClkInitStruct->AHBCLKDivider));
    MODIFY_REG(RCC->CFGR, RCC_CFGR_HPRE, RCC_ClkInitStruct->AHBCLKDivider);
 8001600:	4b50      	ldr	r3, [pc, #320]	; (8001744 <HAL_RCC_ClockConfig+0x1bc>)
 8001602:	689b      	ldr	r3, [r3, #8]
 8001604:	f023 02f0 	bic.w	r2, r3, #240	; 0xf0
 8001608:	687b      	ldr	r3, [r7, #4]
 800160a:	689b      	ldr	r3, [r3, #8]
 800160c:	494d      	ldr	r1, [pc, #308]	; (8001744 <HAL_RCC_ClockConfig+0x1bc>)
 800160e:	4313      	orrs	r3, r2
 8001610:	608b      	str	r3, [r1, #8]
  }

  /*------------------------- SYSCLK Configuration ---------------------------*/
  if(((RCC_ClkInitStruct->ClockType) & RCC_CLOCKTYPE_SYSCLK) == RCC_CLOCKTYPE_SYSCLK)
 8001612:	687b      	ldr	r3, [r7, #4]
 8001614:	681b      	ldr	r3, [r3, #0]
 8001616:	f003 0301 	and.w	r3, r3, #1
 800161a:	2b00      	cmp	r3, #0
 800161c:	d044      	beq.n	80016a8 <HAL_RCC_ClockConfig+0x120>
  {
    assert_param(IS_RCC_SYSCLKSOURCE(RCC_ClkInitStruct->SYSCLKSource));

    /* HSE is selected as System Clock Source */
    if(RCC_ClkInitStruct->SYSCLKSource == RCC_SYSCLKSOURCE_HSE)
 800161e:	687b      	ldr	r3, [r7, #4]
 8001620:	685b      	ldr	r3, [r3, #4]
 8001622:	2b01      	cmp	r3, #1
 8001624:	d107      	bne.n	8001636 <HAL_RCC_ClockConfig+0xae>
    {
      /* Check the HSE ready flag */
      if(__HAL_RCC_GET_FLAG(RCC_FLAG_HSERDY) == RESET)
 8001626:	4b47      	ldr	r3, [pc, #284]	; (8001744 <HAL_RCC_ClockConfig+0x1bc>)
 8001628:	681b      	ldr	r3, [r3, #0]
 800162a:	f403 3300 	and.w	r3, r3, #131072	; 0x20000
 800162e:	2b00      	cmp	r3, #0
 8001630:	d119      	bne.n	8001666 <HAL_RCC_ClockConfig+0xde>
      {
        return HAL_ERROR;
 8001632:	2301      	movs	r3, #1
 8001634:	e07f      	b.n	8001736 <HAL_RCC_ClockConfig+0x1ae>
      }
    }
    /* PLL is selected as System Clock Source */
    else if((RCC_ClkInitStruct->SYSCLKSource == RCC_SYSCLKSOURCE_PLLCLK)   ||
 8001636:	687b      	ldr	r3, [r7, #4]
 8001638:	685b      	ldr	r3, [r3, #4]
 800163a:	2b02      	cmp	r3, #2
 800163c:	d003      	beq.n	8001646 <HAL_RCC_ClockConfig+0xbe>
            (RCC_ClkInitStruct->SYSCLKSource == RCC_SYSCLKSOURCE_PLLRCLK))
 800163e:	687b      	ldr	r3, [r7, #4]
 8001640:	685b      	ldr	r3, [r3, #4]
    else if((RCC_ClkInitStruct->SYSCLKSource == RCC_SYSCLKSOURCE_PLLCLK)   ||
 8001642:	2b03      	cmp	r3, #3
 8001644:	d107      	bne.n	8001656 <HAL_RCC_ClockConfig+0xce>
    {
      /* Check the PLL ready flag */
      if(__HAL_RCC_GET_FLAG(RCC_FLAG_PLLRDY) == RESET)
 8001646:	4b3f      	ldr	r3, [pc, #252]	; (8001744 <HAL_RCC_ClockConfig+0x1bc>)
 8001648:	681b      	ldr	r3, [r3, #0]
 800164a:	f003 7300 	and.w	r3, r3, #33554432	; 0x2000000
 800164e:	2b00      	cmp	r3, #0
 8001650:	d109      	bne.n	8001666 <HAL_RCC_ClockConfig+0xde>
      {
        return HAL_ERROR;
 8001652:	2301      	movs	r3, #1
 8001654:	e06f      	b.n	8001736 <HAL_RCC_ClockConfig+0x1ae>
    }
    /* HSI is selected as System Clock Source */
    else
    {
      /* Check the HSI ready flag */
      if(__HAL_RCC_GET_FLAG(RCC_FLAG_HSIRDY) == RESET)
 8001656:	4b3b      	ldr	r3, [pc, #236]	; (8001744 <HAL_RCC_ClockConfig+0x1bc>)
 8001658:	681b      	ldr	r3, [r3, #0]
 800165a:	f003 0302 	and.w	r3, r3, #2
 800165e:	2b00      	cmp	r3, #0
 8001660:	d101      	bne.n	8001666 <HAL_RCC_ClockConfig+0xde>
      {
        return HAL_ERROR;
 8001662:	2301      	movs	r3, #1
 8001664:	e067      	b.n	8001736 <HAL_RCC_ClockConfig+0x1ae>
      }
    }

    __HAL_RCC_SYSCLK_CONFIG(RCC_ClkInitStruct->SYSCLKSource);
 8001666:	4b37      	ldr	r3, [pc, #220]	; (8001744 <HAL_RCC_ClockConfig+0x1bc>)
 8001668:	689b      	ldr	r3, [r3, #8]
 800166a:	f023 0203 	bic.w	r2, r3, #3
 800166e:	687b      	ldr	r3, [r7, #4]
 8001670:	685b      	ldr	r3, [r3, #4]
 8001672:	4934      	ldr	r1, [pc, #208]	; (8001744 <HAL_RCC_ClockConfig+0x1bc>)
 8001674:	4313      	orrs	r3, r2
 8001676:	608b      	str	r3, [r1, #8]

    /* Get Start Tick */
    tickstart = HAL_GetTick();
 8001678:	f7ff fa0a 	bl	8000a90 <HAL_GetTick>
 800167c:	60f8      	str	r0, [r7, #12]

    while (__HAL_RCC_GET_SYSCLK_SOURCE() != (RCC_ClkInitStruct->SYSCLKSource << RCC_CFGR_SWS_Pos))
 800167e:	e00a      	b.n	8001696 <HAL_RCC_ClockConfig+0x10e>
    {
      if ((HAL_GetTick() - tickstart) > CLOCKSWITCH_TIMEOUT_VALUE)
 8001680:	f7ff fa06 	bl	8000a90 <HAL_GetTick>
 8001684:	4602      	mov	r2, r0
 8001686:	68fb      	ldr	r3, [r7, #12]
 8001688:	1ad3      	subs	r3, r2, r3
 800168a:	f241 3288 	movw	r2, #5000	; 0x1388
 800168e:	4293      	cmp	r3, r2
 8001690:	d901      	bls.n	8001696 <HAL_RCC_ClockConfig+0x10e>
      {
        return HAL_TIMEOUT;
 8001692:	2303      	movs	r3, #3
 8001694:	e04f      	b.n	8001736 <HAL_RCC_ClockConfig+0x1ae>
    while (__HAL_RCC_GET_SYSCLK_SOURCE() != (RCC_ClkInitStruct->SYSCLKSource << RCC_CFGR_SWS_Pos))
 8001696:	4b2b      	ldr	r3, [pc, #172]	; (8001744 <HAL_RCC_ClockConfig+0x1bc>)
 8001698:	689b      	ldr	r3, [r3, #8]
 800169a:	f003 020c 	and.w	r2, r3, #12
 800169e:	687b      	ldr	r3, [r7, #4]
 80016a0:	685b      	ldr	r3, [r3, #4]
 80016a2:	009b      	lsls	r3, r3, #2
 80016a4:	429a      	cmp	r2, r3
 80016a6:	d1eb      	bne.n	8001680 <HAL_RCC_ClockConfig+0xf8>
      }
    }
  }

  /* Decreasing the number of wait states because of lower CPU frequency */
  if(FLatency < __HAL_FLASH_GET_LATENCY())
 80016a8:	4b25      	ldr	r3, [pc, #148]	; (8001740 <HAL_RCC_ClockConfig+0x1b8>)
 80016aa:	681b      	ldr	r3, [r3, #0]
 80016ac:	f003 0307 	and.w	r3, r3, #7
 80016b0:	683a      	ldr	r2, [r7, #0]
 80016b2:	429a      	cmp	r2, r3
 80016b4:	d20c      	bcs.n	80016d0 <HAL_RCC_ClockConfig+0x148>
  {
     /* Program the new number of wait states to the LATENCY bits in the FLASH_ACR register */
    __HAL_FLASH_SET_LATENCY(FLatency);
 80016b6:	4b22      	ldr	r3, [pc, #136]	; (8001740 <HAL_RCC_ClockConfig+0x1b8>)
 80016b8:	683a      	ldr	r2, [r7, #0]
 80016ba:	b2d2      	uxtb	r2, r2
 80016bc:	701a      	strb	r2, [r3, #0]

    /* Check that the new number of wait states is taken into account to access the Flash
    memory by reading the FLASH_ACR register */
    if(__HAL_FLASH_GET_LATENCY() != FLatency)
 80016be:	4b20      	ldr	r3, [pc, #128]	; (8001740 <HAL_RCC_ClockConfig+0x1b8>)
 80016c0:	681b      	ldr	r3, [r3, #0]
 80016c2:	f003 0307 	and.w	r3, r3, #7
 80016c6:	683a      	ldr	r2, [r7, #0]
 80016c8:	429a      	cmp	r2, r3
 80016ca:	d001      	beq.n	80016d0 <HAL_RCC_ClockConfig+0x148>
    {
      return HAL_ERROR;
 80016cc:	2301      	movs	r3, #1
 80016ce:	e032      	b.n	8001736 <HAL_RCC_ClockConfig+0x1ae>
    }
  }

  /*-------------------------- PCLK1 Configuration ---------------------------*/
  if(((RCC_ClkInitStruct->ClockType) & RCC_CLOCKTYPE_PCLK1) == RCC_CLOCKTYPE_PCLK1)
 80016d0:	687b      	ldr	r3, [r7, #4]
 80016d2:	681b      	ldr	r3, [r3, #0]
 80016d4:	f003 0304 	and.w	r3, r3, #4
 80016d8:	2b00      	cmp	r3, #0
 80016da:	d008      	beq.n	80016ee <HAL_RCC_ClockConfig+0x166>
  {
    assert_param(IS_RCC_PCLK(RCC_ClkInitStruct->APB1CLKDivider));
    MODIFY_REG(RCC->CFGR, RCC_CFGR_PPRE1, RCC_ClkInitStruct->APB1CLKDivider);
 80016dc:	4b19      	ldr	r3, [pc, #100]	; (8001744 <HAL_RCC_ClockConfig+0x1bc>)
 80016de:	689b      	ldr	r3, [r3, #8]
 80016e0:	f423 52e0 	bic.w	r2, r3, #7168	; 0x1c00
 80016e4:	687b      	ldr	r3, [r7, #4]
 80016e6:	68db      	ldr	r3, [r3, #12]
 80016e8:	4916      	ldr	r1, [pc, #88]	; (8001744 <HAL_RCC_ClockConfig+0x1bc>)
 80016ea:	4313      	orrs	r3, r2
 80016ec:	608b      	str	r3, [r1, #8]
  }

  /*-------------------------- PCLK2 Configuration ---------------------------*/
  if(((RCC_ClkInitStruct->ClockType) & RCC_CLOCKTYPE_PCLK2) == RCC_CLOCKTYPE_PCLK2)
 80016ee:	687b      	ldr	r3, [r7, #4]
 80016f0:	681b      	ldr	r3, [r3, #0]
 80016f2:	f003 0308 	and.w	r3, r3, #8
 80016f6:	2b00      	cmp	r3, #0
 80016f8:	d009      	beq.n	800170e <HAL_RCC_ClockConfig+0x186>
  {
    assert_param(IS_RCC_PCLK(RCC_ClkInitStruct->APB2CLKDivider));
    MODIFY_REG(RCC->CFGR, RCC_CFGR_PPRE2, ((RCC_ClkInitStruct->APB2CLKDivider) << 3U));
 80016fa:	4b12      	ldr	r3, [pc, #72]	; (8001744 <HAL_RCC_ClockConfig+0x1bc>)
 80016fc:	689b      	ldr	r3, [r3, #8]
 80016fe:	f423 4260 	bic.w	r2, r3, #57344	; 0xe000
 8001702:	687b      	ldr	r3, [r7, #4]
 8001704:	691b      	ldr	r3, [r3, #16]
 8001706:	00db      	lsls	r3, r3, #3
 8001708:	490e      	ldr	r1, [pc, #56]	; (8001744 <HAL_RCC_ClockConfig+0x1bc>)
 800170a:	4313      	orrs	r3, r2
 800170c:	608b      	str	r3, [r1, #8]
  }

  /* Update the SystemCoreClock global variable */
  SystemCoreClock = HAL_RCC_GetSysClockFreq() >> AHBPrescTable[(RCC->CFGR & RCC_CFGR_HPRE)>> RCC_CFGR_HPRE_Pos];
 800170e:	f000 f821 	bl	8001754 <HAL_RCC_GetSysClockFreq>
 8001712:	4602      	mov	r2, r0
 8001714:	4b0b      	ldr	r3, [pc, #44]	; (8001744 <HAL_RCC_ClockConfig+0x1bc>)
 8001716:	689b      	ldr	r3, [r3, #8]
 8001718:	091b      	lsrs	r3, r3, #4
 800171a:	f003 030f 	and.w	r3, r3, #15
 800171e:	490a      	ldr	r1, [pc, #40]	; (8001748 <HAL_RCC_ClockConfig+0x1c0>)
 8001720:	5ccb      	ldrb	r3, [r1, r3]
 8001722:	fa22 f303 	lsr.w	r3, r2, r3
 8001726:	4a09      	ldr	r2, [pc, #36]	; (800174c <HAL_RCC_ClockConfig+0x1c4>)
 8001728:	6013      	str	r3, [r2, #0]

  /* Configure the source of time base considering new system clocks settings */
  HAL_InitTick (uwTickPrio);
 800172a:	4b09      	ldr	r3, [pc, #36]	; (8001750 <HAL_RCC_ClockConfig+0x1c8>)
 800172c:	681b      	ldr	r3, [r3, #0]
 800172e:	4618      	mov	r0, r3
 8001730:	f7ff f96a 	bl	8000a08 <HAL_InitTick>

  return HAL_OK;
 8001734:	2300      	movs	r3, #0
}
 8001736:	4618      	mov	r0, r3
 8001738:	3710      	adds	r7, #16
 800173a:	46bd      	mov	sp, r7
 800173c:	bd80      	pop	{r7, pc}
 800173e:	bf00      	nop
 8001740:	40023c00 	.word	0x40023c00
 8001744:	40023800 	.word	0x40023800
 8001748:	08001950 	.word	0x08001950
 800174c:	20000004 	.word	0x20000004
 8001750:	20000008 	.word	0x20000008

08001754 <HAL_RCC_GetSysClockFreq>:
  *
  *
  * @retval SYSCLK frequency
  */
__weak uint32_t HAL_RCC_GetSysClockFreq(void)
{
 8001754:	e92d 4fb0 	stmdb	sp!, {r4, r5, r7, r8, r9, sl, fp, lr}
 8001758:	b090      	sub	sp, #64	; 0x40
 800175a:	af00      	add	r7, sp, #0
  uint32_t pllm = 0U, pllvco = 0U, pllp = 0U;
 800175c:	2300      	movs	r3, #0
 800175e:	637b      	str	r3, [r7, #52]	; 0x34
 8001760:	2300      	movs	r3, #0
 8001762:	63fb      	str	r3, [r7, #60]	; 0x3c
 8001764:	2300      	movs	r3, #0
 8001766:	633b      	str	r3, [r7, #48]	; 0x30
  uint32_t sysclockfreq = 0U;
 8001768:	2300      	movs	r3, #0
 800176a:	63bb      	str	r3, [r7, #56]	; 0x38

  /* Get SYSCLK source -------------------------------------------------------*/
  switch (RCC->CFGR & RCC_CFGR_SWS)
 800176c:	4b59      	ldr	r3, [pc, #356]	; (80018d4 <HAL_RCC_GetSysClockFreq+0x180>)
 800176e:	689b      	ldr	r3, [r3, #8]
 8001770:	f003 030c 	and.w	r3, r3, #12
 8001774:	2b08      	cmp	r3, #8
 8001776:	d00d      	beq.n	8001794 <HAL_RCC_GetSysClockFreq+0x40>
 8001778:	2b08      	cmp	r3, #8
 800177a:	f200 80a1 	bhi.w	80018c0 <HAL_RCC_GetSysClockFreq+0x16c>
 800177e:	2b00      	cmp	r3, #0
 8001780:	d002      	beq.n	8001788 <HAL_RCC_GetSysClockFreq+0x34>
 8001782:	2b04      	cmp	r3, #4
 8001784:	d003      	beq.n	800178e <HAL_RCC_GetSysClockFreq+0x3a>
 8001786:	e09b      	b.n	80018c0 <HAL_RCC_GetSysClockFreq+0x16c>
  {
    case RCC_CFGR_SWS_HSI:  /* HSI used as system clock source */
    {
      sysclockfreq = HSI_VALUE;
 8001788:	4b53      	ldr	r3, [pc, #332]	; (80018d8 <HAL_RCC_GetSysClockFreq+0x184>)
 800178a:	63bb      	str	r3, [r7, #56]	; 0x38
       break;
 800178c:	e09b      	b.n	80018c6 <HAL_RCC_GetSysClockFreq+0x172>
    }
    case RCC_CFGR_SWS_HSE:  /* HSE used as system clock  source */
    {
      sysclockfreq = HSE_VALUE;
 800178e:	4b53      	ldr	r3, [pc, #332]	; (80018dc <HAL_RCC_GetSysClockFreq+0x188>)
 8001790:	63bb      	str	r3, [r7, #56]	; 0x38
      break;
 8001792:	e098      	b.n	80018c6 <HAL_RCC_GetSysClockFreq+0x172>
    }
    case RCC_CFGR_SWS_PLL:  /* PLL used as system clock  source */
    {
      /* PLL_VCO = (HSE_VALUE or HSI_VALUE / PLLM) * PLLN
      SYSCLK = PLL_VCO / PLLP */
      pllm = RCC->PLLCFGR & RCC_PLLCFGR_PLLM;
 8001794:	4b4f      	ldr	r3, [pc, #316]	; (80018d4 <HAL_RCC_GetSysClockFreq+0x180>)
 8001796:	685b      	ldr	r3, [r3, #4]
 8001798:	f003 033f 	and.w	r3, r3, #63	; 0x3f
 800179c:	637b      	str	r3, [r7, #52]	; 0x34
      if(__HAL_RCC_GET_PLL_OSCSOURCE() != RCC_PLLSOURCE_HSI)
 800179e:	4b4d      	ldr	r3, [pc, #308]	; (80018d4 <HAL_RCC_GetSysClockFreq+0x180>)
 80017a0:	685b      	ldr	r3, [r3, #4]
 80017a2:	f403 0380 	and.w	r3, r3, #4194304	; 0x400000
 80017a6:	2b00      	cmp	r3, #0
 80017a8:	d028      	beq.n	80017fc <HAL_RCC_GetSysClockFreq+0xa8>
      {
        /* HSE used as PLL clock source */
        pllvco = (uint32_t) ((((uint64_t) HSE_VALUE * ((uint64_t) ((RCC->PLLCFGR & RCC_PLLCFGR_PLLN) >> RCC_PLLCFGR_PLLN_Pos)))) / (uint64_t)pllm);
 80017aa:	4b4a      	ldr	r3, [pc, #296]	; (80018d4 <HAL_RCC_GetSysClockFreq+0x180>)
 80017ac:	685b      	ldr	r3, [r3, #4]
 80017ae:	099b      	lsrs	r3, r3, #6
 80017b0:	2200      	movs	r2, #0
 80017b2:	623b      	str	r3, [r7, #32]
 80017b4:	627a      	str	r2, [r7, #36]	; 0x24
 80017b6:	6a3b      	ldr	r3, [r7, #32]
 80017b8:	f3c3 0008 	ubfx	r0, r3, #0, #9
 80017bc:	2100      	movs	r1, #0
 80017be:	4b47      	ldr	r3, [pc, #284]	; (80018dc <HAL_RCC_GetSysClockFreq+0x188>)
 80017c0:	fb03 f201 	mul.w	r2, r3, r1
 80017c4:	2300      	movs	r3, #0
 80017c6:	fb00 f303 	mul.w	r3, r0, r3
 80017ca:	4413      	add	r3, r2
 80017cc:	4a43      	ldr	r2, [pc, #268]	; (80018dc <HAL_RCC_GetSysClockFreq+0x188>)
 80017ce:	fba0 1202 	umull	r1, r2, r0, r2
 80017d2:	62fa      	str	r2, [r7, #44]	; 0x2c
 80017d4:	460a      	mov	r2, r1
 80017d6:	62ba      	str	r2, [r7, #40]	; 0x28
 80017d8:	6afa      	ldr	r2, [r7, #44]	; 0x2c
 80017da:	4413      	add	r3, r2
 80017dc:	62fb      	str	r3, [r7, #44]	; 0x2c
 80017de:	6b7b      	ldr	r3, [r7, #52]	; 0x34
 80017e0:	2200      	movs	r2, #0
 80017e2:	61bb      	str	r3, [r7, #24]
 80017e4:	61fa      	str	r2, [r7, #28]
 80017e6:	e9d7 2306 	ldrd	r2, r3, [r7, #24]
 80017ea:	e9d7 010a 	ldrd	r0, r1, [r7, #40]	; 0x28
 80017ee:	f7fe fceb 	bl	80001c8 <__aeabi_uldivmod>
 80017f2:	4602      	mov	r2, r0
 80017f4:	460b      	mov	r3, r1
 80017f6:	4613      	mov	r3, r2
 80017f8:	63fb      	str	r3, [r7, #60]	; 0x3c
 80017fa:	e053      	b.n	80018a4 <HAL_RCC_GetSysClockFreq+0x150>
      }
      else
      {
        /* HSI used as PLL clock source */
        pllvco = (uint32_t) ((((uint64_t) HSI_VALUE * ((uint64_t) ((RCC->PLLCFGR & RCC_PLLCFGR_PLLN) >> RCC_PLLCFGR_PLLN_Pos)))) / (uint64_t)pllm);
 80017fc:	4b35      	ldr	r3, [pc, #212]	; (80018d4 <HAL_RCC_GetSysClockFreq+0x180>)
 80017fe:	685b      	ldr	r3, [r3, #4]
 8001800:	099b      	lsrs	r3, r3, #6
 8001802:	2200      	movs	r2, #0
 8001804:	613b      	str	r3, [r7, #16]
 8001806:	617a      	str	r2, [r7, #20]
 8001808:	693b      	ldr	r3, [r7, #16]
 800180a:	f3c3 0a08 	ubfx	sl, r3, #0, #9
 800180e:	f04f 0b00 	mov.w	fp, #0
 8001812:	4652      	mov	r2, sl
 8001814:	465b      	mov	r3, fp
 8001816:	f04f 0000 	mov.w	r0, #0
 800181a:	f04f 0100 	mov.w	r1, #0
 800181e:	0159      	lsls	r1, r3, #5
 8001820:	ea41 61d2 	orr.w	r1, r1, r2, lsr #27
 8001824:	0150      	lsls	r0, r2, #5
 8001826:	4602      	mov	r2, r0
 8001828:	460b      	mov	r3, r1
 800182a:	ebb2 080a 	subs.w	r8, r2, sl
 800182e:	eb63 090b 	sbc.w	r9, r3, fp
 8001832:	f04f 0200 	mov.w	r2, #0
 8001836:	f04f 0300 	mov.w	r3, #0
 800183a:	ea4f 1389 	mov.w	r3, r9, lsl #6
 800183e:	ea43 6398 	orr.w	r3, r3, r8, lsr #26
 8001842:	ea4f 1288 	mov.w	r2, r8, lsl #6
 8001846:	ebb2 0408 	subs.w	r4, r2, r8
 800184a:	eb63 0509 	sbc.w	r5, r3, r9
 800184e:	f04f 0200 	mov.w	r2, #0
 8001852:	f04f 0300 	mov.w	r3, #0
 8001856:	00eb      	lsls	r3, r5, #3
 8001858:	ea43 7354 	orr.w	r3, r3, r4, lsr #29
 800185c:	00e2      	lsls	r2, r4, #3
 800185e:	4614      	mov	r4, r2
 8001860:	461d      	mov	r5, r3
 8001862:	eb14 030a 	adds.w	r3, r4, sl
 8001866:	603b      	str	r3, [r7, #0]
 8001868:	eb45 030b 	adc.w	r3, r5, fp
 800186c:	607b      	str	r3, [r7, #4]
 800186e:	f04f 0200 	mov.w	r2, #0
 8001872:	f04f 0300 	mov.w	r3, #0
 8001876:	e9d7 4500 	ldrd	r4, r5, [r7]
 800187a:	4629      	mov	r1, r5
 800187c:	028b      	lsls	r3, r1, #10
 800187e:	4621      	mov	r1, r4
 8001880:	ea43 5391 	orr.w	r3, r3, r1, lsr #22
 8001884:	4621      	mov	r1, r4
 8001886:	028a      	lsls	r2, r1, #10
 8001888:	4610      	mov	r0, r2
 800188a:	4619      	mov	r1, r3
 800188c:	6b7b      	ldr	r3, [r7, #52]	; 0x34
 800188e:	2200      	movs	r2, #0
 8001890:	60bb      	str	r3, [r7, #8]
 8001892:	60fa      	str	r2, [r7, #12]
 8001894:	e9d7 2302 	ldrd	r2, r3, [r7, #8]
 8001898:	f7fe fc96 	bl	80001c8 <__aeabi_uldivmod>
 800189c:	4602      	mov	r2, r0
 800189e:	460b      	mov	r3, r1
 80018a0:	4613      	mov	r3, r2
 80018a2:	63fb      	str	r3, [r7, #60]	; 0x3c
      }
      pllp = ((((RCC->PLLCFGR & RCC_PLLCFGR_PLLP) >> RCC_PLLCFGR_PLLP_Pos) + 1U) *2U);
 80018a4:	4b0b      	ldr	r3, [pc, #44]	; (80018d4 <HAL_RCC_GetSysClockFreq+0x180>)
 80018a6:	685b      	ldr	r3, [r3, #4]
 80018a8:	0c1b      	lsrs	r3, r3, #16
 80018aa:	f003 0303 	and.w	r3, r3, #3
 80018ae:	3301      	adds	r3, #1
 80018b0:	005b      	lsls	r3, r3, #1
 80018b2:	633b      	str	r3, [r7, #48]	; 0x30

      sysclockfreq = pllvco/pllp;
 80018b4:	6bfa      	ldr	r2, [r7, #60]	; 0x3c
 80018b6:	6b3b      	ldr	r3, [r7, #48]	; 0x30
 80018b8:	fbb2 f3f3 	udiv	r3, r2, r3
 80018bc:	63bb      	str	r3, [r7, #56]	; 0x38
      break;
 80018be:	e002      	b.n	80018c6 <HAL_RCC_GetSysClockFreq+0x172>
    }
    default:
    {
      sysclockfreq = HSI_VALUE;
 80018c0:	4b05      	ldr	r3, [pc, #20]	; (80018d8 <HAL_RCC_GetSysClockFreq+0x184>)
 80018c2:	63bb      	str	r3, [r7, #56]	; 0x38
      break;
 80018c4:	bf00      	nop
    }
  }
  return sysclockfreq;
 80018c6:	6bbb      	ldr	r3, [r7, #56]	; 0x38
}
 80018c8:	4618      	mov	r0, r3
 80018ca:	3740      	adds	r7, #64	; 0x40
 80018cc:	46bd      	mov	sp, r7
 80018ce:	e8bd 8fb0 	ldmia.w	sp!, {r4, r5, r7, r8, r9, sl, fp, pc}
 80018d2:	bf00      	nop
 80018d4:	40023800 	.word	0x40023800
 80018d8:	00f42400 	.word	0x00f42400
 80018dc:	017d7840 	.word	0x017d7840

080018e0 <__libc_init_array>:
 80018e0:	b570      	push	{r4, r5, r6, lr}
 80018e2:	4d0d      	ldr	r5, [pc, #52]	; (8001918 <__libc_init_array+0x38>)
 80018e4:	4c0d      	ldr	r4, [pc, #52]	; (800191c <__libc_init_array+0x3c>)
 80018e6:	1b64      	subs	r4, r4, r5
 80018e8:	10a4      	asrs	r4, r4, #2
 80018ea:	2600      	movs	r6, #0
 80018ec:	42a6      	cmp	r6, r4
 80018ee:	d109      	bne.n	8001904 <__libc_init_array+0x24>
 80018f0:	4d0b      	ldr	r5, [pc, #44]	; (8001920 <__libc_init_array+0x40>)
 80018f2:	4c0c      	ldr	r4, [pc, #48]	; (8001924 <__libc_init_array+0x44>)
 80018f4:	f000 f820 	bl	8001938 <_init>
 80018f8:	1b64      	subs	r4, r4, r5
 80018fa:	10a4      	asrs	r4, r4, #2
 80018fc:	2600      	movs	r6, #0
 80018fe:	42a6      	cmp	r6, r4
 8001900:	d105      	bne.n	800190e <__libc_init_array+0x2e>
 8001902:	bd70      	pop	{r4, r5, r6, pc}
 8001904:	f855 3b04 	ldr.w	r3, [r5], #4
 8001908:	4798      	blx	r3
 800190a:	3601      	adds	r6, #1
 800190c:	e7ee      	b.n	80018ec <__libc_init_array+0xc>
 800190e:	f855 3b04 	ldr.w	r3, [r5], #4
 8001912:	4798      	blx	r3
 8001914:	3601      	adds	r6, #1
 8001916:	e7f2      	b.n	80018fe <__libc_init_array+0x1e>
 8001918:	08001968 	.word	0x08001968
 800191c:	08001968 	.word	0x08001968
 8001920:	08001968 	.word	0x08001968
 8001924:	0800196c 	.word	0x0800196c

08001928 <memset>:
 8001928:	4402      	add	r2, r0
 800192a:	4603      	mov	r3, r0
 800192c:	4293      	cmp	r3, r2
 800192e:	d100      	bne.n	8001932 <memset+0xa>
 8001930:	4770      	bx	lr
 8001932:	f803 1b01 	strb.w	r1, [r3], #1
 8001936:	e7f9      	b.n	800192c <memset+0x4>

08001938 <_init>:
 8001938:	b5f8      	push	{r3, r4, r5, r6, r7, lr}
 800193a:	bf00      	nop
 800193c:	bcf8      	pop	{r3, r4, r5, r6, r7}
 800193e:	bc08      	pop	{r3}
 8001940:	469e      	mov	lr, r3
 8001942:	4770      	bx	lr

08001944 <_fini>:
 8001944:	b5f8      	push	{r3, r4, r5, r6, r7, lr}
 8001946:	bf00      	nop
 8001948:	bcf8      	pop	{r3, r4, r5, r6, r7}
 800194a:	bc08      	pop	{r3}
 800194c:	469e      	mov	lr, r3
 800194e:	4770      	bx	lr
